{
  "contractName": "Funding",
  "abi": [
    {
      "constant": true,
      "inputs": [
        {
          "name": "",
          "type": "uint256"
        }
      ],
      "name": "accounts",
      "outputs": [
        {
          "name": "username",
          "type": "bytes16"
        },
        {
          "name": "password",
          "type": "bytes"
        },
        {
          "name": "ipfsHash",
          "type": "bytes"
        },
        {
          "name": "token",
          "type": "int256"
        }
      ],
      "payable": false,
      "stateMutability": "view",
      "type": "function"
    },
    {
      "inputs": [],
      "payable": false,
      "stateMutability": "nonpayable",
      "type": "constructor"
    },
    {
      "constant": true,
      "inputs": [],
      "name": "getBal",
      "outputs": [
        {
          "name": "bal",
          "type": "uint256"
        }
      ],
      "payable": false,
      "stateMutability": "view",
      "type": "function"
    },
    {
      "constant": false,
      "inputs": [
        {
          "name": "username",
          "type": "bytes16"
        },
        {
          "name": "password",
          "type": "bytes"
        },
        {
          "name": "ipfsHash",
          "type": "bytes"
        }
      ],
      "name": "updateAccount",
      "outputs": [
        {
          "name": "success",
          "type": "bool"
        }
      ],
      "payable": false,
      "stateMutability": "nonpayable",
      "type": "function"
    },
    {
      "constant": false,
      "inputs": [
        {
          "name": "username",
          "type": "bytes16"
        },
        {
          "name": "password",
          "type": "bytes"
        },
        {
          "name": "ipfsHash",
          "type": "bytes"
        }
      ],
      "name": "createAccount",
      "outputs": [
        {
          "name": "success",
          "type": "bool"
        }
      ],
      "payable": false,
      "stateMutability": "nonpayable",
      "type": "function"
    },
    {
      "constant": false,
      "inputs": [
        {
          "name": "username",
          "type": "bytes16"
        },
        {
          "name": "oldPassword",
          "type": "bytes"
        },
        {
          "name": "newPassword",
          "type": "bytes"
        }
      ],
      "name": "changePassword",
      "outputs": [
        {
          "name": "success",
          "type": "bool"
        }
      ],
      "payable": false,
      "stateMutability": "nonpayable",
      "type": "function"
    },
    {
      "constant": true,
      "inputs": [
        {
          "name": "username",
          "type": "bytes16"
        },
        {
          "name": "password",
          "type": "bytes"
        }
      ],
      "name": "checkAuth",
      "outputs": [
        {
          "name": "success",
          "type": "bool"
        }
      ],
      "payable": false,
      "stateMutability": "view",
      "type": "function"
    },
    {
      "constant": true,
      "inputs": [
        {
          "name": "username",
          "type": "bytes16"
        }
      ],
      "name": "getAddressByUsername",
      "outputs": [
        {
          "name": "",
          "type": "address"
        }
      ],
      "payable": false,
      "stateMutability": "view",
      "type": "function"
    },
    {
      "constant": false,
      "inputs": [
        {
          "name": "ipfsHash",
          "type": "bytes"
        }
      ],
      "name": "exchangeToToken",
      "outputs": [
        {
          "name": "success",
          "type": "bool"
        }
      ],
      "payable": true,
      "stateMutability": "payable",
      "type": "function"
    },
    {
      "constant": false,
      "inputs": [
        {
          "name": "fromToken",
          "type": "uint256"
        },
        {
          "name": "username",
          "type": "bytes16"
        },
        {
          "name": "password",
          "type": "bytes"
        },
        {
          "name": "ipfsHash",
          "type": "bytes"
        }
      ],
      "name": "exchangeToEther",
      "outputs": [
        {
          "name": "success",
          "type": "bool"
        }
      ],
      "payable": false,
      "stateMutability": "nonpayable",
      "type": "function"
    },
    {
      "constant": true,
      "inputs": [
        {
          "name": "username",
          "type": "bytes16"
        },
        {
          "name": "password",
          "type": "bytes"
        }
      ],
      "name": "getUserProfile",
      "outputs": [
        {
          "name": "addr",
          "type": "address"
        },
        {
          "name": "usrname",
          "type": "bytes16"
        },
        {
          "name": "pwd",
          "type": "bytes"
        },
        {
          "name": "token",
          "type": "int256"
        },
        {
          "name": "ipfsHash",
          "type": "bytes"
        }
      ],
      "payable": false,
      "stateMutability": "view",
      "type": "function"
    },
    {
      "constant": true,
      "inputs": [
        {
          "name": "username",
          "type": "bytes16"
        }
      ],
      "name": "getListOfTokenExchangeLog",
      "outputs": [
        {
          "name": "tokensExchange",
          "type": "uint256[]"
        }
      ],
      "payable": false,
      "stateMutability": "view",
      "type": "function"
    },
    {
      "constant": true,
      "inputs": [
        {
          "name": "idTokenExchangeLog",
          "type": "uint256"
        }
      ],
      "name": "getTokenExchangeLog",
      "outputs": [
        {
          "name": "idTokenExLog",
          "type": "uint256"
        },
        {
          "name": "ownerUsername",
          "type": "bytes16"
        },
        {
          "name": "tokens",
          "type": "int256"
        },
        {
          "name": "ipfsHash",
          "type": "bytes"
        }
      ],
      "payable": false,
      "stateMutability": "view",
      "type": "function"
    },
    {
      "constant": true,
      "inputs": [
        {
          "name": "username",
          "type": "bytes16"
        }
      ],
      "name": "getDonateLog",
      "outputs": [
        {
          "name": "",
          "type": "uint256[]"
        }
      ],
      "payable": false,
      "stateMutability": "view",
      "type": "function"
    },
    {
      "constant": false,
      "inputs": [
        {
          "name": "username",
          "type": "bytes16"
        },
        {
          "name": "nameOfCamp",
          "type": "bytes"
        },
        {
          "name": "campaignIpfsHash",
          "type": "bytes"
        }
      ],
      "name": "createCampaign",
      "outputs": [
        {
          "name": "success",
          "type": "bool"
        }
      ],
      "payable": false,
      "stateMutability": "nonpayable",
      "type": "function"
    },
    {
      "constant": true,
      "inputs": [
        {
          "name": "username",
          "type": "bytes16"
        }
      ],
      "name": "getListCampaignByUsername",
      "outputs": [
        {
          "name": "campaignsList",
          "type": "uint256[]"
        }
      ],
      "payable": false,
      "stateMutability": "view",
      "type": "function"
    },
    {
      "constant": true,
      "inputs": [
        {
          "name": "idCampaign",
          "type": "uint256"
        }
      ],
      "name": "getCampaign",
      "outputs": [
        {
          "name": "id",
          "type": "uint256"
        },
        {
          "name": "creatorUsername",
          "type": "bytes16"
        },
        {
          "name": "numOfToken",
          "type": "int256"
        },
        {
          "name": "numberOfTrans",
          "type": "uint256"
        },
        {
          "name": "ipfsHash",
          "type": "bytes"
        }
      ],
      "payable": false,
      "stateMutability": "view",
      "type": "function"
    },
    {
      "constant": true,
      "inputs": [
        {
          "name": "idCampaign",
          "type": "uint256"
        }
      ],
      "name": "getTransactionListOfCamp",
      "outputs": [
        {
          "name": "ids",
          "type": "uint256[]"
        }
      ],
      "payable": false,
      "stateMutability": "view",
      "type": "function"
    },
    {
      "constant": true,
      "inputs": [
        {
          "name": "idTransaction",
          "type": "uint256"
        }
      ],
      "name": "getTransactionById",
      "outputs": [
        {
          "name": "id",
          "type": "uint256"
        },
        {
          "name": "fromUsername",
          "type": "bytes16"
        },
        {
          "name": "toIdCamp",
          "type": "uint256"
        },
        {
          "name": "numOfToken",
          "type": "int256"
        },
        {
          "name": "ipfsHash",
          "type": "bytes"
        }
      ],
      "payable": false,
      "stateMutability": "view",
      "type": "function"
    },
    {
      "constant": false,
      "inputs": [
        {
          "name": "tokens",
          "type": "uint256"
        },
        {
          "name": "idCampaign",
          "type": "uint256"
        },
        {
          "name": "username",
          "type": "bytes16"
        },
        {
          "name": "password",
          "type": "bytes"
        },
        {
          "name": "transIpfsHash",
          "type": "bytes"
        },
        {
          "name": "exchangeIpfsHash",
          "type": "bytes"
        }
      ],
      "name": "donate",
      "outputs": [
        {
          "name": "success",
          "type": "bool"
        }
      ],
      "payable": false,
      "stateMutability": "nonpayable",
      "type": "function"
    },
    {
      "constant": false,
      "inputs": [
        {
          "name": "username",
          "type": "bytes16"
        },
        {
          "name": "password",
          "type": "bytes"
        },
        {
          "name": "idCampaign",
          "type": "uint256"
        },
        {
          "name": "withdrawTokens",
          "type": "uint256"
        },
        {
          "name": "transIpfsHash",
          "type": "bytes"
        },
        {
          "name": "exchangeIpfsHash",
          "type": "bytes"
        }
      ],
      "name": "withDraw",
      "outputs": [
        {
          "name": "",
          "type": "bool"
        }
      ],
      "payable": false,
      "stateMutability": "nonpayable",
      "type": "function"
    },
    {
      "constant": true,
      "inputs": [],
      "name": "getUserCount",
      "outputs": [
        {
          "name": "count",
          "type": "uint256"
        }
      ],
      "payable": false,
      "stateMutability": "view",
      "type": "function"
    },
    {
      "constant": true,
      "inputs": [],
      "name": "getCampaignCount",
      "outputs": [
        {
          "name": "count",
          "type": "uint256"
        }
      ],
      "payable": false,
      "stateMutability": "view",
      "type": "function"
    },
    {
      "constant": true,
      "inputs": [],
      "name": "getTransCount",
      "outputs": [
        {
          "name": "count",
          "type": "uint256"
        }
      ],
      "payable": false,
      "stateMutability": "view",
      "type": "function"
    },
    {
      "constant": true,
      "inputs": [],
      "name": "getExchangesCount",
      "outputs": [
        {
          "name": "count",
          "type": "uint256"
        }
      ],
      "payable": false,
      "stateMutability": "view",
      "type": "function"
    }
  ],
  "bytecode": "0x60806040523480156200001157600080fd5b506200001c620005a3565b62000026620005df565b6080604051908101604052807f61646d696e0000000000000000000000000000000000000000000000000000006fffffffffffffffffffffffffffffffff191681526020016040805190810160405280600781526020017f636861726974790000000000000000000000000000000000000000000000000081525081526020016040805190810160405280600d81526020017f6e6f742d617661696c61626c65000000000000000000000000000000000000008152508152602001600081525091506008829080600181540180825580915050906001820390600052602060002090600402016000909192909190915060008201518160000160006101000a8154816fffffffffffffffffffffffffffffffff0219169083700100000000000000000000000000000000900402179055506020820151816001019080519060200190620001759291906200061b565b506040820151816002019080519060200190620001949291906200061b565b506060820151816003015550505060093390806001815401808255809150509060018203906000526020600020016000909192909190916101000a81548173ffffffffffffffffffffffffffffffffffffffff021916908373ffffffffffffffffffffffffffffffffffffffff16021790555050600a80600181540180825580915050906001820390600052602060002090600291828204019190066010027f61646d696e000000000000000000000000000000000000000000000000000000909190916101000a8154816fffffffffffffffffffffffffffffffff02191690837001000000000000000000000000000000009004021790555050600e602060405190810160405280600060ff16815250908060018154018082558091505090600182039060005260206000200160009091929091909150906001620002dc929190620006a2565b50506010602060405190810160405280600060ff168152509080600181540180825580915050906001820390600052602060002001600090919290919091509060016200032b929190620006a2565b50506000601181905550600160128190555060016013819055506080604051908101604052806000815260200183600001516fffffffffffffffffffffffffffffffff19168152602001600081526020016040805190810160405280600d81526020017f6e6f742d617661696c61626c6500000000000000000000000000000000000000815250815250905080600660008081526020019081526020016000206000820151816000015560208201518160010160006101000a8154816fffffffffffffffffffffffffffffffff0219169083700100000000000000000000000000000000900402179055506040820151816002015560608201518160030190805190602001906200043e9291906200061b565b50905050600c602060405190810160405280600060ff168152509080600181540180825580915050906001820390600052602060002001600090919290919091509060016200048f929190620006a2565b5050600d806001815401808255809150509060018203906000526020600020016000606060405190810160405280602c81526020017f746869732063616d706169676e206973207573656420746f207761737465207481526020017f68652031737420696e64657800000000000000000000000000000000000000008152509091909150908051906020019062000528929190620006f9565b50506001600d8054905003600760405180807f746869732063616d706169676e206973207573656420746f207761737465207481526020017f68652031737420696e6465780000000000000000000000000000000000000000815250602c0190509081526020016040518091039020819055505050620007a8565b60806040519081016040528060006fffffffffffffffffffffffffffffffff191681526020016060815260200160608152602001600081525090565b6080604051908101604052806000815260200160006fffffffffffffffffffffffffffffffff1916815260200160008152602001606081525090565b828054600181600116156101000203166002900490600052602060002090601f016020900481019282601f106200065e57805160ff19168380011785556200068f565b828001600101855582156200068f579182015b828111156200068e57825182559160200191906001019062000671565b5b5090506200069e919062000780565b5090565b828054828255906000526020600020908101928215620006e6579160200282015b82811115620006e5578251829060ff16905591602001919060010190620006c3565b5b509050620006f5919062000780565b5090565b828054600181600116156101000203166002900490600052602060002090601f016020900481019282601f106200073c57805160ff19168380011785556200076d565b828001600101855582156200076d579182015b828111156200076c5782518255916020019190600101906200074f565b5b5090506200077c919062000780565b5090565b620007a591905b80821115620007a157600081600090555060010162000787565b5090565b90565b61526680620007b86000396000f30060806040526004361061013e576000357c0100000000000000000000000000000000000000000000000000000000900463ffffffff1680630d33e037146101435780630fc1930b1461022457806317ed8c161461030857806325caa2621461039d5780635598f8cc146103c857806363db68db146104b057806365772af6146105305780636caa9218146106145780636d4a0a251461063f578063780fc5e2146106d45780638202f8dc146107b85780639dc37160146107e35780639e297daa14610881578063a2f94ed11461096f578063a64f51d314610a04578063a65ea7db14610a2f578063a868b44514610ab1578063b5cb15f714610b95578063d29d859814610bc0578063d90a98a114610cfe578063e28e2bcb14610e3c578063e8532f1c14610eb0578063f2a40db814611082578063f4b30eaf146111c8575b600080fd5b34801561014f57600080fd5b5061016e600480360381019080803590602001909291905050506112b0565b60405180858152602001846fffffffffffffffffffffffffffffffff19166fffffffffffffffffffffffffffffffff1916815260200183815260200180602001828103825283818151815260200191508051906020019080838360005b838110156101e65780820151818401526020810190506101cb565b50505050905090810190601f1680156102135780820380516001836020036101000a031916815260200191505b509550505050505060405180910390f35b34801561023057600080fd5b506102ee60048036038101908080356fffffffffffffffffffffffffffffffff19169060200190929190803590602001908201803590602001908080601f0160208091040260200160405190810160405280939291908181526020018383808284378201915050505050509192919290803590602001908201803590602001908080601f016020809104026020016040519081016040528093929190818152602001838380828437820191505050505050919291929050505061140a565b604051808215151515815260200191505060405180910390f35b34801561031457600080fd5b5061034660048036038101908080356fffffffffffffffffffffffffffffffff19169060200190929190505050611720565b6040518080602001828103825283818151815260200191508051906020019060200280838360005b8381101561038957808201518184015260208101905061036e565b505050509050019250505060405180910390f35b3480156103a957600080fd5b506103b26117ca565b6040518082815260200191505060405180910390f35b3480156103d457600080fd5b506103f3600480360381019080803590602001909291905050506117e9565b60405180868152602001856fffffffffffffffffffffffffffffffff19166fffffffffffffffffffffffffffffffff1916815260200184815260200183815260200180602001828103825283818151815260200191508051906020019080838360005b83811015610471578082015181840152602081019050610456565b50505050905090810190601f16801561049e5780820380516001836020036101000a031916815260200191505b50965050505050505060405180910390f35b3480156104bc57600080fd5b506104ee60048036038101908080356fffffffffffffffffffffffffffffffff191690602001909291905050506119f9565b604051808273ffffffffffffffffffffffffffffffffffffffff1673ffffffffffffffffffffffffffffffffffffffff16815260200191505060405180910390f35b34801561053c57600080fd5b506105fa60048036038101908080356fffffffffffffffffffffffffffffffff19169060200190929190803590602001908201803590602001908080601f0160208091040260200160405190810160405280939291908181526020018383808284378201915050505050509192919290803590602001908201803590602001908080601f0160208091040260200160405190810160405280939291908181526020018383808284378201915050505050509192919290505050611a75565b604051808215151515815260200191505060405180910390f35b34801561062057600080fd5b50610629611d40565b6040518082815260200191505060405180910390f35b34801561064b57600080fd5b5061067d60048036038101908080356fffffffffffffffffffffffffffffffff19169060200190929190505050611d4a565b6040518080602001828103825283818151815260200191508051906020019060200280838360005b838110156106c05780820151818401526020810190506106a5565b505050509050019250505060405180910390f35b3480156106e057600080fd5b5061079e60048036038101908080356fffffffffffffffffffffffffffffffff19169060200190929190803590602001908201803590602001908080601f0160208091040260200160405190810160405280939291908181526020018383808284378201915050505050509192919290803590602001908201803590602001908080601f0160208091040260200160405190810160405280939291908181526020018383808284378201915050505050509192919290505050611df4565b604051808215151515815260200191505060405180910390f35b3480156107c457600080fd5b506107cd6123ee565b6040518082815260200191505060405180910390f35b3480156107ef57600080fd5b5061086760048036038101908080356fffffffffffffffffffffffffffffffff19169060200190929190803590602001908201803590602001908080601f01602080910402602001604051908101604052809392919081815260200183838082843782019150505050505091929192905050506123f8565b604051808215151515815260200191505060405180910390f35b34801561088d57600080fd5b506109556004803603810190808035906020019092919080356fffffffffffffffffffffffffffffffff19169060200190929190803590602001908201803590602001908080601f0160208091040260200160405190810160405280939291908181526020018383808284378201915050505050509192919290803590602001908201803590602001908080601f0160208091040260200160405190810160405280939291908181526020018383808284378201915050505050509192919290505050612737565b604051808215151515815260200191505060405180910390f35b34801561097b57600080fd5b506109ad60048036038101908080356fffffffffffffffffffffffffffffffff19169060200190929190505050612c9b565b6040518080602001828103825283818151815260200191508051906020019060200280838360005b838110156109f05780820151818401526020810190506109d5565b505050509050019250505060405180910390f35b348015610a1057600080fd5b50610a19612d45565b6040518082815260200191505060405180910390f35b348015610a3b57600080fd5b50610a5a60048036038101908080359060200190929190505050612d4f565b6040518080602001828103825283818151815260200191508051906020019060200280838360005b83811015610a9d578082015181840152602081019050610a82565b505050509050019250505060405180910390f35b348015610abd57600080fd5b50610b7b60048036038101908080356fffffffffffffffffffffffffffffffff19169060200190929190803590602001908201803590602001908080601f0160208091040260200160405190810160405280939291908181526020018383808284378201915050505050509192919290803590602001908201803590602001908080601f0160208091040260200160405190810160405280939291908181526020018383808284378201915050505050509192919290505050612dc0565b604051808215151515815260200191505060405180910390f35b348015610ba157600080fd5b50610baa6130d6565b6040518082815260200191505060405180910390f35b348015610bcc57600080fd5b50610ce4600480360381019080803590602001909291908035906020019092919080356fffffffffffffffffffffffffffffffff19169060200190929190803590602001908201803590602001908080601f0160208091040260200160405190810160405280939291908181526020018383808284378201915050505050509192919290803590602001908201803590602001908080601f0160208091040260200160405190810160405280939291908181526020018383808284378201915050505050509192919290803590602001908201803590602001908080601f01602080910402602001604051908101604052809392919081815260200183838082843782019150505050505091929192905050506130e3565b604051808215151515815260200191505060405180910390f35b348015610d0a57600080fd5b50610e2260048036038101908080356fffffffffffffffffffffffffffffffff19169060200190929190803590602001908201803590602001908080601f01602080910402602001604051908101604052809392919081815260200183838082843782019150505050505091929192908035906020019092919080359060200190929190803590602001908201803590602001908080601f0160208091040260200160405190810160405280939291908181526020018383808284378201915050505050509192919290803590602001908201803590602001908080601f01602080910402602001604051908101604052809392919081815260200183838082843782019150505050505091929192905050506139f3565b604051808215151515815260200191505060405180910390f35b610e96600480360381019080803590602001908201803590602001908080601f0160208091040260200160405190810160405280939291908181526020018383808284378201915050505050509192919290505050614274565b604051808215151515815260200191505060405180910390f35b348015610ebc57600080fd5b50610f3460048036038101908080356fffffffffffffffffffffffffffffffff19169060200190929190803590602001908201803590602001908080601f016020809104026020016040519081016040528093929190818152602001838380828437820191505050505050919291929050505061477a565b604051808673ffffffffffffffffffffffffffffffffffffffff1673ffffffffffffffffffffffffffffffffffffffff168152602001856fffffffffffffffffffffffffffffffff19166fffffffffffffffffffffffffffffffff191681526020018060200184815260200180602001838103835286818151815260200191508051906020019080838360005b83811015610fdc578082015181840152602081019050610fc1565b50505050905090810190601f1680156110095780820380516001836020036101000a031916815260200191505b50838103825284818151815260200191508051906020019080838360005b83811015611042578082015181840152602081019050611027565b50505050905090810190601f16801561106f5780820380516001836020036101000a031916815260200191505b5097505050505050505060405180910390f35b34801561108e57600080fd5b506110ad60048036038101908080359060200190929190505050614a41565b60405180856fffffffffffffffffffffffffffffffff19166fffffffffffffffffffffffffffffffff191681526020018060200180602001848152602001838103835286818151815260200191508051906020019080838360005b83811015611123578082015181840152602081019050611108565b50505050905090810190601f1680156111505780820380516001836020036101000a031916815260200191505b50838103825285818151815260200191508051906020019080838360005b8381101561118957808201518184015260208101905061116e565b50505050905090810190601f1680156111b65780820380516001836020036101000a031916815260200191505b50965050505050505060405180910390f35b3480156111d457600080fd5b506111f360048036038101908080359060200190929190505050614bcd565b60405180868152602001856fffffffffffffffffffffffffffffffff19166fffffffffffffffffffffffffffffffff1916815260200184815260200183815260200180602001828103825283818151815260200191508051906020019080838360005b83811015611271578082015181840152602081019050611256565b50505050905090810190601f16801561129e5780820380516001836020036101000a031916815260200191505b50965050505050505060405180910390f35b600080600060606112bf614fbe565b6006600087815260200190815260200160002060806040519081016040529081600082015481526020016001820160009054906101000a9004700100000000000000000000000000000000026fffffffffffffffffffffffffffffffff19166fffffffffffffffffffffffffffffffff1916815260200160028201548152602001600382018054600181600116156101000203166002900480601f0160208091040260200160405190810160405280929190818152602001828054600181600116156101000203166002900480156113d85780601f106113ad576101008083540402835291602001916113d8565b820191906000526020600020905b8154815290600101906020018083116113bb57829003601f168201915b505050505081525050905080600001518160200151826040015183606001518090509450945094509450509193509193565b6000611414614ffa565b61141e85856123f8565b151561142957600080fd5b600860016000876fffffffffffffffffffffffffffffffff19166fffffffffffffffffffffffffffffffff191681526020019081526020016000205481548110151561147157fe5b9060005260206000209060040201608060405190810160405290816000820160009054906101000a9004700100000000000000000000000000000000026fffffffffffffffffffffffffffffffff19166fffffffffffffffffffffffffffffffff19168152602001600182018054600181600116156101000203166002900480601f0160208091040260200160405190810160405280929190818152602001828054600181600116156101000203166002900480156115715780601f1061154657610100808354040283529160200191611571565b820191906000526020600020905b81548152906001019060200180831161155457829003601f168201915b50505050508152602001600282018054600181600116156101000203166002900480601f0160208091040260200160405190810160405280929190818152602001828054600181600116156101000203166002900480156116135780601f106115e857610100808354040283529160200191611613565b820191906000526020600020905b8154815290600101906020018083116115f657829003601f168201915b5050505050815260200160038201548152505090508281604001819052508060086001600084600001516fffffffffffffffffffffffffffffffff19166fffffffffffffffffffffffffffffffff191681526020019081526020016000205481548110151561167e57fe5b906000526020600020906004020160008201518160000160006101000a8154816fffffffffffffffffffffffffffffffff02191690837001000000000000000000000000000000009004021790555060208201518160010190805190602001906116e9929190615036565b506040820151816002019080519060200190611706929190615036565b506060820151816003015590505060019150509392505050565b6060600e60016000846fffffffffffffffffffffffffffffffff19166fffffffffffffffffffffffffffffffff191681526020019081526020016000205481548110151561176a57fe5b906000526020600020018054806020026020016040519081016040528092919081815260200182805480156117be57602002820191906000526020600020905b8154815260200190600101908083116117aa575b50505050509050919050565b60003073ffffffffffffffffffffffffffffffffffffffff1631905090565b60008060008060606117f96150b6565b6004600088815260200190815260200160002060c0604051908101604052908160008201548152602001600182018054600181600116156101000203166002900480601f0160208091040260200160405190810160405280929190818152602001828054600181600116156101000203166002900480156118bb5780601f10611890576101008083540402835291602001916118bb565b820191906000526020600020905b81548152906001019060200180831161189e57829003601f168201915b505050505081526020016002820160009054906101000a9004700100000000000000000000000000000000026fffffffffffffffffffffffffffffffff19166fffffffffffffffffffffffffffffffff191681526020016003820154815260200160048201548152602001600582018054600181600116156101000203166002900480601f0160208091040260200160405190810160405280929190818152602001828054600181600116156101000203166002900480156119be5780601f10611993576101008083540402835291602001916119be565b820191906000526020600020905b8154815290600101906020018083116119a157829003601f168201915b505050505081525050905080600001518160400151826060015183608001518460a00151809050955095509550955095505091939590929450565b6000600960016000846fffffffffffffffffffffffffffffffff19166fffffffffffffffffffffffffffffffff1916815260200190815260200160002054815481101515611a4357fe5b9060005260206000200160009054906101000a900473ffffffffffffffffffffffffffffffffffffffff169050919050565b6000611a7f6150b6565b611a8885614d3b565b1515611a9357600080fd5b611a9c84614dbd565b151515611aa857600080fd5b60c0604051908101604052806011548152602001858152602001866fffffffffffffffffffffffffffffffff19168152602001600081526020016000815260200184815250905080600460006011548152602001908152602001600020600082015181600001556020820151816001019080519060200190611b2b929190615036565b5060408201518160020160006101000a8154816fffffffffffffffffffffffffffffffff021916908370010000000000000000000000000000000090040217905550606082015181600301556080820151816004015560a0820151816005019080519060200190611b9d929190615036565b50905050600e60016000876fffffffffffffffffffffffffffffffff19166fffffffffffffffffffffffffffffffff1916815260200190815260200160002054815481101515611be957fe5b9060005260206000200160115490806001815401808255809150509060018203906000526020600020016000909192909190915055506001601160008282540192505081905550600d849080600181540180825580915050906001820390600052602060002001600090919290919091509080519060200190611c6d929190615100565b50506001600d80549050036007856040518082805190602001908083835b602083101515611cb05780518252602082019150602081019050602083039250611c8b565b6001836020036101000a038019825116818451168082178552505050505050905001915050908152602001604051809103902081905550600f602060405190810160405280600060ff16815250908060018154018082558091505090600182039060005260206000200160009091929091909150906001611d32929190615180565b505060019150509392505050565b6000601154905090565b6060600c60016000846fffffffffffffffffffffffffffffffff19166fffffffffffffffffffffffffffffffff1916815260200190815260200160002054815481101515611d9457fe5b90600052602060002001805480602002602001604051908101604052809291908181526020018280548015611de857602002820191906000526020600020905b815481526020019060010190808311611dd4575b50505050509050919050565b6000611dfe614ffa565b611e06614fbe565b611e0f33614f04565b151515611e1b57600080fd5b611e2486614d3b565b151515611e3057600080fd5b608060405190810160405280876fffffffffffffffffffffffffffffffff19168152602001868152602001858152602001600081525091506008829080600181540180825580915050906001820390600052602060002090600402016000909192909190915060008201518160000160006101000a8154816fffffffffffffffffffffffffffffffff0219169083700100000000000000000000000000000000900402179055506020820151816001019080519060200190611ef3929190615036565b506040820151816002019080519060200190611f10929190615036565b5060608201518160030155505050600a86908060018154018082558091505090600182039060005260206000209060029182820401919006601002909192909190916101000a8154816fffffffffffffffffffffffffffffffff0219169083700100000000000000000000000000000000900402179055505060093390806001815401808255809150509060018203906000526020600020016000909192909190916101000a81548173ffffffffffffffffffffffffffffffffffffffff021916908373ffffffffffffffffffffffffffffffffffffffff16021790555050600b84908060018154018082558091505090600182039060005260206000200160009091929091909150908051906020019061202c929190615100565b5050600e602060405190810160405280600060ff16815250908060018154018082558091505090600182039060005260206000200160009091929091909150906001612079929190615180565b50506010602060405190810160405280600060ff168152509080600181540180825580915050906001820390600052602060002001600090919290919091509060016120c6929190615180565b50506001600980549050036000803373ffffffffffffffffffffffffffffffffffffffff1673ffffffffffffffffffffffffffffffffffffffff1681526020019081526020016000208190555081600260003373ffffffffffffffffffffffffffffffffffffffff1673ffffffffffffffffffffffffffffffffffffffff16815260200190815260200160002060008201518160000160006101000a8154816fffffffffffffffffffffffffffffffff02191690837001000000000000000000000000000000009004021790555060208201518160010190805190602001906121b0929190615036565b5060408201518160020190805190602001906121cd929190615036565b50606082015181600301559050506001600a805490500360016000886fffffffffffffffffffffffffffffffff19166fffffffffffffffffffffffffffffffff19168152602001908152602001600020819055506001600b80549050036003856040518082805190602001908083835b602083101515612262578051825260208201915060208101905060208303925061223d565b6001836020036101000a0380198251168184511680821785525050505050509050019150509081526020016040518091039020819055506080604051908101604052806000815260200183600001516fffffffffffffffffffffffffffffffff19168152602001600081526020016040805190810160405280600d81526020017f6e6f742d617661696c61626c6500000000000000000000000000000000000000815250815250905080600660008081526020019081526020016000206000820151816000015560208201518160010160006101000a8154816fffffffffffffffffffffffffffffffff021916908370010000000000000000000000000000000090040217905550604082015181600201556060820151816003019080519060200190612390929190615036565b50905050600c602060405190810160405280600060ff168152509080600181540180825580915050906001820390600052602060002001600090919290919091509060016123df929190615180565b50506001925050509392505050565b6000601254905090565b6000612402614ffa565b61240b84614d3b565b151561241657600080fd5b600860016000866fffffffffffffffffffffffffffffffff19166fffffffffffffffffffffffffffffffff191681526020019081526020016000205481548110151561245e57fe5b9060005260206000209060040201608060405190810160405290816000820160009054906101000a9004700100000000000000000000000000000000026fffffffffffffffffffffffffffffffff19166fffffffffffffffffffffffffffffffff19168152602001600182018054600181600116156101000203166002900480601f01602080910402602001604051908101604052809291908181526020018280546001816001161561010002031660029004801561255e5780601f106125335761010080835404028352916020019161255e565b820191906000526020600020905b81548152906001019060200180831161254157829003601f168201915b50505050508152602001600282018054600181600116156101000203166002900480601f0160208091040260200160405190810160405280929190818152602001828054600181600116156101000203166002900480156126005780601f106125d557610100808354040283529160200191612600565b820191906000526020600020905b8154815290600101906020018083116125e357829003601f168201915b505050505081526020016003820154815250509050836fffffffffffffffffffffffffffffffff191681600001516fffffffffffffffffffffffffffffffff191614801561271d5750826040518082805190602001908083835b60208310151561267f578051825260208201915060208101905060208303925061265a565b6001836020036101000a03801982511681845116808217855250505050505090500191505060405180910390206000191681602001516040518082805190602001908083835b6020831015156126ea57805182526020820191506020810190506020830392506126c5565b6001836020036101000a038019825116818451168082178552505050505050905001915050604051809103902060001916145b1561272b5760019150612730565b600091505b5092915050565b6000612741614ffa565b612749614fbe565b61275386866123f8565b151561275e57600080fd5b600860016000886fffffffffffffffffffffffffffffffff19166fffffffffffffffffffffffffffffffff19168152602001908152602001600020548154811015156127a657fe5b9060005260206000209060040201608060405190810160405290816000820160009054906101000a9004700100000000000000000000000000000000026fffffffffffffffffffffffffffffffff19166fffffffffffffffffffffffffffffffff19168152602001600182018054600181600116156101000203166002900480601f0160208091040260200160405190810160405280929190818152602001828054600181600116156101000203166002900480156128a65780601f1061287b576101008083540402835291602001916128a6565b820191906000526020600020905b81548152906001019060200180831161288957829003601f168201915b50505050508152602001600282018054600181600116156101000203166002900480601f0160208091040260200160405190810160405280929190818152602001828054600181600116156101000203166002900480156129485780601f1061291d57610100808354040283529160200191612948565b820191906000526020600020905b81548152906001019060200180831161292b57829003601f168201915b5050505050815260200160038201548152505091508682606001511015151561297057600080fd5b633b9aca00870261297f6117ca565b1015151561298c57600080fd5b3373ffffffffffffffffffffffffffffffffffffffff166108fc633b9aca0089029081150290604051600060405180830381858888f193505050501580156129d8573d6000803e3d6000fd5b508682606001818151039150818152505060806040519081016040528083600001516fffffffffffffffffffffffffffffffff191681526020018360200151815260200183604001518152602001836060015181525060086001600085600001516fffffffffffffffffffffffffffffffff19166fffffffffffffffffffffffffffffffff1916815260200190815260200160002054815481101515612a7a57fe5b906000526020600020906004020160008201518160000160006101000a8154816fffffffffffffffffffffffffffffffff0219169083700100000000000000000000000000000000900402179055506020820151816001019080519060200190612ae5929190615036565b506040820151816002019080519060200190612b02929190615036565b5060608201518160030155905050608060405190810160405280601354815260200183600001516fffffffffffffffffffffffffffffffff191681526020017fffffffffffffffffffffffffffffffffffffffffffffffffffffffffffffffff89028152602001858152509050806006600060135481526020019081526020016000206000820151816000015560208201518160010160006101000a8154816fffffffffffffffffffffffffffffffff021916908370010000000000000000000000000000000090040217905550604082015181600201556060820151816003019080519060200190612bf6929190615036565b50905050600c6001600084600001516fffffffffffffffffffffffffffffffff19166fffffffffffffffffffffffffffffffff1916815260200190815260200160002054815481101515612c4657fe5b9060005260206000200160135490806001815401808255809150509060018203906000526020600020016000909192909190915055506001601360008282540192505081905550600192505050949350505050565b6060601060016000846fffffffffffffffffffffffffffffffff19166fffffffffffffffffffffffffffffffff1916815260200190815260200160002054815481101515612ce557fe5b90600052602060002001805480602002602001604051908101604052809291908181526020018280548015612d3957602002820191906000526020600020905b815481526020019060010190808311612d25575b50505050509050919050565b6000601354905090565b6060600f82815481101515612d6057fe5b90600052602060002001805480602002602001604051908101604052809291908181526020018280548015612db457602002820191906000526020600020905b815481526020019060010190808311612da0575b50505050509050919050565b6000612dca614ffa565b612dd485856123f8565b1515612ddf57600080fd5b600860016000876fffffffffffffffffffffffffffffffff19166fffffffffffffffffffffffffffffffff1916815260200190815260200160002054815481101515612e2757fe5b9060005260206000209060040201608060405190810160405290816000820160009054906101000a9004700100000000000000000000000000000000026fffffffffffffffffffffffffffffffff19166fffffffffffffffffffffffffffffffff19168152602001600182018054600181600116156101000203166002900480601f016020809104026020016040519081016040528092919081815260200182805460018160011615610100020316600290048015612f275780601f10612efc57610100808354040283529160200191612f27565b820191906000526020600020905b815481529060010190602001808311612f0a57829003601f168201915b50505050508152602001600282018054600181600116156101000203166002900480601f016020809104026020016040519081016040528092919081815260200182805460018160011615610100020316600290048015612fc95780601f10612f9e57610100808354040283529160200191612fc9565b820191906000526020600020905b815481529060010190602001808311612fac57829003601f168201915b5050505050815260200160038201548152505090508281602001819052508060086001600084600001516fffffffffffffffffffffffffffffffff19166fffffffffffffffffffffffffffffffff191681526020019081526020016000205481548110151561303457fe5b906000526020600020906004020160008201518160000160006101000a8154816fffffffffffffffffffffffffffffffff021916908370010000000000000000000000000000000090040217905550602082015181600101908051906020019061309f929190615036565b5060408201518160020190805190602001906130bc929190615036565b506060820151816003015590505060019150509392505050565b6000600980549050905090565b60006130ed614ffa565b6130f56150b6565b6130fd6151d2565b613105614fbe565b61310f89896123f8565b151561311a57600080fd5b6008600160008b6fffffffffffffffffffffffffffffffff19166fffffffffffffffffffffffffffffffff191681526020019081526020016000205481548110151561316257fe5b9060005260206000209060040201608060405190810160405290816000820160009054906101000a9004700100000000000000000000000000000000026fffffffffffffffffffffffffffffffff19166fffffffffffffffffffffffffffffffff19168152602001600182018054600181600116156101000203166002900480601f0160208091040260200160405190810160405280929190818152602001828054600181600116156101000203166002900480156132625780601f1061323757610100808354040283529160200191613262565b820191906000526020600020905b81548152906001019060200180831161324557829003601f168201915b50505050508152602001600282018054600181600116156101000203166002900480601f0160208091040260200160405190810160405280929190818152602001828054600181600116156101000203166002900480156133045780601f106132d957610100808354040283529160200191613304565b820191906000526020600020905b8154815290600101906020018083116132e757829003601f168201915b5050505050815260200160038201548152505093508a84606001511215151561332c57600080fd5b8a846060018181510391508181525050836008600160008c6fffffffffffffffffffffffffffffffff19166fffffffffffffffffffffffffffffffff191681526020019081526020016000205481548110151561338557fe5b906000526020600020906004020160008201518160000160006101000a8154816fffffffffffffffffffffffffffffffff02191690837001000000000000000000000000000000009004021790555060208201518160010190805190602001906133f0929190615036565b50604082015181600201908051906020019061340d929190615036565b5060608201518160030155905050600460008b815260200190815260200160002060c0604051908101604052908160008201548152602001600182018054600181600116156101000203166002900480601f0160208091040260200160405190810160405280929190818152602001828054600181600116156101000203166002900480156134dd5780601f106134b2576101008083540402835291602001916134dd565b820191906000526020600020905b8154815290600101906020018083116134c057829003601f168201915b505050505081526020016002820160009054906101000a9004700100000000000000000000000000000000026fffffffffffffffffffffffffffffffff19166fffffffffffffffffffffffffffffffff191681526020016003820154815260200160048201548152602001600582018054600181600116156101000203166002900480601f0160208091040260200160405190810160405280929190818152602001828054600181600116156101000203166002900480156135e05780601f106135b5576101008083540402835291602001916135e0565b820191906000526020600020905b8154815290600101906020018083116135c357829003601f168201915b50505050508152505092508a836060018181510191508181525050600183608001818151019150818152505082600460008c8152602001908152602001600020600082015181600001556020820151816001019080519060200190613646929190615036565b5060408201518160020160006101000a8154816fffffffffffffffffffffffffffffffff021916908370010000000000000000000000000000000090040217905550606082015181600301556080820151816004015560a08201518160050190805190602001906136b8929190615036565b5090505060a06040519081016040528060125481526020018a6fffffffffffffffffffffffffffffffff191681526020018b81526020018c8152602001888152509150600f8a81548110151561370a57fe5b906000526020600020016012549080600181540180825580915050906001820390600052602060002001600090919290919091505550816005600060125481526020019081526020016000206000820151816000015560208201518160010160006101000a8154816fffffffffffffffffffffffffffffffff021916908370010000000000000000000000000000000090040217905550604082015181600201556060820151816003015560808201518160040190805190602001906137d1929190615036565b509050506010600160008b6fffffffffffffffffffffffffffffffff19166fffffffffffffffffffffffffffffffff191681526020019081526020016000205481548110151561381d57fe5b906000526020600020016012549080600181540180825580915050906001820390600052602060002001600090919290919091505550608060405190810160405280601354815260200185600001516fffffffffffffffffffffffffffffffff191681526020017fffffffffffffffffffffffffffffffffffffffffffffffffffffffffffffffff8d028152602001878152509050806006600060135481526020019081526020016000206000820151816000015560208201518160010160006101000a8154816fffffffffffffffffffffffffffffffff021916908370010000000000000000000000000000000090040217905550604082015181600201556060820151816003019080519060200190613939929190615036565b50905050600c6001600086600001516fffffffffffffffffffffffffffffffff19166fffffffffffffffffffffffffffffffff191681526020019081526020016000205481548110151561398957fe5b9060005260206000200160135490806001815401808255809150509060018203906000526020600020016000909192909190915055506001601360008282540192505081905550600160126000828254019250508190555060019450505050509695505050505050565b60006139fd6150b6565b613a05614ffa565b613a0d6151d2565b613a15614fbe565b613a1f8b8b6123f8565b1515613a2a57600080fd5b600460008a815260200190815260200160002060c0604051908101604052908160008201548152602001600182018054600181600116156101000203166002900480601f016020809104026020016040519081016040528092919081815260200182805460018160011615610100020316600290048015613aec5780601f10613ac157610100808354040283529160200191613aec565b820191906000526020600020905b815481529060010190602001808311613acf57829003601f168201915b505050505081526020016002820160009054906101000a9004700100000000000000000000000000000000026fffffffffffffffffffffffffffffffff19166fffffffffffffffffffffffffffffffff191681526020016003820154815260200160048201548152602001600582018054600181600116156101000203166002900480601f016020809104026020016040519081016040528092919081815260200182805460018160011615610100020316600290048015613bef5780601f10613bc457610100808354040283529160200191613bef565b820191906000526020600020905b815481529060010190602001808311613bd257829003601f168201915b505050505081525050935087846060015112151515613c0d57600080fd5b8784606001818151039150818152505083600460008b8152602001908152602001600020600082015181600001556020820151816001019080519060200190613c57929190615036565b5060408201518160020160006101000a8154816fffffffffffffffffffffffffffffffff021916908370010000000000000000000000000000000090040217905550606082015181600301556080820151816004015560a0820151816005019080519060200190613cc9929190615036565b509050506008600160008d6fffffffffffffffffffffffffffffffff19166fffffffffffffffffffffffffffffffff1916815260200190815260200160002054815481101515613d1557fe5b9060005260206000209060040201608060405190810160405290816000820160009054906101000a9004700100000000000000000000000000000000026fffffffffffffffffffffffffffffffff19166fffffffffffffffffffffffffffffffff19168152602001600182018054600181600116156101000203166002900480601f016020809104026020016040519081016040528092919081815260200182805460018160011615610100020316600290048015613e155780601f10613dea57610100808354040283529160200191613e15565b820191906000526020600020905b815481529060010190602001808311613df857829003601f168201915b50505050508152602001600282018054600181600116156101000203166002900480601f016020809104026020016040519081016040528092919081815260200182805460018160011615610100020316600290048015613eb75780601f10613e8c57610100808354040283529160200191613eb7565b820191906000526020600020905b815481529060010190602001808311613e9a57829003601f168201915b50505050508152602001600382015481525050925087836060018181510191508181525050826008600160008e6fffffffffffffffffffffffffffffffff19166fffffffffffffffffffffffffffffffff1916815260200190815260200160002054815481101515613f2557fe5b906000526020600020906004020160008201518160000160006101000a8154816fffffffffffffffffffffffffffffffff0219169083700100000000000000000000000000000000900402179055506020820151816001019080519060200190613f90929190615036565b506040820151816002019080519060200190613fad929190615036565b506060820151816003015590505060a06040519081016040528060125481526020018c6fffffffffffffffffffffffffffffffff191681526020018a81526020017fffffffffffffffffffffffffffffffffffffffffffffffffffffffffffffffff8a028152602001888152509150600f8981548110151561402b57fe5b906000526020600020016012549080600181540180825580915050906001820390600052602060002001600090919290919091505550816005600060125481526020019081526020016000206000820151816000015560208201518160010160006101000a8154816fffffffffffffffffffffffffffffffff021916908370010000000000000000000000000000000090040217905550604082015181600201556060820151816003015560808201518160040190805190602001906140f2929190615036565b50905050608060405190810160405280601354815260200184600001516fffffffffffffffffffffffffffffffff19168152602001898152602001878152509050806006600060135481526020019081526020016000206000820151816000015560208201518160010160006101000a8154816fffffffffffffffffffffffffffffffff0219169083700100000000000000000000000000000000900402179055506040820151816002015560608201518160030190805190602001906141ba929190615036565b50905050600c6001600085600001516fffffffffffffffffffffffffffffffff19166fffffffffffffffffffffffffffffffff191681526020019081526020016000205481548110151561420a57fe5b9060005260206000200160135490806001815401808255809150509060018203906000526020600020016000909192909190915055506001601360008282540192505081905550600160126000828254019250508190555060019450505050509695505050505050565b6000806000614281614fbe565b34633b9aca0081101515156142fe576040517f08c379a000000000000000000000000000000000000000000000000000000000815260040180806020018281038252601d8152602001807f56616c7565206d757374206265206174206c656173742031206777656900000081525060200191505060405180910390fd5b633b9aca003481151561430d57fe5b049350600260003373ffffffffffffffffffffffffffffffffffffffff1673ffffffffffffffffffffffffffffffffffffffff16815260200190815260200160002092508383600301600082825401925050819055506080604051908101604052808460000160009054906101000a9004700100000000000000000000000000000000026fffffffffffffffffffffffffffffffff19168152602001846001018054600181600116156101000203166002900480601f0160208091040260200160405190810160405280929190818152602001828054600181600116156101000203166002900480156144415780601f1061441657610100808354040283529160200191614441565b820191906000526020600020905b81548152906001019060200180831161442457829003601f168201915b50505050508152602001846002018054600181600116156101000203166002900480601f0160208091040260200160405190810160405280929190818152602001828054600181600116156101000203166002900480156144e35780601f106144b8576101008083540402835291602001916144e3565b820191906000526020600020905b8154815290600101906020018083116144c657829003601f168201915b5050505050815260200184600301548152506008600160008660000160009054906101000a9004700100000000000000000000000000000000026fffffffffffffffffffffffffffffffff19166fffffffffffffffffffffffffffffffff191681526020019081526020016000205481548110151561455e57fe5b906000526020600020906004020160008201518160000160006101000a8154816fffffffffffffffffffffffffffffffff02191690837001000000000000000000000000000000009004021790555060208201518160010190805190602001906145c9929190615036565b5060408201518160020190805190602001906145e6929190615036565b506060820151816003015590505060806040519081016040528060135481526020018460000160009054906101000a9004700100000000000000000000000000000000026fffffffffffffffffffffffffffffffff19168152602001858152602001878152509150816006600060135481526020019081526020016000206000820151816000015560208201518160010160006101000a8154816fffffffffffffffffffffffffffffffff0219169083700100000000000000000000000000000000900402179055506040820151816002015560608201518160030190805190602001906146d5929190615036565b50905050600c6000803373ffffffffffffffffffffffffffffffffffffffff1673ffffffffffffffffffffffffffffffffffffffff1681526020019081526020016000205481548110151561472657fe5b90600052602060002001601354908060018154018082558091505090600182039060005260206000200160009091929091909150555060016013600082825401925050819055506001945050505050919050565b60008060606000606061478b614ffa565b61479588886123f8565b15156147a057600080fd5b6008600160008a6fffffffffffffffffffffffffffffffff19166fffffffffffffffffffffffffffffffff19168152602001908152602001600020548154811015156147e857fe5b9060005260206000209060040201608060405190810160405290816000820160009054906101000a9004700100000000000000000000000000000000026fffffffffffffffffffffffffffffffff19166fffffffffffffffffffffffffffffffff19168152602001600182018054600181600116156101000203166002900480601f0160208091040260200160405190810160405280929190818152602001828054600181600116156101000203166002900480156148e85780601f106148bd576101008083540402835291602001916148e8565b820191906000526020600020905b8154815290600101906020018083116148cb57829003601f168201915b50505050508152602001600282018054600181600116156101000203166002900480601f01602080910402602001604051908101604052809291908181526020018280546001816001161561010002031660029004801561498a5780601f1061495f5761010080835404028352916020019161498a565b820191906000526020600020905b81548152906001019060200180831161496d57829003601f168201915b5050505050815260200160038201548152505090506009600160008a6fffffffffffffffffffffffffffffffff19166fffffffffffffffffffffffffffffffff19168152602001908152602001600020548154811015156149e757fe5b9060005260206000200160009054906101000a900473ffffffffffffffffffffffffffffffffffffffff16816000015182602001518360600151846040015182925080905095509550955095509550509295509295909350565b600881815481101515614a5057fe5b90600052602060002090600402016000915090508060000160009054906101000a90047001000000000000000000000000000000000290806001018054600181600116156101000203166002900480601f016020809104026020016040519081016040528092919081815260200182805460018160011615610100020316600290048015614b1f5780601f10614af457610100808354040283529160200191614b1f565b820191906000526020600020905b815481529060010190602001808311614b0257829003601f168201915b505050505090806002018054600181600116156101000203166002900480601f016020809104026020016040519081016040528092919081815260200182805460018160011615610100020316600290048015614bbd5780601f10614b9257610100808354040283529160200191614bbd565b820191906000526020600020905b815481529060010190602001808311614ba057829003601f168201915b5050505050908060030154905084565b6000806000806060614bdd6151d2565b6005600088815260200190815260200160002060a06040519081016040529081600082015481526020016001820160009054906101000a9004700100000000000000000000000000000000026fffffffffffffffffffffffffffffffff19166fffffffffffffffffffffffffffffffff191681526020016002820154815260200160038201548152602001600482018054600181600116156101000203166002900480601f016020809104026020016040519081016040528092919081815260200182805460018160011615610100020316600290048015614d005780601f10614cd557610100808354040283529160200191614d00565b820191906000526020600020905b815481529060010190602001808311614ce357829003601f168201915b505050505081525050905080600001518160200151826040015183606001518460800151809050955095509550955095505091939590929450565b60008060016000846fffffffffffffffffffffffffffffffff19166fffffffffffffffffffffffffffffffff19168152602001908152602001600020541180614db657507f61646d696e000000000000000000000000000000000000000000000000000000826fffffffffffffffffffffffffffffffff1916145b9050919050565b600060405180807f746869732063616d706169676e206973207573656420746f207761737465207481526020017f68652031737420696e6465780000000000000000000000000000000000000000815250602c019050604051809103902060001916826040518082805190602001908083835b602083101515614e555780518252602082019150602081019050602083039250614e30565b6001836020036101000a0380198251168184511680821785525050505050509050019150506040518091039020600019161480614efd575060006007836040518082805190602001908083835b602083101515614ec75780518252602082019150602081019050602083039250614ea2565b6001836020036101000a038019825116818451168082178552505050505050905001915050908152602001604051809103902054115b9050919050565b6000806000808473ffffffffffffffffffffffffffffffffffffffff1673ffffffffffffffffffffffffffffffffffffffff168152602001908152602001600020541180614fb7575060096000815481101515614f5d57fe5b9060005260206000200160009054906101000a900473ffffffffffffffffffffffffffffffffffffffff1673ffffffffffffffffffffffffffffffffffffffff168273ffffffffffffffffffffffffffffffffffffffff16145b9050919050565b6080604051908101604052806000815260200160006fffffffffffffffffffffffffffffffff1916815260200160008152602001606081525090565b60806040519081016040528060006fffffffffffffffffffffffffffffffff191681526020016060815260200160608152602001600081525090565b828054600181600116156101000203166002900490600052602060002090601f016020900481019282601f1061507757805160ff19168380011785556150a5565b828001600101855582156150a5579182015b828111156150a4578251825591602001919060010190615089565b5b5090506150b29190615215565b5090565b60c060405190810160405280600081526020016060815260200160006fffffffffffffffffffffffffffffffff191681526020016000815260200160008152602001606081525090565b828054600181600116156101000203166002900490600052602060002090601f016020900481019282601f1061514157805160ff191683800117855561516f565b8280016001018555821561516f579182015b8281111561516e578251825591602001919060010190615153565b5b50905061517c9190615215565b5090565b8280548282559060005260206000209081019282156151c1579160200282015b828111156151c0578251829060ff169055916020019190600101906151a0565b5b5090506151ce9190615215565b5090565b60a0604051908101604052806000815260200160006fffffffffffffffffffffffffffffffff191681526020016000815260200160008152602001606081525090565b61523791905b8082111561523357600081600090555060010161521b565b5090565b905600a165627a7a72305820c0176a1808b3487c1c7864f1dbead6f0521141d00b59996e0c9ea0356e11a1cd0029",
  "source": "pragma solidity ^0.4.24;\n\ncontract Funding {\n    \n    mapping (address => uint) private addressToIndex; // get Index from Address\n    mapping (bytes16 => uint) private usernameToIndex; // get Index from Username\n    mapping (address => Account) private addressToAccount; // get Account from Address\n    mapping (bytes => uint) private ipfsHashToIndex; // get Index from ipfsHash of Account\n    mapping (uint => Campaign) private idToCampaign; // get Campaign from id of a campaign\n    mapping (uint => transactionLog) private idToTransLog; // get transactionLog from id of transactionLog\n    mapping (uint => tokenExchangeLog) private idToExchangeLog; // get tokenExchangeLog from id of tokenExchangeLog\n    mapping (bytes => uint) private nameOfCampToIndex; //get Index from name of Campaign\n    \n    Account[] public accounts;\n    address[] private addresses;\n    bytes16[] private usernames;\n    bytes[] private ipfsHashes; \n    uint256[][] private tokenExchangeLogs;\n    bytes[] private namesOfCamp;\n    uint256[][] private campaignsByIndex;\n    uint256[][] private transactionsByIdCamp;\n    uint256[][] private donateLogs;\n    uint256 private numOfCamp;\n    uint256 private numOfTrans;\n    uint256 private numOfExchanges;\n    \n    constructor () public {\n        Account memory acc = Account(\"admin\",\"charity\",\"not-available\",0);\n    \n        accounts.push(acc);\n        addresses.push(msg.sender);\n        usernames.push(\"admin\");\n        campaignsByIndex.push([0]);\n        donateLogs.push([0]);\n        numOfCamp = 0;\n        numOfTrans = 1; // watse 1st index of Transaction for each campaign\n        numOfExchanges = 1;\n        // create token exchange log \n        tokenExchangeLog memory tokenExLog  = tokenExchangeLog(0,acc.username,0,\"not-available\");\n        idToExchangeLog[0] = tokenExLog;\n        tokenExchangeLogs.push([0]);\n        \n        // create 1st campaign\n        namesOfCamp.push(\"this campaign is used to waste the 1st index\");\n        nameOfCampToIndex[\"this campaign is used to waste the 1st index\"] = namesOfCamp.length -1 ;\n    }\n    \n    struct Account{\n        bytes16 username;\n        bytes password;\n        bytes ipfsHash;\n        int token;\n    }\n    \n    struct transactionLog{\n        uint256 id;\n        bytes16 fromUsername;\n        uint toIdCamp;\n        int numOfToken;\n        bytes ipfsHash;\n    }\n    \n    struct tokenExchangeLog {\n        uint256 id;\n        bytes16 ownerUsername;\n        int numOfToken;\n        bytes ipfsHash;\n    }\n    \n    struct Campaign{\n        uint id;\n        bytes name;\n        bytes16 creator;\n        int numOfToken;\n        uint numOfTrans;\n        bytes ipfsHash;\n    }\n    \n    \n    function getBal() public view returns(uint256 bal){\n        return address (this).balance;\n    }\n    \n    function nameOfCampTaken(bytes nameOfCamp) private view returns (bool) {\n        return (keccak256(nameOfCamp) == keccak256(\"this campaign is used to waste the 1st index\") \n        || nameOfCampToIndex[nameOfCamp] > 0 ); \n    }\n\n    function hadAccount(address userAddress) private view returns (bool flag){\n        return (addressToIndex[userAddress] > 0 || userAddress == addresses[0]);\n    }\n    \n    function usernameTaken(bytes16 username) private view returns (bool flag){\n        return (usernameToIndex[username] > 0 || username == \"admin\");\n    }\n    \n    modifier minPrice (uint256 _amount){\n        require(_amount >= 1000000000,\"Value must be at least 1 gwei\");\n        _;\n    }\n\n    function updateAccount(bytes16 username,bytes password,bytes ipfsHash) public returns (bool success) {\n        require(checkAuth(username,password));\n        Account memory acc = accounts[usernameToIndex[username]];\n        acc.ipfsHash = ipfsHash;\n        accounts[usernameToIndex[acc.username]] = acc;\n        return true;\n    }\n\n    function createAccount(bytes16 username,bytes password,bytes ipfsHash) public returns (bool success)\n    {\n        require(!hadAccount(msg.sender));\n        require(!usernameTaken(username));\n        Account memory acc = Account (username,password,ipfsHash,0);\n        \n        accounts.push(acc);\n        usernames.push(username);\n        addresses.push(msg.sender);\n        ipfsHashes.push(ipfsHash);\n        campaignsByIndex.push([0]);\n        donateLogs.push([0]);\n        \n        addressToIndex[msg.sender] = addresses.length - 1;\n        addressToAccount[msg.sender] = acc;\n        usernameToIndex[username] = usernames.length - 1;\n        ipfsHashToIndex[ipfsHash] = ipfsHashes.length - 1;\n        \n        \n        // create token exchange log \n        tokenExchangeLog memory tokenExLog  = tokenExchangeLog(0,acc.username,0,\"not-available\");\n        idToExchangeLog[0] = tokenExLog;\n        tokenExchangeLogs.push([0]);\n        \n        return true;\n    }\n    \n    function changePassword(bytes16 username,bytes oldPassword,bytes newPassword)\n    public returns (bool success){\n        require(checkAuth(username,oldPassword));\n        Account memory acc = accounts[usernameToIndex[username]];\n        acc.password = newPassword;\n        accounts[usernameToIndex[acc.username]] = acc;\n        return true;\n    }\n    \n    function checkAuth(bytes16 username,bytes password) public view returns(bool success){\n        require(usernameTaken(username));\n        Account memory acc = accounts[usernameToIndex[username]];\n        if(acc.username == username && keccak256(acc.password) == keccak256(password)){\n            return true;\n        }else{\n            return false;\n        }\n    }\n    \n    function getAddressByUsername(bytes16 username) public view returns(address){\n        return addresses[usernameToIndex[username]];\n    }\n\n    function exchangeToToken(bytes ipfsHash) payable minPrice(msg.value) public returns (bool success){\n        int256 numOfToken = int256(msg.value/1000000000);\n        // get Account\n        Account storage acc = addressToAccount[msg.sender];\n        acc.token += numOfToken;\n        accounts[usernameToIndex[acc.username]] = Account(acc.username,acc.password,acc.ipfsHash,acc.token);\n        \n        // create token exchange log \n        tokenExchangeLog memory tokenExLog  = tokenExchangeLog(numOfExchanges,acc.username,int256(numOfToken),ipfsHash);\n        idToExchangeLog[numOfExchanges] = tokenExLog;\n        tokenExchangeLogs[addressToIndex[msg.sender]].push(numOfExchanges);\n        numOfExchanges +=1;\n        \n        return true;\n    }\n    \n    function exchangeToEther(uint256 fromToken,bytes16 username, bytes password,bytes ipfsHash) public returns(bool success){\n        require(checkAuth(username,password));\n        \n        // require(fromToken >= toEther*1000000000);\n        Account memory acc = accounts[usernameToIndex[username]];\n        require(uint256 (acc.token) >= fromToken);\n        require(getBal() >= uint256 (fromToken*1000000000));\n        msg.sender.transfer(fromToken*1000000000);\n        acc.token -= int256(fromToken);\n        accounts[usernameToIndex[acc.username]] = Account(acc.username,acc.password,acc.ipfsHash,acc.token);\n        \n        // create token exchange log \n        tokenExchangeLog memory tokenExLog  = tokenExchangeLog(numOfExchanges,acc.username,int256(fromToken)*-1,ipfsHash);\n        idToExchangeLog[numOfExchanges] = tokenExLog;\n        tokenExchangeLogs[usernameToIndex[acc.username]].push(numOfExchanges);\n        numOfExchanges +=1;\n        return true;\n    }\n    \n    function getUserProfile(bytes16 username,bytes password) public view returns (address addr,bytes16 usrname,bytes pwd,int256 token,bytes ipfsHash){\n        require(checkAuth(username,password));\n        Account memory acc = accounts[usernameToIndex[username]];\n        return (addresses[usernameToIndex[username]],acc.username,acc.password,acc.token,acc.ipfsHash);\n    }\n\n    function getListOfTokenExchangeLog (bytes16 username) public view returns(uint256[] tokensExchange){\n        return tokenExchangeLogs[usernameToIndex[username]];\n    }\n    \n    function getTokenExchangeLog (uint256 idTokenExchangeLog) \n    public view returns (uint256 idTokenExLog, bytes16 ownerUsername, int256 tokens, bytes ipfsHash){\n        tokenExchangeLog memory exLog = idToExchangeLog[idTokenExchangeLog];\n        return (exLog.id,exLog.ownerUsername,exLog.numOfToken,exLog.ipfsHash);\n    }\n    \n    function getDonateLog (bytes16 username) public view returns(uint256[]){\n        return donateLogs[usernameToIndex[username]];\n    }\n    \n    function createCampaign(bytes16 username,bytes nameOfCamp,bytes campaignIpfsHash) public \n    returns (bool success){\n        require(usernameTaken(username));\n        require(!nameOfCampTaken(nameOfCamp));\n        Campaign memory camp = Campaign(numOfCamp,nameOfCamp,username,0,0,campaignIpfsHash);\n        idToCampaign[numOfCamp] = camp;\n        campaignsByIndex[usernameToIndex[username]].push(numOfCamp);\n        numOfCamp += 1;\n        namesOfCamp.push(nameOfCamp);\n        nameOfCampToIndex[nameOfCamp] = namesOfCamp.length - 1;\n        transactionsByIdCamp.push([0]);\n        return true;\n    }\n\n    function getListCampaignByUsername(bytes16 username) public \n    view returns (uint256[] campaignsList) {\n        return campaignsByIndex[usernameToIndex[username]];\n    }\n    \n    function getCampaign (uint256 idCampaign) public \n    view returns (uint256 id,bytes16 creatorUsername,int256 numOfToken,uint256 numberOfTrans,bytes ipfsHash){\n        Campaign memory camp = idToCampaign[idCampaign];\n        return (camp.id,camp.creator,camp.numOfToken,camp.numOfTrans,camp.ipfsHash);\n    }\n    \n    function getTransactionListOfCamp(uint256 idCampaign) public view returns (uint256[] ids){\n        return transactionsByIdCamp[idCampaign];\n    }\n        \n    function getTransactionById(uint256 idTransaction) public\n    view returns(uint256 id,bytes16 fromUsername,uint toIdCamp,int numOfToken,bytes ipfsHash){\n        transactionLog memory trans = idToTransLog[idTransaction];\n        return (trans.id,trans.fromUsername,trans.toIdCamp,trans.numOfToken,trans.ipfsHash);\n    }\n \n    function donate(uint256 tokens,uint256 idCampaign,bytes16 username,bytes password,bytes transIpfsHash,bytes exchangeIpfsHash) public returns (bool success){\n        require(checkAuth(username,password));\n        Account memory acc = accounts[usernameToIndex[username]];\n        require(acc.token >= int256 (tokens));\n        acc.token -= int256 (tokens);\n        accounts[usernameToIndex[username]] = acc;\n        \n        Campaign memory camp = idToCampaign[idCampaign];\n        camp.numOfToken += int256 (tokens);\n        camp.numOfTrans += 1;\n        idToCampaign[idCampaign] = camp;\n\n        transactionLog memory trans = transactionLog(numOfTrans,username,idCampaign,int256(tokens),transIpfsHash);\n        transactionsByIdCamp[idCampaign].push(numOfTrans);\n        idToTransLog[numOfTrans] = trans;\n        donateLogs[usernameToIndex[username]].push(numOfTrans);\n        \n        // create token exchange log \n        tokenExchangeLog memory tokenExLog  = tokenExchangeLog(numOfExchanges,acc.username,int256(tokens)*-1,exchangeIpfsHash);\n        idToExchangeLog[numOfExchanges] = tokenExLog;\n        tokenExchangeLogs[usernameToIndex[acc.username]].push(numOfExchanges);\n        numOfExchanges +=1;\n        numOfTrans += 1;\n        return true;\n    }\n    \n    function withDraw(bytes16 username, bytes password, uint256 idCampaign, uint256 withdrawTokens,bytes transIpfsHash,bytes exchangeIpfsHash)\n    public returns (bool){\n        require(checkAuth(username,password));\n        Campaign memory camp = idToCampaign[idCampaign];\n        require(camp.numOfToken >= int256(withdrawTokens));\n        camp.numOfToken -= int256(withdrawTokens);\n        idToCampaign[idCampaign] = camp;\n        \n        Account memory acc = accounts[usernameToIndex[username]];\n        acc.token += int256 (withdrawTokens);\n        accounts[usernameToIndex[username]] = acc;\n\n        transactionLog memory trans = transactionLog(numOfTrans,username,idCampaign,int256(withdrawTokens)*-1,transIpfsHash);\n        transactionsByIdCamp[idCampaign].push(numOfTrans);\n        idToTransLog[numOfTrans] = trans;\n\n        // create token exchange log \n        tokenExchangeLog memory tokenExLog  = tokenExchangeLog(numOfExchanges,acc.username,int256(withdrawTokens),exchangeIpfsHash);\n        idToExchangeLog[numOfExchanges] = tokenExLog;\n        tokenExchangeLogs[usernameToIndex[acc.username]].push(numOfExchanges);\n        numOfExchanges +=1;\n        numOfTrans += 1;\n        return true;\n        \n    }\n    \n    function getUserCount() public view returns(uint count)\n    {\n        return addresses.length;\n    }\n    \n    function getCampaignCount() public view returns(uint count)\n    {\n        return numOfCamp;\n    }\n    \n    function getTransCount() public view returns(uint count)\n    {\n        return numOfTrans;\n    }    \n    function getExchangesCount() public view returns(uint count)\n    {\n        return numOfExchanges;\n    }\n\n}\n",
  "sourcePath": "/Volumes/D/dapp/ethereum-charity-funding/contracts/Funding.sol",
  "compiler": {
    "name": "solc",
    "version": "0.4.24+commit.e67f0147.Emscripten.clang"
  },
  "schemaVersion": "2.0.1",
  "updatedAt": "2018-12-15T06:52:44.412Z"
}