{
  "contractName": "Funding",
  "abi": [
    {
      "inputs": [],
      "payable": false,
      "stateMutability": "nonpayable",
      "type": "constructor"
    },
    {
      "constant": true,
      "inputs": [],
      "name": "getBal",
      "outputs": [
        {
          "name": "bal",
          "type": "uint256"
        }
      ],
      "payable": false,
      "stateMutability": "view",
      "type": "function"
    },
    {
      "constant": true,
      "inputs": [
        {
          "name": "userAddress",
          "type": "address"
        }
      ],
      "name": "hadAccount",
      "outputs": [
        {
          "name": "flag",
          "type": "bool"
        }
      ],
      "payable": false,
      "stateMutability": "view",
      "type": "function"
    },
    {
      "constant": true,
      "inputs": [
        {
          "name": "username",
          "type": "bytes16"
        }
      ],
      "name": "usernameTaken",
      "outputs": [
        {
          "name": "flag",
          "type": "bool"
        }
      ],
      "payable": false,
      "stateMutability": "view",
      "type": "function"
    },
    {
      "constant": false,
      "inputs": [
        {
          "name": "username",
          "type": "bytes16"
        },
        {
          "name": "password",
          "type": "bytes"
        },
        {
          "name": "ipfsHash",
          "type": "bytes"
        }
      ],
      "name": "createAccount",
      "outputs": [
        {
          "name": "success",
          "type": "bool"
        }
      ],
      "payable": false,
      "stateMutability": "nonpayable",
      "type": "function"
    },
    {
      "constant": false,
      "inputs": [
        {
          "name": "username",
          "type": "bytes16"
        },
        {
          "name": "oladPassword",
          "type": "bytes"
        },
        {
          "name": "newPassword",
          "type": "bytes"
        }
      ],
      "name": "changePassword",
      "outputs": [
        {
          "name": "success",
          "type": "bool"
        }
      ],
      "payable": false,
      "stateMutability": "nonpayable",
      "type": "function"
    },
    {
      "constant": true,
      "inputs": [
        {
          "name": "username",
          "type": "bytes16"
        },
        {
          "name": "password",
          "type": "bytes"
        }
      ],
      "name": "checkAuth",
      "outputs": [
        {
          "name": "success",
          "type": "bool"
        }
      ],
      "payable": false,
      "stateMutability": "view",
      "type": "function"
    },
    {
      "constant": false,
      "inputs": [],
      "name": "exchangeToToken",
      "outputs": [
        {
          "name": "success",
          "type": "bool"
        }
      ],
      "payable": true,
      "stateMutability": "payable",
      "type": "function"
    },
    {
      "constant": false,
      "inputs": [
        {
          "name": "fromToken",
          "type": "uint256"
        },
        {
          "name": "toEther",
          "type": "uint256"
        },
        {
          "name": "username",
          "type": "bytes16"
        },
        {
          "name": "password",
          "type": "bytes"
        }
      ],
      "name": "exchangeToEther",
      "outputs": [
        {
          "name": "success",
          "type": "bool"
        }
      ],
      "payable": false,
      "stateMutability": "nonpayable",
      "type": "function"
    },
    {
      "constant": true,
      "inputs": [
        {
          "name": "username",
          "type": "bytes16"
        },
        {
          "name": "password",
          "type": "bytes"
        }
      ],
      "name": "getUserProfile",
      "outputs": [
        {
          "name": "addr",
          "type": "address"
        },
        {
          "name": "usrname",
          "type": "bytes16"
        },
        {
          "name": "pwd",
          "type": "bytes"
        },
        {
          "name": "token",
          "type": "int256"
        },
        {
          "name": "ipfsHash",
          "type": "bytes"
        }
      ],
      "payable": false,
      "stateMutability": "view",
      "type": "function"
    },
    {
      "constant": true,
      "inputs": [
        {
          "name": "username",
          "type": "bytes16"
        }
      ],
      "name": "getTokenExchangeLog",
      "outputs": [
        {
          "name": "tokensExchange",
          "type": "int256[]"
        }
      ],
      "payable": false,
      "stateMutability": "view",
      "type": "function"
    },
    {
      "constant": false,
      "inputs": [
        {
          "name": "username",
          "type": "bytes16"
        },
        {
          "name": "campaignIpfsHash",
          "type": "bytes"
        }
      ],
      "name": "createCampaign",
      "outputs": [
        {
          "name": "success",
          "type": "bool"
        }
      ],
      "payable": false,
      "stateMutability": "nonpayable",
      "type": "function"
    },
    {
      "constant": true,
      "inputs": [
        {
          "name": "idCampaign",
          "type": "uint256"
        }
      ],
      "name": "getCampaign",
      "outputs": [
        {
          "name": "id",
          "type": "uint256"
        },
        {
          "name": "creator",
          "type": "address"
        },
        {
          "name": "numOfToken",
          "type": "int256"
        },
        {
          "name": "numberOfTrans",
          "type": "uint256"
        }
      ],
      "payable": false,
      "stateMutability": "view",
      "type": "function"
    },
    {
      "constant": false,
      "inputs": [
        {
          "name": "tokens",
          "type": "uint256"
        },
        {
          "name": "idCampaign",
          "type": "uint256"
        },
        {
          "name": "username",
          "type": "bytes16"
        },
        {
          "name": "password",
          "type": "bytes"
        },
        {
          "name": "transIpfsHash",
          "type": "bytes"
        }
      ],
      "name": "donate",
      "outputs": [
        {
          "name": "success",
          "type": "bool"
        }
      ],
      "payable": false,
      "stateMutability": "nonpayable",
      "type": "function"
    },
    {
      "constant": true,
      "inputs": [],
      "name": "getUserCount",
      "outputs": [
        {
          "name": "count",
          "type": "uint256"
        }
      ],
      "payable": false,
      "stateMutability": "view",
      "type": "function"
    },
    {
      "constant": true,
      "inputs": [],
      "name": "getCampaignCount",
      "outputs": [
        {
          "name": "count",
          "type": "uint256"
        }
      ],
      "payable": false,
      "stateMutability": "view",
      "type": "function"
    },
    {
      "constant": true,
      "inputs": [],
      "name": "getTransCount",
      "outputs": [
        {
          "name": "count",
          "type": "uint256"
        }
      ],
      "payable": false,
      "stateMutability": "view",
      "type": "function"
    }
  ],
  "bytecode": "0x60806040523480156200001157600080fd5b506200001c6200033a565b6080604051908101604052807f61646d696e0000000000000000000000000000000000000000000000000000006fffffffffffffffffffffffffffffffff191681526020016040805190810160405280600781526020017f636861726974790000000000000000000000000000000000000000000000000081525081526020016040805190810160405280600d81526020017f6e6f742d617661696c61626c65000000000000000000000000000000000000008152508152602001600081525090506006819080600181540180825580915050906001820390600052602060002090600402016000909192909190915060008201518160000160006101000a8154816fffffffffffffffffffffffffffffffff02191690837001000000000000000000000000000000009004021790555060208201518160010190805190602001906200016b92919062000376565b5060408201518160020190805190602001906200018a92919062000376565b506060820151816003015550505060073390806001815401808255809150509060018203906000526020600020016000909192909190916101000a81548173ffffffffffffffffffffffffffffffffffffffff021916908373ffffffffffffffffffffffffffffffffffffffff16021790555050600880600181540180825580915050906001820390600052602060002090600291828204019190066010027f61646d696e000000000000000000000000000000000000000000000000000000909190916101000a8154816fffffffffffffffffffffffffffffffff02191690837001000000000000000000000000000000009004021790555050600a602060405190810160405280600060ff16815250908060018154018082558091505090600182039060005260206000200160009091929091909150906001620002d2929190620003fd565b5050600b602060405190810160405280600060ff168152509080600181540180825580915050906001820390600052602060002001600090919290919091509060016200032192919062000454565b50506000600d819055506000600e8190555050620004fb565b60806040519081016040528060006fffffffffffffffffffffffffffffffff191681526020016060815260200160608152602001600081525090565b828054600181600116156101000203166002900490600052602060002090601f016020900481019282601f10620003b957805160ff1916838001178555620003ea565b82800160010185558215620003ea579182015b82811115620003e9578251825591602001919060010190620003cc565b5b509050620003f99190620004ab565b5090565b82805482825590600052602060002090810192821562000441579160200282015b8281111562000440578251829060ff169055916020019190600101906200041e565b5b509050620004509190620004d3565b5090565b82805482825590600052602060002090810192821562000498579160200282015b8281111562000497578251829060ff1690559160200191906001019062000475565b5b509050620004a79190620004ab565b5090565b620004d091905b80821115620004cc576000816000905550600101620004b2565b5090565b90565b620004f891905b80821115620004f4576000816000905550600101620004da565b5090565b90565b612eae806200050b6000396000f3006080604052600436106100e6576000357c0100000000000000000000000000000000000000000000000000000000900463ffffffff16806308ecd3a6146100eb57806316b7addf1461018057806325caa262146101d85780632869d95a146102035780635598f8cc146102fb5780636caa92181461037d578063780fc5e2146103a85780638202f8dc1461048c5780638a344769146104b7578063917cc3b7146105695780639dc3716014610607578063a868b445146106a5578063aaa1437614610789578063b5cb15f7146107e4578063dc5c47461461080f578063e8532f1c14610831575b600080fd5b3480156100f757600080fd5b5061012960048036038101908080356fffffffffffffffffffffffffffffffff19169060200190929190505050610a03565b6040518080602001828103825283818151815260200191508051906020019060200280838360005b8381101561016c578082015181840152602081019050610151565b505050509050019250505060405180910390f35b34801561018c57600080fd5b506101be60048036038101908080356fffffffffffffffffffffffffffffffff19169060200190929190505050610aad565b604051808215151515815260200191505060405180910390f35b3480156101e457600080fd5b506101ed610b2f565b6040518082815260200191505060405180910390f35b34801561020f57600080fd5b506102e1600480360381019080803590602001909291908035906020019092919080356fffffffffffffffffffffffffffffffff19169060200190929190803590602001908201803590602001908080601f0160208091040260200160405190810160405280939291908181526020018383808284378201915050505050509192919290803590602001908201803590602001908080601f0160208091040260200160405190810160405280939291908181526020018383808284378201915050505050509192919290505050610b4e565b604051808215151515815260200191505060405180910390f35b34801561030757600080fd5b5061032660048036038101908080359060200190929190505050611198565b604051808581526020018473ffffffffffffffffffffffffffffffffffffffff1673ffffffffffffffffffffffffffffffffffffffff16815260200183815260200182815260200194505050505060405180910390f35b34801561038957600080fd5b50610392611301565b6040518082815260200191505060405180910390f35b3480156103b457600080fd5b5061047260048036038101908080356fffffffffffffffffffffffffffffffff19169060200190929190803590602001908201803590602001908080601f0160208091040260200160405190810160405280939291908181526020018383808284378201915050505050509192919290803590602001908201803590602001908080601f016020809104026020016040519081016040528093929190818152602001838380828437820191505050505050919291929050505061130b565b604051808215151515815260200191505060405180910390f35b34801561049857600080fd5b506104a16117b4565b6040518082815260200191505060405180910390f35b3480156104c357600080fd5b5061054f600480360381019080803590602001909291908035906020019092919080356fffffffffffffffffffffffffffffffff19169060200190929190803590602001908201803590602001908080601f01602080910402602001604051908101604052809392919081815260200183838082843782019150505050505091929192905050506117be565b604051808215151515815260200191505060405180910390f35b34801561057557600080fd5b506105ed60048036038101908080356fffffffffffffffffffffffffffffffff19169060200190929190803590602001908201803590602001908080601f0160208091040260200160405190810160405280939291908181526020018383808284378201915050505050509192919290505050611a74565b604051808215151515815260200191505060405180910390f35b34801561061357600080fd5b5061068b60048036038101908080356fffffffffffffffffffffffffffffffff19169060200190929190803590602001908201803590602001908080601f0160208091040260200160405190810160405280939291908181526020018383808284378201915050505050509192919290505050611cca565b604051808215151515815260200191505060405180910390f35b3480156106b157600080fd5b5061076f60048036038101908080356fffffffffffffffffffffffffffffffff19169060200190929190803590602001908201803590602001908080601f0160208091040260200160405190810160405280939291908181526020018383808284378201915050505050509192919290803590602001908201803590602001908080601f0160208091040260200160405190810160405280939291908181526020018383808284378201915050505050509192919290505050612009565b604051808215151515815260200191505060405180910390f35b34801561079557600080fd5b506107ca600480360381019080803573ffffffffffffffffffffffffffffffffffffffff169060200190929190505050612435565b604051808215151515815260200191505060405180910390f35b3480156107f057600080fd5b506107f96124ef565b6040518082815260200191505060405180910390f35b6108176124fc565b604051808215151515815260200191505060405180910390f35b34801561083d57600080fd5b506108b560048036038101908080356fffffffffffffffffffffffffffffffff19169060200190929190803590602001908201803590602001908080601f016020809104026020016040519081016040528093929190818152602001838380828437820191505050505050919291929050505061291b565b604051808673ffffffffffffffffffffffffffffffffffffffff1673ffffffffffffffffffffffffffffffffffffffff168152602001856fffffffffffffffffffffffffffffffff19166fffffffffffffffffffffffffffffffff191681526020018060200184815260200180602001838103835286818151815260200191508051906020019080838360005b8381101561095d578082015181840152602081019050610942565b50505050905090810190601f16801561098a5780820380516001836020036101000a031916815260200191505b50838103825284818151815260200191508051906020019080838360005b838110156109c35780820151818401526020810190506109a8565b50505050905090810190601f1680156109f05780820380516001836020036101000a031916815260200191505b5097505050505050505060405180910390f35b6060600a60016000846fffffffffffffffffffffffffffffffff19166fffffffffffffffffffffffffffffffff1916815260200190815260200160002054815481101515610a4d57fe5b90600052602060002001805480602002602001604051908101604052809291908181526020018280548015610aa157602002820191906000526020600020905b815481526020019060010190808311610a8d575b50505050509050919050565b60008060016000846fffffffffffffffffffffffffffffffff19166fffffffffffffffffffffffffffffffff19168152602001908152602001600020541180610b2857507f61646d696e000000000000000000000000000000000000000000000000000000826fffffffffffffffffffffffffffffffff1916145b9050919050565b60003073ffffffffffffffffffffffffffffffffffffffff1631905090565b6000610b58612be2565b610b60612c1e565b610b68612c64565b610b728787611cca565b1515610b7d57600080fd5b600660016000896fffffffffffffffffffffffffffffffff19166fffffffffffffffffffffffffffffffff1916815260200190815260200160002054815481101515610bc557fe5b9060005260206000209060040201608060405190810160405290816000820160009054906101000a9004700100000000000000000000000000000000026fffffffffffffffffffffffffffffffff19166fffffffffffffffffffffffffffffffff19168152602001600182018054600181600116156101000203166002900480601f016020809104026020016040519081016040528092919081815260200182805460018160011615610100020316600290048015610cc55780601f10610c9a57610100808354040283529160200191610cc5565b820191906000526020600020905b815481529060010190602001808311610ca857829003601f168201915b50505050508152602001600282018054600181600116156101000203166002900480601f016020809104026020016040519081016040528092919081815260200182805460018160011615610100020316600290048015610d675780601f10610d3c57610100808354040283529160200191610d67565b820191906000526020600020905b815481529060010190602001808311610d4a57829003601f168201915b50505050508152602001600382015481525050925088836060015112151515610d8f57600080fd5b88836060018181510391508181525050826006600160008a6fffffffffffffffffffffffffffffffff19166fffffffffffffffffffffffffffffffff1916815260200190815260200160002054815481101515610de857fe5b906000526020600020906004020160008201518160000160006101000a8154816fffffffffffffffffffffffffffffffff0219169083700100000000000000000000000000000000900402179055506020820151816001019080519060200190610e53929190612c94565b506040820151816002019080519060200190610e70929190612c94565b50606082015181600301559050506004600089815260200190815260200160002060a06040519081016040529081600082015481526020016001820160009054906101000a900473ffffffffffffffffffffffffffffffffffffffff1673ffffffffffffffffffffffffffffffffffffffff1673ffffffffffffffffffffffffffffffffffffffff1681526020016002820154815260200160038201548152602001600482018054600181600116156101000203166002900480601f016020809104026020016040519081016040528092919081815260200182805460018160011615610100020316600290048015610faa5780601f10610f7f57610100808354040283529160200191610faa565b820191906000526020600020905b815481529060010190602001808311610f8d57829003601f168201915b505050505081525050915088826040018181510191508181525050600182606001818151019150818152505081600460008a81526020019081526020016000206000820151816000015560208201518160010160006101000a81548173ffffffffffffffffffffffffffffffffffffffff021916908373ffffffffffffffffffffffffffffffffffffffff1602179055506040820151816002015560608201518160030155608082015181600401908051906020019061106b929190612c94565b5090505060a060405190810160405280600e548152602001600160008a6fffffffffffffffffffffffffffffffff19166fffffffffffffffffffffffffffffffff191681526020019081526020016000205481526020018981526020018a8152602001868152509050600c888154811015156110e357fe5b90600052602060002001600e5490806001815401808255809150509060018203906000526020600020016000909192909190915055508060056000600e548152602001908152602001600020600082015181600001556020820151816001015560408201518160020155606082015181600301556080820151816004019080519060200190611173929190612c94565b509050506001600e600082825401925050819055506001935050505095945050505050565b6000806000806111a6612c1e565b6004600087815260200190815260200160002060a06040519081016040529081600082015481526020016001820160009054906101000a900473ffffffffffffffffffffffffffffffffffffffff1673ffffffffffffffffffffffffffffffffffffffff1673ffffffffffffffffffffffffffffffffffffffff1681526020016002820154815260200160038201548152602001600482018054600181600116156101000203166002900480601f0160208091040260200160405190810160405280929190818152602001828054600181600116156101000203166002900480156112d25780601f106112a7576101008083540402835291602001916112d2565b820191906000526020600020905b8154815290600101906020018083116112b557829003601f168201915b505050505081525050905080600001518160200151826040015183606001519450945094509450509193509193565b6000600d54905090565b6000611315612be2565b61131e33612435565b15151561132a57600080fd5b61133385610aad565b15151561133f57600080fd5b608060405190810160405280866fffffffffffffffffffffffffffffffff19168152602001858152602001848152602001600081525090506006819080600181540180825580915050906001820390600052602060002090600402016000909192909190915060008201518160000160006101000a8154816fffffffffffffffffffffffffffffffff0219169083700100000000000000000000000000000000900402179055506020820151816001019080519060200190611402929190612c94565b50604082015181600201908051906020019061141f929190612c94565b5060608201518160030155505050600885908060018154018082558091505090600182039060005260206000209060029182820401919006601002909192909190916101000a8154816fffffffffffffffffffffffffffffffff0219169083700100000000000000000000000000000000900402179055505060073390806001815401808255809150509060018203906000526020600020016000909192909190916101000a81548173ffffffffffffffffffffffffffffffffffffffff021916908373ffffffffffffffffffffffffffffffffffffffff16021790555050600983908060018154018082558091505090600182039060005260206000200160009091929091909150908051906020019061153b929190612d14565b5050600a602060405190810160405280600060ff16815250908060018154018082558091505090600182039060005260206000200160009091929091909150906001611588929190612d94565b5050600b602060405190810160405280600060ff168152509080600181540180825580915050906001820390600052602060002001600090919290919091509060016115d5929190612de6565b50506001600780549050036000803373ffffffffffffffffffffffffffffffffffffffff1673ffffffffffffffffffffffffffffffffffffffff1681526020019081526020016000208190555080600260003373ffffffffffffffffffffffffffffffffffffffff1673ffffffffffffffffffffffffffffffffffffffff16815260200190815260200160002060008201518160000160006101000a8154816fffffffffffffffffffffffffffffffff02191690837001000000000000000000000000000000009004021790555060208201518160010190805190602001906116bf929190612c94565b5060408201518160020190805190602001906116dc929190612c94565b506060820151816003015590505060016008805490500360016000876fffffffffffffffffffffffffffffffff19166fffffffffffffffffffffffffffffffff19168152602001908152602001600020819055506001600980549050036003846040518082805190602001908083835b602083101515611771578051825260208201915060208101905060208303925061174c565b6001836020036101000a03801982511681845116808217855250505050505090500191505090815260200160405180910390208190555060019150509392505050565b6000600e54905090565b60006117c8612be2565b6117d28484611cca565b15156117dd57600080fd5b633b9aca00850286101515156117f257600080fd5b600660016000866fffffffffffffffffffffffffffffffff19166fffffffffffffffffffffffffffffffff191681526020019081526020016000205481548110151561183a57fe5b9060005260206000209060040201608060405190810160405290816000820160009054906101000a9004700100000000000000000000000000000000026fffffffffffffffffffffffffffffffff19166fffffffffffffffffffffffffffffffff19168152602001600182018054600181600116156101000203166002900480601f01602080910402602001604051908101604052809291908181526020018280546001816001161561010002031660029004801561193a5780601f1061190f5761010080835404028352916020019161193a565b820191906000526020600020905b81548152906001019060200180831161191d57829003601f168201915b50505050508152602001600282018054600181600116156101000203166002900480601f0160208091040260200160405190810160405280929190818152602001828054600181600116156101000203166002900480156119dc5780601f106119b1576101008083540402835291602001916119dc565b820191906000526020600020905b8154815290600101906020018083116119bf57829003601f168201915b50505050508152602001600382015481525050905085816060015110151515611a0457600080fd5b633b9aca008602611a13610b2f565b10151515611a2057600080fd5b3373ffffffffffffffffffffffffffffffffffffffff166108fc869081150290604051600060405180830381858888f19350505050158015611a66573d6000803e3d6000fd5b506001915050949350505050565b6000611a7e612c1e565b611a8784610aad565b1515611a9257600080fd5b60a060405190810160405280600d548152602001600760016000886fffffffffffffffffffffffffffffffff19166fffffffffffffffffffffffffffffffff1916815260200190815260200160002054815481101515611aee57fe5b9060005260206000200160009054906101000a900473ffffffffffffffffffffffffffffffffffffffff1673ffffffffffffffffffffffffffffffffffffffff16815260200160008152602001600081526020018481525090508060046000600d5481526020019081526020016000206000820151816000015560208201518160010160006101000a81548173ffffffffffffffffffffffffffffffffffffffff021916908373ffffffffffffffffffffffffffffffffffffffff16021790555060408201518160020155606082015181600301556080820151816004019080519060200190611bdf929190612c94565b50905050600b60016000866fffffffffffffffffffffffffffffffff19166fffffffffffffffffffffffffffffffff1916815260200190815260200160002054815481101515611c2b57fe5b90600052602060002001600d5490806001815401808255809150509060018203906000526020600020016000909192909190915055506001600d60008282540192505081905550600c602060405190810160405280600060ff16815250908060018154018082558091505090600182039060005260206000200160009091929091909150906001611cbd929190612de6565b5050600191505092915050565b6000611cd4612be2565b611cdd84610aad565b1515611ce857600080fd5b600660016000866fffffffffffffffffffffffffffffffff19166fffffffffffffffffffffffffffffffff1916815260200190815260200160002054815481101515611d3057fe5b9060005260206000209060040201608060405190810160405290816000820160009054906101000a9004700100000000000000000000000000000000026fffffffffffffffffffffffffffffffff19166fffffffffffffffffffffffffffffffff19168152602001600182018054600181600116156101000203166002900480601f016020809104026020016040519081016040528092919081815260200182805460018160011615610100020316600290048015611e305780601f10611e0557610100808354040283529160200191611e30565b820191906000526020600020905b815481529060010190602001808311611e1357829003601f168201915b50505050508152602001600282018054600181600116156101000203166002900480601f016020809104026020016040519081016040528092919081815260200182805460018160011615610100020316600290048015611ed25780601f10611ea757610100808354040283529160200191611ed2565b820191906000526020600020905b815481529060010190602001808311611eb557829003601f168201915b505050505081526020016003820154815250509050836fffffffffffffffffffffffffffffffff191681600001516fffffffffffffffffffffffffffffffff1916148015611fef5750826040518082805190602001908083835b602083101515611f515780518252602082019150602081019050602083039250611f2c565b6001836020036101000a03801982511681845116808217855250505050505090500191505060405180910390206000191681602001516040518082805190602001908083835b602083101515611fbc5780518252602082019150602081019050602083039250611f97565b6001836020036101000a038019825116818451168082178552505050505050905001915050604051809103902060001916145b15611ffd5760019150612002565b600091505b5092915050565b6000612013612be2565b61201c85610aad565b151561202757600080fd5b600660016000876fffffffffffffffffffffffffffffffff19166fffffffffffffffffffffffffffffffff191681526020019081526020016000205481548110151561206f57fe5b9060005260206000209060040201608060405190810160405290816000820160009054906101000a9004700100000000000000000000000000000000026fffffffffffffffffffffffffffffffff19166fffffffffffffffffffffffffffffffff19168152602001600182018054600181600116156101000203166002900480601f01602080910402602001604051908101604052809291908181526020018280546001816001161561010002031660029004801561216f5780601f106121445761010080835404028352916020019161216f565b820191906000526020600020905b81548152906001019060200180831161215257829003601f168201915b50505050508152602001600282018054600181600116156101000203166002900480601f0160208091040260200160405190810160405280929190818152602001828054600181600116156101000203166002900480156122115780601f106121e657610100808354040283529160200191612211565b820191906000526020600020905b8154815290600101906020018083116121f457829003601f168201915b505050505081526020016003820154815250509050846fffffffffffffffffffffffffffffffff191681600001516fffffffffffffffffffffffffffffffff191614801561232e5750836040518082805190602001908083835b602083101515612290578051825260208201915060208101905060208303925061226b565b6001836020036101000a03801982511681845116808217855250505050505090500191505060405180910390206000191681602001516040518082805190602001908083835b6020831015156122fb57805182526020820191506020810190506020830392506122d6565b6001836020036101000a038019825116818451168082178552505050505050905001915050604051809103902060001916145b15612428578281602001819052508060066001600084600001516fffffffffffffffffffffffffffffffff19166fffffffffffffffffffffffffffffffff191681526020019081526020016000205481548110151561238957fe5b906000526020600020906004020160008201518160000160006101000a8154816fffffffffffffffffffffffffffffffff02191690837001000000000000000000000000000000009004021790555060208201518160010190805190602001906123f4929190612c94565b506040820151816002019080519060200190612411929190612c94565b50606082015181600301559050506001915061242d565b600091505b509392505050565b6000806000808473ffffffffffffffffffffffffffffffffffffffff1673ffffffffffffffffffffffffffffffffffffffff1681526020019081526020016000205411806124e857506007600081548110151561248e57fe5b9060005260206000200160009054906101000a900473ffffffffffffffffffffffffffffffffffffffff1673ffffffffffffffffffffffffffffffffffffffff168273ffffffffffffffffffffffffffffffffffffffff16145b9050919050565b6000600780549050905090565b600080600034633b9aca00811015151561257e576040517f08c379a000000000000000000000000000000000000000000000000000000000815260040180806020018281038252601d8152602001807f56616c7565206d757374206265206174206c656173742031206777656900000081525060200191505060405180910390fd5b633b9aca003481151561258d57fe5b049250600260003373ffffffffffffffffffffffffffffffffffffffff1673ffffffffffffffffffffffffffffffffffffffff16815260200190815260200160002091508282600301600082825401925050819055506080604051908101604052808360000160009054906101000a9004700100000000000000000000000000000000026fffffffffffffffffffffffffffffffff19168152602001836001018054600181600116156101000203166002900480601f0160208091040260200160405190810160405280929190818152602001828054600181600116156101000203166002900480156126c15780601f10612696576101008083540402835291602001916126c1565b820191906000526020600020905b8154815290600101906020018083116126a457829003601f168201915b50505050508152602001836002018054600181600116156101000203166002900480601f0160208091040260200160405190810160405280929190818152602001828054600181600116156101000203166002900480156127635780601f1061273857610100808354040283529160200191612763565b820191906000526020600020905b81548152906001019060200180831161274657829003601f168201915b5050505050815260200183600301548152506006600160008560000160009054906101000a9004700100000000000000000000000000000000026fffffffffffffffffffffffffffffffff19166fffffffffffffffffffffffffffffffff19168152602001908152602001600020548154811015156127de57fe5b906000526020600020906004020160008201518160000160006101000a8154816fffffffffffffffffffffffffffffffff0219169083700100000000000000000000000000000000900402179055506020820151816001019080519060200190612849929190612c94565b506040820151816002019080519060200190612866929190612c94565b5060608201518160030155905050600a600160008460000160009054906101000a9004700100000000000000000000000000000000026fffffffffffffffffffffffffffffffff19166fffffffffffffffffffffffffffffffff19168152602001908152602001600020548154811015156128dd57fe5b906000526020600020018390806001815401808255809150509060018203906000526020600020016000909192909190915055506001935050505090565b60008060606000606061292c612be2565b6129368888611cca565b151561294157600080fd5b6006600160008a6fffffffffffffffffffffffffffffffff19166fffffffffffffffffffffffffffffffff191681526020019081526020016000205481548110151561298957fe5b9060005260206000209060040201608060405190810160405290816000820160009054906101000a9004700100000000000000000000000000000000026fffffffffffffffffffffffffffffffff19166fffffffffffffffffffffffffffffffff19168152602001600182018054600181600116156101000203166002900480601f016020809104026020016040519081016040528092919081815260200182805460018160011615610100020316600290048015612a895780601f10612a5e57610100808354040283529160200191612a89565b820191906000526020600020905b815481529060010190602001808311612a6c57829003601f168201915b50505050508152602001600282018054600181600116156101000203166002900480601f016020809104026020016040519081016040528092919081815260200182805460018160011615610100020316600290048015612b2b5780601f10612b0057610100808354040283529160200191612b2b565b820191906000526020600020905b815481529060010190602001808311612b0e57829003601f168201915b5050505050815260200160038201548152505090506007600160008a6fffffffffffffffffffffffffffffffff19166fffffffffffffffffffffffffffffffff1916815260200190815260200160002054815481101515612b8857fe5b9060005260206000200160009054906101000a900473ffffffffffffffffffffffffffffffffffffffff16816000015182602001518360600151846040015182925080905095509550955095509550509295509295909350565b60806040519081016040528060006fffffffffffffffffffffffffffffffff191681526020016060815260200160608152602001600081525090565b60a06040519081016040528060008152602001600073ffffffffffffffffffffffffffffffffffffffff1681526020016000815260200160008152602001606081525090565b60a06040519081016040528060008152602001600081526020016000815260200160008152602001606081525090565b828054600181600116156101000203166002900490600052602060002090601f016020900481019282601f10612cd557805160ff1916838001178555612d03565b82800160010185558215612d03579182015b82811115612d02578251825591602001919060010190612ce7565b5b509050612d109190612e38565b5090565b828054600181600116156101000203166002900490600052602060002090601f016020900481019282601f10612d5557805160ff1916838001178555612d83565b82800160010185558215612d83579182015b82811115612d82578251825591602001919060010190612d67565b5b509050612d909190612e38565b5090565b828054828255906000526020600020908101928215612dd5579160200282015b82811115612dd4578251829060ff16905591602001919060010190612db4565b5b509050612de29190612e5d565b5090565b828054828255906000526020600020908101928215612e27579160200282015b82811115612e26578251829060ff16905591602001919060010190612e06565b5b509050612e349190612e38565b5090565b612e5a91905b80821115612e56576000816000905550600101612e3e565b5090565b90565b612e7f91905b80821115612e7b576000816000905550600101612e63565b5090565b905600a165627a7a72305820a81b6a27599dfdfa0aa2ab6d13a31383fe1c9f4363f80ea794d17926ec42e6090029",
  "source": "pragma solidity ^0.4.24;\n\ncontract Funding {\n    \n    mapping (address => uint) private addressToIndex; // get Index from Address\n    mapping (bytes16 => uint) private usernameToIndex; // get Index from Username\n    mapping (address => Account) private addressToAccount; // get Account from Address\n    mapping (bytes => uint) private ipfsHashToIndex;\n    mapping (uint => Campaign) private idToCampaign; // get Campaign from id of a campaign\n    mapping (uint => transactionLog) private idToTransLog; // get transactionLog from id of transactionLog\n    \n    Account[] private accounts;\n    address[] private addresses;\n    bytes16[] private usernames;\n    bytes[] private ipfsHashes; \n    int256[][] private tokenExchangeLogs;\n    uint256[][] private campaignsByIndex;\n    uint256[][] private transactionsByIdCamp;\n    uint256 private numOfCamp;\n    uint256 private numOfTrans;\n    \n    constructor () public {\n        Account memory acc = Account(\"admin\",\"charity\",\"not-available\",0);\n        \n        accounts.push(acc);\n        addresses.push(msg.sender);\n        usernames.push(\"admin\");\n        tokenExchangeLogs.push([0]);\n        campaignsByIndex.push([0]);\n        \n        numOfCamp = 0;\n        numOfTrans = 0;\n    }\n    \n    struct Account{\n        bytes16 username;\n        bytes password;\n        bytes ipfsHash;\n        int token;\n    }\n    \n    struct transactionLog{\n        uint256 id;\n        uint256 fromIndexAcc;\n        uint toIdCamp;\n        uint numOfToken;\n        bytes ipfsHash;\n    }\n    \n    struct Campaign{\n        uint id;\n        address creator;\n        int numOfToken;\n        uint numOfTrans;\n        bytes ipfsHash;\n    }\n    \n    function getBal() public view returns(uint256 bal){\n        return address (this).balance;\n    }\n    \n    function hadAccount(address userAddress) public view returns (bool flag){\n        return (addressToIndex[userAddress] > 0 || userAddress == addresses[0]);\n    }\n    \n    function usernameTaken(bytes16 username) public view returns (bool flag){\n        return (usernameToIndex[username] > 0 || username == \"admin\");\n    }\n    \n    modifier minPrice (uint256 _amount){\n        require(_amount >= 1000000000,\"Value must be at least 1 gwei\");\n        _;\n    }\n\n    function createAccount(bytes16 username,bytes password,bytes ipfsHash) public returns (bool success)\n    {\n        require(!hadAccount(msg.sender));\n        require(!usernameTaken(username));\n        Account memory acc = Account (username,password,ipfsHash,0);\n        \n        accounts.push(acc);\n        usernames.push(username);\n        addresses.push(msg.sender);\n        ipfsHashes.push(ipfsHash);\n        tokenExchangeLogs.push([0]);\n        campaignsByIndex.push([0]);\n        \n        addressToIndex[msg.sender] = addresses.length - 1;\n        addressToAccount[msg.sender] = acc;\n        usernameToIndex[username] = usernames.length - 1;\n        ipfsHashToIndex[ipfsHash] = ipfsHashes.length - 1;\n        \n        return true;\n    }\n    \n    function changePassword(bytes16 username,bytes oladPassword,bytes newPassword)\n    public returns (bool success){\n        require(usernameTaken(username));\n        Account memory acc = accounts[usernameToIndex[username]];\n         if(acc.username == username && keccak256(acc.password) == keccak256(oladPassword)){\n            acc.password = newPassword;\n            accounts[usernameToIndex[acc.username]] = acc;\n            return true;\n        }else{\n            return false;\n        }\n    }\n    \n    function checkAuth(bytes16 username,bytes password) public view returns(bool success){\n        require(usernameTaken(username));\n        Account memory acc = accounts[usernameToIndex[username]];\n        if(acc.username == username && keccak256(acc.password) == keccak256(password)){\n            return true;\n        }else{\n            return false;\n        }\n    }\n    \n    function exchangeToToken() payable minPrice(msg.value) public returns (bool success){\n        int256 numOfToken = int256(msg.value/1000000000);\n        // get Account\n        Account storage acc = addressToAccount[msg.sender];\n        acc.token += numOfToken;\n        accounts[usernameToIndex[acc.username]] = Account(acc.username,acc.password,acc.ipfsHash,acc.token);\n        // add to tokenExchangeLogs\n        tokenExchangeLogs[usernameToIndex[acc.username]].push(numOfToken);\n        \n        return true;\n    }\n    \n    function exchangeToEther(uint256 fromToken,uint256 toEther,bytes16 username, bytes password) public returns(bool success){\n        require(checkAuth(username,password));\n        require(fromToken >= toEther*1000000000);\n        Account memory acc = accounts[usernameToIndex[username]];\n        require(uint256 (acc.token) >= fromToken);\n        require(getBal() >= uint256 (fromToken*1000000000));\n        msg.sender.transfer(toEther);\n        return true;\n    }\n    \n    function getUserProfile(bytes16 username,bytes password) public view returns (address addr,bytes16 usrname,bytes pwd,int256 token,bytes ipfsHash){\n        require(checkAuth(username,password));\n        Account memory acc = accounts[usernameToIndex[username]];\n        return (addresses[usernameToIndex[username]],acc.username,acc.password,acc.token,acc.ipfsHash);\n    }\n\n    function getTokenExchangeLog (bytes16 username) public view returns(int256[] tokensExchange){\n        return tokenExchangeLogs[usernameToIndex[username]];\n    }\n    \n    function createCampaign(bytes16 username,bytes campaignIpfsHash) public returns (bool success){\n        require(usernameTaken(username));\n        Campaign memory camp = Campaign(numOfCamp,addresses[usernameToIndex[username]],0,0,campaignIpfsHash);\n        idToCampaign[numOfCamp] = camp;\n        campaignsByIndex[usernameToIndex[username]].push(numOfCamp);\n        numOfCamp += 1;\n        transactionsByIdCamp.push([0]);\n        return true;\n    }\n    \n    function getCampaign (uint256 idCampaign) public view returns (uint256 id,address creator,int256 numOfToken,uint256 numberOfTrans){\n        Campaign memory camp = idToCampaign[idCampaign];\n        return (camp.id,camp.creator,camp.numOfToken,camp.numOfTrans);\n    }\n \n    function donate(uint256 tokens,uint256 idCampaign,bytes16 username,bytes password,bytes transIpfsHash) public returns (bool success){\n        require(checkAuth(username,password));\n        Account memory acc = accounts[usernameToIndex[username]];\n        require(acc.token >= int256 (tokens));\n        acc.token -= int256 (tokens);\n        accounts[usernameToIndex[username]] = acc;\n        \n        Campaign memory camp = idToCampaign[idCampaign];\n        camp.numOfToken += int256 (tokens);\n        camp.numOfTrans += 1;\n        idToCampaign[idCampaign] = camp;\n        \n        transactionLog memory trans = transactionLog(numOfTrans,usernameToIndex[username]\n        ,idCampaign,tokens,transIpfsHash);\n        transactionsByIdCamp[idCampaign].push(numOfTrans);\n        idToTransLog[numOfTrans] = trans;\n        numOfTrans += 1;\n        return true;\n    }\n    \n    function getUserCount() public view returns(uint count)\n    {\n        return addresses.length;\n    }\n    \n    function getCampaignCount() public view returns(uint count)\n    {\n        return numOfCamp;\n    }\n    \n    function getTransCount() public view returns(uint count)\n    {\n        return numOfTrans;\n    }\n}\n",
  "sourcePath": "/Volumes/D/dapp/ethereum-charity-funding/contracts/Funding.sol",
  "compiler": {
    "name": "solc",
    "version": "0.4.24+commit.e67f0147.Emscripten.clang"
  },
  "schemaVersion": "2.0.1",
  "updatedAt": "2018-11-23T10:41:25.994Z"
}