{
  "contractName": "Funding",
  "abi": [
    {
      "constant": true,
      "inputs": [
        {
          "name": "",
          "type": "uint256"
        }
      ],
      "name": "accounts",
      "outputs": [
        {
          "name": "username",
          "type": "bytes16"
        },
        {
          "name": "password",
          "type": "bytes"
        },
        {
          "name": "ipfsHash",
          "type": "bytes"
        },
        {
          "name": "token",
          "type": "int256"
        }
      ],
      "payable": false,
      "stateMutability": "view",
      "type": "function"
    },
    {
      "inputs": [],
      "payable": false,
      "stateMutability": "nonpayable",
      "type": "constructor"
    },
    {
      "constant": true,
      "inputs": [],
      "name": "getBal",
      "outputs": [
        {
          "name": "bal",
          "type": "uint256"
        }
      ],
      "payable": false,
      "stateMutability": "view",
      "type": "function"
    },
    {
      "constant": false,
      "inputs": [
        {
          "name": "username",
          "type": "bytes16"
        },
        {
          "name": "password",
          "type": "bytes"
        },
        {
          "name": "ipfsHash",
          "type": "bytes"
        }
      ],
      "name": "createAccount",
      "outputs": [
        {
          "name": "success",
          "type": "bool"
        }
      ],
      "payable": false,
      "stateMutability": "nonpayable",
      "type": "function"
    },
    {
      "constant": false,
      "inputs": [
        {
          "name": "username",
          "type": "bytes16"
        },
        {
          "name": "oladPassword",
          "type": "bytes"
        },
        {
          "name": "newPassword",
          "type": "bytes"
        }
      ],
      "name": "changePassword",
      "outputs": [
        {
          "name": "success",
          "type": "bool"
        }
      ],
      "payable": false,
      "stateMutability": "nonpayable",
      "type": "function"
    },
    {
      "constant": true,
      "inputs": [
        {
          "name": "username",
          "type": "bytes16"
        },
        {
          "name": "password",
          "type": "bytes"
        }
      ],
      "name": "checkAuth",
      "outputs": [
        {
          "name": "success",
          "type": "bool"
        }
      ],
      "payable": false,
      "stateMutability": "view",
      "type": "function"
    },
    {
      "constant": true,
      "inputs": [
        {
          "name": "username",
          "type": "bytes16"
        }
      ],
      "name": "getAddressByUsername",
      "outputs": [
        {
          "name": "",
          "type": "address"
        }
      ],
      "payable": false,
      "stateMutability": "view",
      "type": "function"
    },
    {
      "constant": false,
      "inputs": [],
      "name": "exchangeToToken",
      "outputs": [
        {
          "name": "success",
          "type": "bool"
        }
      ],
      "payable": true,
      "stateMutability": "payable",
      "type": "function"
    },
    {
      "constant": false,
      "inputs": [
        {
          "name": "fromToken",
          "type": "uint256"
        },
        {
          "name": "toEther",
          "type": "uint256"
        },
        {
          "name": "username",
          "type": "bytes16"
        },
        {
          "name": "password",
          "type": "bytes"
        }
      ],
      "name": "exchangeToEther",
      "outputs": [
        {
          "name": "success",
          "type": "bool"
        }
      ],
      "payable": false,
      "stateMutability": "nonpayable",
      "type": "function"
    },
    {
      "constant": true,
      "inputs": [
        {
          "name": "username",
          "type": "bytes16"
        },
        {
          "name": "password",
          "type": "bytes"
        }
      ],
      "name": "getUserProfile",
      "outputs": [
        {
          "name": "addr",
          "type": "address"
        },
        {
          "name": "usrname",
          "type": "bytes16"
        },
        {
          "name": "pwd",
          "type": "bytes"
        },
        {
          "name": "token",
          "type": "int256"
        },
        {
          "name": "ipfsHash",
          "type": "bytes"
        }
      ],
      "payable": false,
      "stateMutability": "view",
      "type": "function"
    },
    {
      "constant": true,
      "inputs": [
        {
          "name": "username",
          "type": "bytes16"
        }
      ],
      "name": "getTokenExchangeLog",
      "outputs": [
        {
          "name": "tokensExchange",
          "type": "int256[]"
        }
      ],
      "payable": false,
      "stateMutability": "view",
      "type": "function"
    },
    {
      "constant": false,
      "inputs": [
        {
          "name": "username",
          "type": "bytes16"
        },
        {
          "name": "nameOfCamp",
          "type": "bytes"
        },
        {
          "name": "campaignIpfsHash",
          "type": "bytes"
        }
      ],
      "name": "createCampaign",
      "outputs": [
        {
          "name": "success",
          "type": "bool"
        }
      ],
      "payable": false,
      "stateMutability": "nonpayable",
      "type": "function"
    },
    {
      "constant": true,
      "inputs": [
        {
          "name": "idCampaign",
          "type": "uint256"
        }
      ],
      "name": "getCampaign",
      "outputs": [
        {
          "name": "id",
          "type": "uint256"
        },
        {
          "name": "creatorUsername",
          "type": "bytes16"
        },
        {
          "name": "numOfToken",
          "type": "int256"
        },
        {
          "name": "numberOfTrans",
          "type": "uint256"
        },
        {
          "name": "ipfsHash",
          "type": "bytes"
        }
      ],
      "payable": false,
      "stateMutability": "view",
      "type": "function"
    },
    {
      "constant": true,
      "inputs": [
        {
          "name": "idCampaign",
          "type": "uint256"
        }
      ],
      "name": "getTransactionListOfCamp",
      "outputs": [
        {
          "name": "ids",
          "type": "uint256[]"
        }
      ],
      "payable": false,
      "stateMutability": "view",
      "type": "function"
    },
    {
      "constant": true,
      "inputs": [
        {
          "name": "idTransaction",
          "type": "uint256"
        }
      ],
      "name": "getTransactionById",
      "outputs": [
        {
          "name": "id",
          "type": "uint256"
        },
        {
          "name": "fromIndexAcc",
          "type": "uint256"
        },
        {
          "name": "toIdCamp",
          "type": "uint256"
        },
        {
          "name": "numOfToken",
          "type": "uint256"
        },
        {
          "name": "ipfsHash",
          "type": "bytes"
        }
      ],
      "payable": false,
      "stateMutability": "view",
      "type": "function"
    },
    {
      "constant": false,
      "inputs": [
        {
          "name": "tokens",
          "type": "uint256"
        },
        {
          "name": "idCampaign",
          "type": "uint256"
        },
        {
          "name": "username",
          "type": "bytes16"
        },
        {
          "name": "password",
          "type": "bytes"
        },
        {
          "name": "transIpfsHash",
          "type": "bytes"
        }
      ],
      "name": "donate",
      "outputs": [
        {
          "name": "success",
          "type": "bool"
        }
      ],
      "payable": false,
      "stateMutability": "nonpayable",
      "type": "function"
    },
    {
      "constant": true,
      "inputs": [],
      "name": "getUserCount",
      "outputs": [
        {
          "name": "count",
          "type": "uint256"
        }
      ],
      "payable": false,
      "stateMutability": "view",
      "type": "function"
    },
    {
      "constant": true,
      "inputs": [],
      "name": "getCampaignCount",
      "outputs": [
        {
          "name": "count",
          "type": "uint256"
        }
      ],
      "payable": false,
      "stateMutability": "view",
      "type": "function"
    },
    {
      "constant": true,
      "inputs": [],
      "name": "getTransCount",
      "outputs": [
        {
          "name": "count",
          "type": "uint256"
        }
      ],
      "payable": false,
      "stateMutability": "view",
      "type": "function"
    }
  ],
  "bytecode": "0x60806040523480156200001157600080fd5b506200001c62000444565b6080604051908101604052807f61646d696e0000000000000000000000000000000000000000000000000000006fffffffffffffffffffffffffffffffff191681526020016040805190810160405280600781526020017f636861726974790000000000000000000000000000000000000000000000000081525081526020016040805190810160405280600d81526020017f6e6f742d617661696c61626c65000000000000000000000000000000000000008152508152602001600081525090506007819080600181540180825580915050906001820390600052602060002090600402016000909192909190915060008201518160000160006101000a8154816fffffffffffffffffffffffffffffffff02191690837001000000000000000000000000000000009004021790555060208201518160010190805190602001906200016b92919062000480565b5060408201518160020190805190602001906200018a92919062000480565b506060820151816003015550505060083390806001815401808255809150509060018203906000526020600020016000909192909190916101000a81548173ffffffffffffffffffffffffffffffffffffffff021916908373ffffffffffffffffffffffffffffffffffffffff16021790555050600980600181540180825580915050906001820390600052602060002090600291828204019190066010027f61646d696e000000000000000000000000000000000000000000000000000000909190916101000a8154816fffffffffffffffffffffffffffffffff02191690837001000000000000000000000000000000009004021790555050600b602060405190810160405280600060ff16815250908060018154018082558091505090600182039060005260206000200160009091929091909150906001620002d292919062000507565b5050600d602060405190810160405280600060ff16815250908060018154018082558091505090600182039060005260206000200160009091929091909150906001620003219291906200055e565b50506000600f819055506000601081905550600c806001815401808255809150509060018203906000526020600020016000606060405190810160405280602c81526020017f746869732063616d706169676e206973207573656420746f207761737465207481526020017f68652031737420696e646578000000000000000000000000000000000000000081525090919091509080519060200190620003ca929190620005b5565b50506001600c8054905003600660405180807f746869732063616d706169676e206973207573656420746f207761737465207481526020017f68652031737420696e6465780000000000000000000000000000000000000000815250602c019050908152602001604051809103902081905550506200068c565b60806040519081016040528060006fffffffffffffffffffffffffffffffff191681526020016060815260200160608152602001600081525090565b828054600181600116156101000203166002900490600052602060002090601f016020900481019282601f10620004c357805160ff1916838001178555620004f4565b82800160010185558215620004f4579182015b82811115620004f3578251825591602001919060010190620004d6565b5b5090506200050391906200063c565b5090565b8280548282559060005260206000209081019282156200054b579160200282015b828111156200054a578251829060ff1690559160200191906001019062000528565b5b5090506200055a919062000664565b5090565b828054828255906000526020600020908101928215620005a2579160200282015b82811115620005a1578251829060ff169055916020019190600101906200057f565b5b509050620005b191906200063c565b5090565b828054600181600116156101000203166002900490600052602060002090601f016020900481019282601f10620005f857805160ff191683800117855562000629565b8280016001018555821562000629579182015b82811115620006285782518255916020019190600101906200060b565b5b5090506200063891906200063c565b5090565b6200066191905b808211156200065d57600081600090555060010162000643565b5090565b90565b6200068991905b80821115620006855760008160009055506001016200066b565b5090565b90565b6138dc806200069c6000396000f3006080604052600436106100fc576000357c0100000000000000000000000000000000000000000000000000000000900463ffffffff16806308ecd3a61461010157806325caa262146101965780632869d95a146101c15780635598f8cc146102b957806363db68db146103a157806365772af6146104215780636caa921814610505578063780fc5e2146105305780638202f8dc146106145780638a3447691461063f5780639dc37160146106f1578063a65ea7db1461078f578063a868b44514610811578063b5cb15f7146108f5578063dc5c474614610920578063e8532f1c14610942578063f2a40db814610b14578063f4b30eaf14610c5a575b600080fd5b34801561010d57600080fd5b5061013f60048036038101908080356fffffffffffffffffffffffffffffffff19169060200190929190505050610d1c565b6040518080602001828103825283818151815260200191508051906020019060200280838360005b83811015610182578082015181840152602081019050610167565b505050509050019250505060405180910390f35b3480156101a257600080fd5b506101ab610dc6565b6040518082815260200191505060405180910390f35b3480156101cd57600080fd5b5061029f600480360381019080803590602001909291908035906020019092919080356fffffffffffffffffffffffffffffffff19169060200190929190803590602001908201803590602001908080601f0160208091040260200160405190810160405280939291908181526020018383808284378201915050505050509192919290803590602001908201803590602001908080601f0160208091040260200160405190810160405280939291908181526020018383808284378201915050505050509192919290505050610de5565b604051808215151515815260200191505060405180910390f35b3480156102c557600080fd5b506102e460048036038101908080359060200190929190505050611539565b60405180868152602001856fffffffffffffffffffffffffffffffff19166fffffffffffffffffffffffffffffffff1916815260200184815260200183815260200180602001828103825283818151815260200191508051906020019080838360005b83811015610362578082015181840152602081019050610347565b50505050905090810190601f16801561038f5780820380516001836020036101000a031916815260200191505b50965050505050505060405180910390f35b3480156103ad57600080fd5b506103df60048036038101908080356fffffffffffffffffffffffffffffffff19169060200190929190505050611749565b604051808273ffffffffffffffffffffffffffffffffffffffff1673ffffffffffffffffffffffffffffffffffffffff16815260200191505060405180910390f35b34801561042d57600080fd5b506104eb60048036038101908080356fffffffffffffffffffffffffffffffff19169060200190929190803590602001908201803590602001908080601f0160208091040260200160405190810160405280939291908181526020018383808284378201915050505050509192919290803590602001908201803590602001908080601f01602080910402602001604051908101604052809392919081815260200183838082843782019150505050505091929192905050506117c5565b604051808215151515815260200191505060405180910390f35b34801561051157600080fd5b5061051a611a90565b6040518082815260200191505060405180910390f35b34801561053c57600080fd5b506105fa60048036038101908080356fffffffffffffffffffffffffffffffff19169060200190929190803590602001908201803590602001908080601f0160208091040260200160405190810160405280939291908181526020018383808284378201915050505050509192919290803590602001908201803590602001908080601f0160208091040260200160405190810160405280939291908181526020018383808284378201915050505050509192919290505050611a9a565b604051808215151515815260200191505060405180910390f35b34801561062057600080fd5b50610629611f43565b6040518082815260200191505060405180910390f35b34801561064b57600080fd5b506106d7600480360381019080803590602001909291908035906020019092919080356fffffffffffffffffffffffffffffffff19169060200190929190803590602001908201803590602001908080601f0160208091040260200160405190810160405280939291908181526020018383808284378201915050505050509192919290505050611f4d565b604051808215151515815260200191505060405180910390f35b3480156106fd57600080fd5b5061077560048036038101908080356fffffffffffffffffffffffffffffffff19169060200190929190803590602001908201803590602001908080601f0160208091040260200160405190810160405280939291908181526020018383808284378201915050505050509192919290505050612203565b604051808215151515815260200191505060405180910390f35b34801561079b57600080fd5b506107ba60048036038101908080359060200190929190505050612542565b6040518080602001828103825283818151815260200191508051906020019060200280838360005b838110156107fd5780820151818401526020810190506107e2565b505050509050019250505060405180910390f35b34801561081d57600080fd5b506108db60048036038101908080356fffffffffffffffffffffffffffffffff19169060200190929190803590602001908201803590602001908080601f0160208091040260200160405190810160405280939291908181526020018383808284378201915050505050509192919290803590602001908201803590602001908080601f01602080910402602001604051908101604052809392919081815260200183838082843782019150505050505091929192905050506125b3565b604051808215151515815260200191505060405180910390f35b34801561090157600080fd5b5061090a6129df565b6040518082815260200191505060405180910390f35b6109286129ec565b604051808215151515815260200191505060405180910390f35b34801561094e57600080fd5b506109c660048036038101908080356fffffffffffffffffffffffffffffffff19169060200190929190803590602001908201803590602001908080601f0160208091040260200160405190810160405280939291908181526020018383808284378201915050505050509192919290505050612e0b565b604051808673ffffffffffffffffffffffffffffffffffffffff1673ffffffffffffffffffffffffffffffffffffffff168152602001856fffffffffffffffffffffffffffffffff19166fffffffffffffffffffffffffffffffff191681526020018060200184815260200180602001838103835286818151815260200191508051906020019080838360005b83811015610a6e578082015181840152602081019050610a53565b50505050905090810190601f168015610a9b5780820380516001836020036101000a031916815260200191505b50838103825284818151815260200191508051906020019080838360005b83811015610ad4578082015181840152602081019050610ab9565b50505050905090810190601f168015610b015780820380516001836020036101000a031916815260200191505b5097505050505050505060405180910390f35b348015610b2057600080fd5b50610b3f600480360381019080803590602001909291905050506130d2565b60405180856fffffffffffffffffffffffffffffffff19166fffffffffffffffffffffffffffffffff191681526020018060200180602001848152602001838103835286818151815260200191508051906020019080838360005b83811015610bb5578082015181840152602081019050610b9a565b50505050905090810190601f168015610be25780820380516001836020036101000a031916815260200191505b50838103825285818151815260200191508051906020019080838360005b83811015610c1b578082015181840152602081019050610c00565b50505050905090810190601f168015610c485780820380516001836020036101000a031916815260200191505b50965050505050505060405180910390f35b348015610c6657600080fd5b50610c856004803603810190808035906020019092919050505061325e565b6040518086815260200185815260200184815260200183815260200180602001828103825283818151815260200191508051906020019080838360005b83811015610cdd578082015181840152602081019050610cc2565b50505050905090810190601f168015610d0a5780820380516001836020036101000a031916815260200191505b50965050505050505060405180910390f35b6060600b60016000846fffffffffffffffffffffffffffffffff19166fffffffffffffffffffffffffffffffff1916815260200190815260200160002054815481101515610d6657fe5b90600052602060002001805480602002602001604051908101604052809291908181526020018280548015610dba57602002820191906000526020600020905b815481526020019060010190808311610da6575b50505050509050919050565b60003073ffffffffffffffffffffffffffffffffffffffff1631905090565b6000610def61360c565b610df7613648565b610dff613692565b610e098787612203565b1515610e1457600080fd5b600760016000896fffffffffffffffffffffffffffffffff19166fffffffffffffffffffffffffffffffff1916815260200190815260200160002054815481101515610e5c57fe5b9060005260206000209060040201608060405190810160405290816000820160009054906101000a9004700100000000000000000000000000000000026fffffffffffffffffffffffffffffffff19166fffffffffffffffffffffffffffffffff19168152602001600182018054600181600116156101000203166002900480601f016020809104026020016040519081016040528092919081815260200182805460018160011615610100020316600290048015610f5c5780601f10610f3157610100808354040283529160200191610f5c565b820191906000526020600020905b815481529060010190602001808311610f3f57829003601f168201915b50505050508152602001600282018054600181600116156101000203166002900480601f016020809104026020016040519081016040528092919081815260200182805460018160011615610100020316600290048015610ffe5780601f10610fd357610100808354040283529160200191610ffe565b820191906000526020600020905b815481529060010190602001808311610fe157829003601f168201915b5050505050815260200160038201548152505092508883606001511215151561102657600080fd5b88836060018181510391508181525050826007600160008a6fffffffffffffffffffffffffffffffff19166fffffffffffffffffffffffffffffffff191681526020019081526020016000205481548110151561107f57fe5b906000526020600020906004020160008201518160000160006101000a8154816fffffffffffffffffffffffffffffffff02191690837001000000000000000000000000000000009004021790555060208201518160010190805190602001906110ea9291906136c2565b5060408201518160020190805190602001906111079291906136c2565b50606082015181600301559050506004600089815260200190815260200160002060c0604051908101604052908160008201548152602001600182018054600181600116156101000203166002900480601f0160208091040260200160405190810160405280929190818152602001828054600181600116156101000203166002900480156111d75780601f106111ac576101008083540402835291602001916111d7565b820191906000526020600020905b8154815290600101906020018083116111ba57829003601f168201915b505050505081526020016002820160009054906101000a9004700100000000000000000000000000000000026fffffffffffffffffffffffffffffffff19166fffffffffffffffffffffffffffffffff191681526020016003820154815260200160048201548152602001600582018054600181600116156101000203166002900480601f0160208091040260200160405190810160405280929190818152602001828054600181600116156101000203166002900480156112da5780601f106112af576101008083540402835291602001916112da565b820191906000526020600020905b8154815290600101906020018083116112bd57829003601f168201915b505050505081525050915088826060018181510191508181525050600182608001818151019150818152505081600460008a81526020019081526020016000206000820151816000015560208201518160010190805190602001906113409291906136c2565b5060408201518160020160006101000a8154816fffffffffffffffffffffffffffffffff021916908370010000000000000000000000000000000090040217905550606082015181600301556080820151816004015560a08201518160050190805190602001906113b29291906136c2565b5090505060a0604051908101604052806010548152602001600160008a6fffffffffffffffffffffffffffffffff19166fffffffffffffffffffffffffffffffff191681526020019081526020016000205481526020018981526020018a815260200186815250905060006001836080015103141561147457600e8881548110151561143a57fe5b90600052602060002001600090806001815401808255809150509060018203906000526020600020016000909192909190915055506114ba565b600e8881548110151561148357fe5b9060005260206000200160105490806001815401808255809150509060018203906000526020600020016000909192909190915055505b806005600060105481526020019081526020016000206000820151816000015560208201518160010155604082015181600201556060820151816003015560808201518160040190805190602001906115149291906136c2565b5090505060016010600082825401925050819055506001935050505095945050505050565b6000806000806060611549613648565b6004600088815260200190815260200160002060c0604051908101604052908160008201548152602001600182018054600181600116156101000203166002900480601f01602080910402602001604051908101604052809291908181526020018280546001816001161561010002031660029004801561160b5780601f106115e05761010080835404028352916020019161160b565b820191906000526020600020905b8154815290600101906020018083116115ee57829003601f168201915b505050505081526020016002820160009054906101000a9004700100000000000000000000000000000000026fffffffffffffffffffffffffffffffff19166fffffffffffffffffffffffffffffffff191681526020016003820154815260200160048201548152602001600582018054600181600116156101000203166002900480601f01602080910402602001604051908101604052809291908181526020018280546001816001161561010002031660029004801561170e5780601f106116e35761010080835404028352916020019161170e565b820191906000526020600020905b8154815290600101906020018083116116f157829003601f168201915b505050505081525050905080600001518160400151826060015183608001518460a00151809050955095509550955095505091939590929450565b6000600860016000846fffffffffffffffffffffffffffffffff19166fffffffffffffffffffffffffffffffff191681526020019081526020016000205481548110151561179357fe5b9060005260206000200160009054906101000a900473ffffffffffffffffffffffffffffffffffffffff169050919050565b60006117cf613648565b6117d885613389565b15156117e357600080fd5b6117ec8461340b565b1515156117f857600080fd5b60c060405190810160405280600f548152602001858152602001866fffffffffffffffffffffffffffffffff1916815260200160008152602001600081526020018481525090508060046000600f54815260200190815260200160002060008201518160000155602082015181600101908051906020019061187b9291906136c2565b5060408201518160020160006101000a8154816fffffffffffffffffffffffffffffffff021916908370010000000000000000000000000000000090040217905550606082015181600301556080820151816004015560a08201518160050190805190602001906118ed9291906136c2565b50905050600d60016000876fffffffffffffffffffffffffffffffff19166fffffffffffffffffffffffffffffffff191681526020019081526020016000205481548110151561193957fe5b90600052602060002001600f5490806001815401808255809150509060018203906000526020600020016000909192909190915055506001600f60008282540192505081905550600c8490806001815401808255809150509060018203906000526020600020016000909192909190915090805190602001906119bd929190613742565b50506001600c80549050036006856040518082805190602001908083835b602083101515611a0057805182526020820191506020810190506020830392506119db565b6001836020036101000a038019825116818451168082178552505050505050905001915050908152602001604051809103902081905550600e602060405190810160405280600060ff16815250908060018154018082558091505090600182039060005260206000200160009091929091909150906001611a829291906137c2565b505060019150509392505050565b6000600f54905090565b6000611aa461360c565b611aad33613552565b151515611ab957600080fd5b611ac285613389565b151515611ace57600080fd5b608060405190810160405280866fffffffffffffffffffffffffffffffff19168152602001858152602001848152602001600081525090506007819080600181540180825580915050906001820390600052602060002090600402016000909192909190915060008201518160000160006101000a8154816fffffffffffffffffffffffffffffffff0219169083700100000000000000000000000000000000900402179055506020820151816001019080519060200190611b919291906136c2565b506040820151816002019080519060200190611bae9291906136c2565b5060608201518160030155505050600985908060018154018082558091505090600182039060005260206000209060029182820401919006601002909192909190916101000a8154816fffffffffffffffffffffffffffffffff0219169083700100000000000000000000000000000000900402179055505060083390806001815401808255809150509060018203906000526020600020016000909192909190916101000a81548173ffffffffffffffffffffffffffffffffffffffff021916908373ffffffffffffffffffffffffffffffffffffffff16021790555050600a839080600181540180825580915050906001820390600052602060002001600090919290919091509080519060200190611cca929190613742565b5050600b602060405190810160405280600060ff16815250908060018154018082558091505090600182039060005260206000200160009091929091909150906001611d17929190613814565b5050600d602060405190810160405280600060ff16815250908060018154018082558091505090600182039060005260206000200160009091929091909150906001611d649291906137c2565b50506001600880549050036000803373ffffffffffffffffffffffffffffffffffffffff1673ffffffffffffffffffffffffffffffffffffffff1681526020019081526020016000208190555080600260003373ffffffffffffffffffffffffffffffffffffffff1673ffffffffffffffffffffffffffffffffffffffff16815260200190815260200160002060008201518160000160006101000a8154816fffffffffffffffffffffffffffffffff0219169083700100000000000000000000000000000000900402179055506020820151816001019080519060200190611e4e9291906136c2565b506040820151816002019080519060200190611e6b9291906136c2565b506060820151816003015590505060016009805490500360016000876fffffffffffffffffffffffffffffffff19166fffffffffffffffffffffffffffffffff19168152602001908152602001600020819055506001600a80549050036003846040518082805190602001908083835b602083101515611f005780518252602082019150602081019050602083039250611edb565b6001836020036101000a03801982511681845116808217855250505050505090500191505090815260200160405180910390208190555060019150509392505050565b6000601054905090565b6000611f5761360c565b611f618484612203565b1515611f6c57600080fd5b633b9aca0085028610151515611f8157600080fd5b600760016000866fffffffffffffffffffffffffffffffff19166fffffffffffffffffffffffffffffffff1916815260200190815260200160002054815481101515611fc957fe5b9060005260206000209060040201608060405190810160405290816000820160009054906101000a9004700100000000000000000000000000000000026fffffffffffffffffffffffffffffffff19166fffffffffffffffffffffffffffffffff19168152602001600182018054600181600116156101000203166002900480601f0160208091040260200160405190810160405280929190818152602001828054600181600116156101000203166002900480156120c95780601f1061209e576101008083540402835291602001916120c9565b820191906000526020600020905b8154815290600101906020018083116120ac57829003601f168201915b50505050508152602001600282018054600181600116156101000203166002900480601f01602080910402602001604051908101604052809291908181526020018280546001816001161561010002031660029004801561216b5780601f106121405761010080835404028352916020019161216b565b820191906000526020600020905b81548152906001019060200180831161214e57829003601f168201915b5050505050815260200160038201548152505090508581606001511015151561219357600080fd5b633b9aca0086026121a2610dc6565b101515156121af57600080fd5b3373ffffffffffffffffffffffffffffffffffffffff166108fc869081150290604051600060405180830381858888f193505050501580156121f5573d6000803e3d6000fd5b506001915050949350505050565b600061220d61360c565b61221684613389565b151561222157600080fd5b600760016000866fffffffffffffffffffffffffffffffff19166fffffffffffffffffffffffffffffffff191681526020019081526020016000205481548110151561226957fe5b9060005260206000209060040201608060405190810160405290816000820160009054906101000a9004700100000000000000000000000000000000026fffffffffffffffffffffffffffffffff19166fffffffffffffffffffffffffffffffff19168152602001600182018054600181600116156101000203166002900480601f0160208091040260200160405190810160405280929190818152602001828054600181600116156101000203166002900480156123695780601f1061233e57610100808354040283529160200191612369565b820191906000526020600020905b81548152906001019060200180831161234c57829003601f168201915b50505050508152602001600282018054600181600116156101000203166002900480601f01602080910402602001604051908101604052809291908181526020018280546001816001161561010002031660029004801561240b5780601f106123e05761010080835404028352916020019161240b565b820191906000526020600020905b8154815290600101906020018083116123ee57829003601f168201915b505050505081526020016003820154815250509050836fffffffffffffffffffffffffffffffff191681600001516fffffffffffffffffffffffffffffffff19161480156125285750826040518082805190602001908083835b60208310151561248a5780518252602082019150602081019050602083039250612465565b6001836020036101000a03801982511681845116808217855250505050505090500191505060405180910390206000191681602001516040518082805190602001908083835b6020831015156124f557805182526020820191506020810190506020830392506124d0565b6001836020036101000a038019825116818451168082178552505050505050905001915050604051809103902060001916145b15612536576001915061253b565b600091505b5092915050565b6060600e8281548110151561255357fe5b906000526020600020018054806020026020016040519081016040528092919081815260200182805480156125a757602002820191906000526020600020905b815481526020019060010190808311612593575b50505050509050919050565b60006125bd61360c565b6125c685613389565b15156125d157600080fd5b600760016000876fffffffffffffffffffffffffffffffff19166fffffffffffffffffffffffffffffffff191681526020019081526020016000205481548110151561261957fe5b9060005260206000209060040201608060405190810160405290816000820160009054906101000a9004700100000000000000000000000000000000026fffffffffffffffffffffffffffffffff19166fffffffffffffffffffffffffffffffff19168152602001600182018054600181600116156101000203166002900480601f0160208091040260200160405190810160405280929190818152602001828054600181600116156101000203166002900480156127195780601f106126ee57610100808354040283529160200191612719565b820191906000526020600020905b8154815290600101906020018083116126fc57829003601f168201915b50505050508152602001600282018054600181600116156101000203166002900480601f0160208091040260200160405190810160405280929190818152602001828054600181600116156101000203166002900480156127bb5780601f10612790576101008083540402835291602001916127bb565b820191906000526020600020905b81548152906001019060200180831161279e57829003601f168201915b505050505081526020016003820154815250509050846fffffffffffffffffffffffffffffffff191681600001516fffffffffffffffffffffffffffffffff19161480156128d85750836040518082805190602001908083835b60208310151561283a5780518252602082019150602081019050602083039250612815565b6001836020036101000a03801982511681845116808217855250505050505090500191505060405180910390206000191681602001516040518082805190602001908083835b6020831015156128a55780518252602082019150602081019050602083039250612880565b6001836020036101000a038019825116818451168082178552505050505050905001915050604051809103902060001916145b156129d2578281602001819052508060076001600084600001516fffffffffffffffffffffffffffffffff19166fffffffffffffffffffffffffffffffff191681526020019081526020016000205481548110151561293357fe5b906000526020600020906004020160008201518160000160006101000a8154816fffffffffffffffffffffffffffffffff021916908370010000000000000000000000000000000090040217905550602082015181600101908051906020019061299e9291906136c2565b5060408201518160020190805190602001906129bb9291906136c2565b5060608201518160030155905050600191506129d7565b600091505b509392505050565b6000600880549050905090565b600080600034633b9aca008110151515612a6e576040517f08c379a000000000000000000000000000000000000000000000000000000000815260040180806020018281038252601d8152602001807f56616c7565206d757374206265206174206c656173742031206777656900000081525060200191505060405180910390fd5b633b9aca0034811515612a7d57fe5b049250600260003373ffffffffffffffffffffffffffffffffffffffff1673ffffffffffffffffffffffffffffffffffffffff16815260200190815260200160002091508282600301600082825401925050819055506080604051908101604052808360000160009054906101000a9004700100000000000000000000000000000000026fffffffffffffffffffffffffffffffff19168152602001836001018054600181600116156101000203166002900480601f016020809104026020016040519081016040528092919081815260200182805460018160011615610100020316600290048015612bb15780601f10612b8657610100808354040283529160200191612bb1565b820191906000526020600020905b815481529060010190602001808311612b9457829003601f168201915b50505050508152602001836002018054600181600116156101000203166002900480601f016020809104026020016040519081016040528092919081815260200182805460018160011615610100020316600290048015612c535780601f10612c2857610100808354040283529160200191612c53565b820191906000526020600020905b815481529060010190602001808311612c3657829003601f168201915b5050505050815260200183600301548152506007600160008560000160009054906101000a9004700100000000000000000000000000000000026fffffffffffffffffffffffffffffffff19166fffffffffffffffffffffffffffffffff1916815260200190815260200160002054815481101515612cce57fe5b906000526020600020906004020160008201518160000160006101000a8154816fffffffffffffffffffffffffffffffff0219169083700100000000000000000000000000000000900402179055506020820151816001019080519060200190612d399291906136c2565b506040820151816002019080519060200190612d569291906136c2565b5060608201518160030155905050600b600160008460000160009054906101000a9004700100000000000000000000000000000000026fffffffffffffffffffffffffffffffff19166fffffffffffffffffffffffffffffffff1916815260200190815260200160002054815481101515612dcd57fe5b906000526020600020018390806001815401808255809150509060018203906000526020600020016000909192909190915055506001935050505090565b600080606060006060612e1c61360c565b612e268888612203565b1515612e3157600080fd5b6007600160008a6fffffffffffffffffffffffffffffffff19166fffffffffffffffffffffffffffffffff1916815260200190815260200160002054815481101515612e7957fe5b9060005260206000209060040201608060405190810160405290816000820160009054906101000a9004700100000000000000000000000000000000026fffffffffffffffffffffffffffffffff19166fffffffffffffffffffffffffffffffff19168152602001600182018054600181600116156101000203166002900480601f016020809104026020016040519081016040528092919081815260200182805460018160011615610100020316600290048015612f795780601f10612f4e57610100808354040283529160200191612f79565b820191906000526020600020905b815481529060010190602001808311612f5c57829003601f168201915b50505050508152602001600282018054600181600116156101000203166002900480601f01602080910402602001604051908101604052809291908181526020018280546001816001161561010002031660029004801561301b5780601f10612ff05761010080835404028352916020019161301b565b820191906000526020600020905b815481529060010190602001808311612ffe57829003601f168201915b5050505050815260200160038201548152505090506008600160008a6fffffffffffffffffffffffffffffffff19166fffffffffffffffffffffffffffffffff191681526020019081526020016000205481548110151561307857fe5b9060005260206000200160009054906101000a900473ffffffffffffffffffffffffffffffffffffffff16816000015182602001518360600151846040015182925080905095509550955095509550509295509295909350565b6007818154811015156130e157fe5b90600052602060002090600402016000915090508060000160009054906101000a90047001000000000000000000000000000000000290806001018054600181600116156101000203166002900480601f0160208091040260200160405190810160405280929190818152602001828054600181600116156101000203166002900480156131b05780601f10613185576101008083540402835291602001916131b0565b820191906000526020600020905b81548152906001019060200180831161319357829003601f168201915b505050505090806002018054600181600116156101000203166002900480601f01602080910402602001604051908101604052809291908181526020018280546001816001161561010002031660029004801561324e5780601f106132235761010080835404028352916020019161324e565b820191906000526020600020905b81548152906001019060200180831161323157829003601f168201915b5050505050908060030154905084565b600080600080606061326e613692565b6005600088815260200190815260200160002060a0604051908101604052908160008201548152602001600182015481526020016002820154815260200160038201548152602001600482018054600181600116156101000203166002900480601f01602080910402602001604051908101604052809291908181526020018280546001816001161561010002031660029004801561334e5780601f106133235761010080835404028352916020019161334e565b820191906000526020600020905b81548152906001019060200180831161333157829003601f168201915b505050505081525050905080600001518160200151826040015183606001518460800151809050955095509550955095505091939590929450565b60008060016000846fffffffffffffffffffffffffffffffff19166fffffffffffffffffffffffffffffffff1916815260200190815260200160002054118061340457507f61646d696e000000000000000000000000000000000000000000000000000000826fffffffffffffffffffffffffffffffff1916145b9050919050565b600060405180807f746869732063616d706169676e206973207573656420746f207761737465207481526020017f68652031737420696e6465780000000000000000000000000000000000000000815250602c019050604051809103902060001916826040518082805190602001908083835b6020831015156134a3578051825260208201915060208101905060208303925061347e565b6001836020036101000a038019825116818451168082178552505050505050905001915050604051809103902060001916148061354b575060006006836040518082805190602001908083835b60208310151561351557805182526020820191506020810190506020830392506134f0565b6001836020036101000a038019825116818451168082178552505050505050905001915050908152602001604051809103902054115b9050919050565b6000806000808473ffffffffffffffffffffffffffffffffffffffff1673ffffffffffffffffffffffffffffffffffffffff1681526020019081526020016000205411806136055750600860008154811015156135ab57fe5b9060005260206000200160009054906101000a900473ffffffffffffffffffffffffffffffffffffffff1673ffffffffffffffffffffffffffffffffffffffff168273ffffffffffffffffffffffffffffffffffffffff16145b9050919050565b60806040519081016040528060006fffffffffffffffffffffffffffffffff191681526020016060815260200160608152602001600081525090565b60c060405190810160405280600081526020016060815260200160006fffffffffffffffffffffffffffffffff191681526020016000815260200160008152602001606081525090565b60a06040519081016040528060008152602001600081526020016000815260200160008152602001606081525090565b828054600181600116156101000203166002900490600052602060002090601f016020900481019282601f1061370357805160ff1916838001178555613731565b82800160010185558215613731579182015b82811115613730578251825591602001919060010190613715565b5b50905061373e9190613866565b5090565b828054600181600116156101000203166002900490600052602060002090601f016020900481019282601f1061378357805160ff19168380011785556137b1565b828001600101855582156137b1579182015b828111156137b0578251825591602001919060010190613795565b5b5090506137be9190613866565b5090565b828054828255906000526020600020908101928215613803579160200282015b82811115613802578251829060ff169055916020019190600101906137e2565b5b5090506138109190613866565b5090565b828054828255906000526020600020908101928215613855579160200282015b82811115613854578251829060ff16905591602001919060010190613834565b5b509050613862919061388b565b5090565b61388891905b8082111561388457600081600090555060010161386c565b5090565b90565b6138ad91905b808211156138a9576000816000905550600101613891565b5090565b905600a165627a7a723058206d733ae0d10e834c66c236a95c215799f05018c33dc24c7ffe33e0a745c26e540029",
  "source": "pragma solidity ^0.4.24;\n\ncontract Funding {\n    \n    mapping (address => uint) private addressToIndex; // get Index from Address\n    mapping (bytes16 => uint) private usernameToIndex; // get Index from Username\n    mapping (address => Account) private addressToAccount; // get Account from Address\n    mapping (bytes => uint) private ipfsHashToIndex; // get Index from ipfsHash of Account\n    mapping (uint => Campaign) private idToCampaign; // get Campaign from id of a campaign\n    mapping (uint => transactionLog) private idToTransLog; // get transactionLog from id of transactionLog\n    mapping (bytes => uint) private nameOfCampToIndex; //get Index from name of Campaign\n    \n    Account[] public accounts;\n    address[] private addresses;\n    bytes16[] private usernames;\n    bytes[] private ipfsHashes; \n    int256[][] private tokenExchangeLogs;\n    bytes[] private namesOfCamp;\n    uint256[][] private campaignsByIndex;\n    uint256[][] private transactionsByIdCamp;\n    uint256 private numOfCamp;\n    uint256 private numOfTrans;\n    \n    constructor () public {\n        Account memory acc = Account(\"admin\",\"charity\",\"not-available\",0);\n    \n        accounts.push(acc);\n        addresses.push(msg.sender);\n        usernames.push(\"admin\");\n        tokenExchangeLogs.push([0]);\n        campaignsByIndex.push([0]);\n        \n        numOfCamp = 0;\n        numOfTrans = 0;\n        // create 1st campaign\n        namesOfCamp.push(\"this campaign is used to waste the 1st index\");\n        nameOfCampToIndex[\"this campaign is used to waste the 1st index\"] = namesOfCamp.length -1 ;\n    }\n    \n    struct Account{\n        bytes16 username;\n        bytes password;\n        bytes ipfsHash;\n        int token;\n    }\n    \n    struct transactionLog{\n        uint256 id;\n        uint256 fromIndexAcc;\n        uint toIdCamp;\n        uint numOfToken;\n        bytes ipfsHash;\n    }\n    \n    struct Campaign{\n        uint id;\n        bytes name;\n        bytes16 creator;\n        int numOfToken;\n        uint numOfTrans;\n        bytes ipfsHash;\n    }\n    \n    \n    function getBal() public view returns(uint256 bal){\n        return address (this).balance;\n    }\n    \n    function nameOfCampTaken(bytes nameOfCamp) private view returns (bool) {\n        return (keccak256(nameOfCamp) == keccak256(\"this campaign is used to waste the 1st index\") \n        || nameOfCampToIndex[nameOfCamp] > 0 ); \n    }\n\n    function hadAccount(address userAddress) private view returns (bool flag){\n        return (addressToIndex[userAddress] > 0 || userAddress == addresses[0]);\n    }\n    \n    function usernameTaken(bytes16 username) private view returns (bool flag){\n        return (usernameToIndex[username] > 0 || username == \"admin\");\n    }\n    \n    modifier minPrice (uint256 _amount){\n        require(_amount >= 1000000000,\"Value must be at least 1 gwei\");\n        _;\n    }\n\n    function createAccount(bytes16 username,bytes password,bytes ipfsHash) public returns (bool success)\n    {\n        require(!hadAccount(msg.sender));\n        require(!usernameTaken(username));\n        Account memory acc = Account (username,password,ipfsHash,0);\n        \n        accounts.push(acc);\n        usernames.push(username);\n        addresses.push(msg.sender);\n        ipfsHashes.push(ipfsHash);\n        tokenExchangeLogs.push([0]);\n        campaignsByIndex.push([0]);\n        \n        addressToIndex[msg.sender] = addresses.length - 1;\n        addressToAccount[msg.sender] = acc;\n        usernameToIndex[username] = usernames.length - 1;\n        ipfsHashToIndex[ipfsHash] = ipfsHashes.length - 1;\n        \n        return true;\n    }\n    \n    function changePassword(bytes16 username,bytes oladPassword,bytes newPassword)\n    public returns (bool success){\n        require(usernameTaken(username));\n        Account memory acc = accounts[usernameToIndex[username]];\n         if(acc.username == username && keccak256(acc.password) == keccak256(oladPassword)){\n            acc.password = newPassword;\n            accounts[usernameToIndex[acc.username]] = acc;\n            return true;\n        }else{\n            return false;\n        }\n    }\n    \n    function checkAuth(bytes16 username,bytes password) public view returns(bool success){\n        require(usernameTaken(username));\n        Account memory acc = accounts[usernameToIndex[username]];\n        if(acc.username == username && keccak256(acc.password) == keccak256(password)){\n            return true;\n        }else{\n            return false;\n        }\n    }\n    \n    function getAddressByUsername(bytes16 username) public view returns(address){\n        return addresses[usernameToIndex[username]];\n    }\n\n    function exchangeToToken() payable minPrice(msg.value) public returns (bool success){\n        int256 numOfToken = int256(msg.value/1000000000);\n        // get Account\n        Account storage acc = addressToAccount[msg.sender];\n        acc.token += numOfToken;\n        accounts[usernameToIndex[acc.username]] = Account(acc.username,acc.password,acc.ipfsHash,acc.token);\n        // add to tokenExchangeLogs\n        tokenExchangeLogs[usernameToIndex[acc.username]].push(numOfToken);\n        \n        return true;\n    }\n    \n    function exchangeToEther(uint256 fromToken,uint256 toEther,bytes16 username, bytes password) public returns(bool success){\n        require(checkAuth(username,password));\n        require(fromToken >= toEther*1000000000);\n        Account memory acc = accounts[usernameToIndex[username]];\n        require(uint256 (acc.token) >= fromToken);\n        require(getBal() >= uint256 (fromToken*1000000000));\n        msg.sender.transfer(toEther);\n        return true;\n    }\n    \n    function getUserProfile(bytes16 username,bytes password) public view returns (address addr,bytes16 usrname,bytes pwd,int256 token,bytes ipfsHash){\n        require(checkAuth(username,password));\n        Account memory acc = accounts[usernameToIndex[username]];\n        return (addresses[usernameToIndex[username]],acc.username,acc.password,acc.token,acc.ipfsHash);\n    }\n\n    function getTokenExchangeLog (bytes16 username) public view returns(int256[] tokensExchange){\n        return tokenExchangeLogs[usernameToIndex[username]];\n    }\n    \n    function createCampaign(bytes16 username,bytes nameOfCamp,bytes campaignIpfsHash) public \n    returns (bool success){\n        require(usernameTaken(username));\n        require(!nameOfCampTaken(nameOfCamp));\n        Campaign memory camp = Campaign(numOfCamp,nameOfCamp,username,0,0,campaignIpfsHash);\n        idToCampaign[numOfCamp] = camp;\n        campaignsByIndex[usernameToIndex[username]].push(numOfCamp);\n        numOfCamp += 1;\n        namesOfCamp.push(nameOfCamp);\n        nameOfCampToIndex[nameOfCamp] = namesOfCamp.length - 1;\n        transactionsByIdCamp.push([0]);\n        return true;\n    }\n    \n    function getCampaign (uint256 idCampaign) public \n    view returns (uint256 id,bytes16 creatorUsername,int256 numOfToken,uint256 numberOfTrans,bytes ipfsHash){\n        Campaign memory camp = idToCampaign[idCampaign];\n        return (camp.id,camp.creator,camp.numOfToken,camp.numOfTrans,camp.ipfsHash);\n    }\n    \n    function getTransactionListOfCamp(uint256 idCampaign) public view returns (uint256[] ids){\n        return transactionsByIdCamp[idCampaign];\n    }\n        \n    function getTransactionById(uint256 idTransaction) public\n    view returns(uint256 id,uint256 fromIndexAcc,uint toIdCamp,uint numOfToken,bytes ipfsHash){\n        transactionLog memory trans = idToTransLog[idTransaction];\n        return (trans.id,trans.fromIndexAcc,trans.toIdCamp,trans.numOfToken,trans.ipfsHash);\n    }\n \n    function donate(uint256 tokens,uint256 idCampaign,bytes16 username,bytes password,bytes transIpfsHash) public returns (bool success){\n        require(checkAuth(username,password));\n        Account memory acc = accounts[usernameToIndex[username]];\n        require(acc.token >= int256 (tokens));\n        acc.token -= int256 (tokens);\n        accounts[usernameToIndex[username]] = acc;\n        \n        Campaign memory camp = idToCampaign[idCampaign];\n        camp.numOfToken += int256 (tokens);\n        camp.numOfTrans += 1;\n        idToCampaign[idCampaign] = camp;\n        \n        transactionLog memory trans = transactionLog(numOfTrans,usernameToIndex[username]\n        ,idCampaign,tokens,transIpfsHash);\n        if(camp.numOfTrans-1 == 0){\n            transactionsByIdCamp[idCampaign].push(0);\n        }else{\n        transactionsByIdCamp[idCampaign].push(numOfTrans);\n        }\n        idToTransLog[numOfTrans] = trans;\n        numOfTrans += 1;\n        return true;\n    }\n    \n    function getUserCount() public view returns(uint count)\n    {\n        return addresses.length;\n    }\n    \n    function getCampaignCount() public view returns(uint count)\n    {\n        return numOfCamp;\n    }\n    \n    function getTransCount() public view returns(uint count)\n    {\n        return numOfTrans;\n    }\n}\n",
  "sourcePath": "/Volumes/D/dapp/ethereum-charity-funding/contracts/Funding.sol",
  "compiler": {
    "name": "solc",
    "version": "0.4.24+commit.e67f0147.Emscripten.clang"
  },
  "schemaVersion": "2.0.1",
  "updatedAt": "2018-11-26T09:26:06.521Z"
}