{
  "contractName": "Funding",
  "abi": [
    {
      "constant": true,
      "inputs": [
        {
          "name": "",
          "type": "uint256"
        }
      ],
      "name": "usernames",
      "outputs": [
        {
          "name": "",
          "type": "bytes32"
        }
      ],
      "payable": false,
      "stateMutability": "view",
      "type": "function"
    },
    {
      "constant": true,
      "inputs": [
        {
          "name": "",
          "type": "address"
        }
      ],
      "name": "addressToAccount",
      "outputs": [
        {
          "name": "username",
          "type": "bytes16"
        },
        {
          "name": "password",
          "type": "bytes32"
        },
        {
          "name": "token",
          "type": "int256"
        }
      ],
      "payable": false,
      "stateMutability": "view",
      "type": "function"
    },
    {
      "constant": true,
      "inputs": [],
      "name": "numOfTrans",
      "outputs": [
        {
          "name": "",
          "type": "uint256"
        }
      ],
      "payable": false,
      "stateMutability": "view",
      "type": "function"
    },
    {
      "constant": true,
      "inputs": [
        {
          "name": "",
          "type": "uint256"
        },
        {
          "name": "",
          "type": "uint256"
        }
      ],
      "name": "transactionsByIdCamp",
      "outputs": [
        {
          "name": "",
          "type": "uint256"
        }
      ],
      "payable": false,
      "stateMutability": "view",
      "type": "function"
    },
    {
      "constant": true,
      "inputs": [
        {
          "name": "",
          "type": "uint256"
        },
        {
          "name": "",
          "type": "uint256"
        }
      ],
      "name": "campaignsByIndex",
      "outputs": [
        {
          "name": "",
          "type": "uint256"
        }
      ],
      "payable": false,
      "stateMutability": "view",
      "type": "function"
    },
    {
      "constant": true,
      "inputs": [
        {
          "name": "",
          "type": "bytes32"
        }
      ],
      "name": "usernameToIndex",
      "outputs": [
        {
          "name": "",
          "type": "uint256"
        }
      ],
      "payable": false,
      "stateMutability": "view",
      "type": "function"
    },
    {
      "constant": true,
      "inputs": [
        {
          "name": "",
          "type": "uint256"
        }
      ],
      "name": "idToCampaign",
      "outputs": [
        {
          "name": "id",
          "type": "uint256"
        },
        {
          "name": "creator",
          "type": "address"
        },
        {
          "name": "numOfToken",
          "type": "int256"
        },
        {
          "name": "numOfTrans",
          "type": "uint256"
        }
      ],
      "payable": false,
      "stateMutability": "view",
      "type": "function"
    },
    {
      "constant": true,
      "inputs": [
        {
          "name": "",
          "type": "uint256"
        },
        {
          "name": "",
          "type": "uint256"
        }
      ],
      "name": "tokenExchangeLogs",
      "outputs": [
        {
          "name": "",
          "type": "int256"
        }
      ],
      "payable": false,
      "stateMutability": "view",
      "type": "function"
    },
    {
      "constant": true,
      "inputs": [],
      "name": "numOfCamp",
      "outputs": [
        {
          "name": "",
          "type": "uint256"
        }
      ],
      "payable": false,
      "stateMutability": "view",
      "type": "function"
    },
    {
      "constant": true,
      "inputs": [
        {
          "name": "",
          "type": "uint256"
        }
      ],
      "name": "idToTransLog",
      "outputs": [
        {
          "name": "id",
          "type": "uint256"
        },
        {
          "name": "fromIndexAcc",
          "type": "uint256"
        },
        {
          "name": "toIdCamp",
          "type": "uint256"
        },
        {
          "name": "numOfToken",
          "type": "uint256"
        }
      ],
      "payable": false,
      "stateMutability": "view",
      "type": "function"
    },
    {
      "constant": true,
      "inputs": [
        {
          "name": "",
          "type": "uint256"
        }
      ],
      "name": "addresses",
      "outputs": [
        {
          "name": "",
          "type": "address"
        }
      ],
      "payable": false,
      "stateMutability": "view",
      "type": "function"
    },
    {
      "constant": true,
      "inputs": [
        {
          "name": "",
          "type": "uint256"
        }
      ],
      "name": "accounts",
      "outputs": [
        {
          "name": "username",
          "type": "bytes16"
        },
        {
          "name": "password",
          "type": "bytes32"
        },
        {
          "name": "token",
          "type": "int256"
        }
      ],
      "payable": false,
      "stateMutability": "view",
      "type": "function"
    },
    {
      "constant": true,
      "inputs": [
        {
          "name": "",
          "type": "address"
        }
      ],
      "name": "addressToIndex",
      "outputs": [
        {
          "name": "",
          "type": "uint256"
        }
      ],
      "payable": false,
      "stateMutability": "view",
      "type": "function"
    },
    {
      "inputs": [],
      "payable": false,
      "stateMutability": "nonpayable",
      "type": "constructor"
    },
    {
      "constant": true,
      "inputs": [],
      "name": "getBal",
      "outputs": [
        {
          "name": "bal",
          "type": "uint256"
        }
      ],
      "payable": false,
      "stateMutability": "view",
      "type": "function"
    },
    {
      "constant": true,
      "inputs": [
        {
          "name": "userAddress",
          "type": "address"
        }
      ],
      "name": "hadAccount",
      "outputs": [
        {
          "name": "flag",
          "type": "bool"
        }
      ],
      "payable": false,
      "stateMutability": "view",
      "type": "function"
    },
    {
      "constant": true,
      "inputs": [
        {
          "name": "username",
          "type": "bytes16"
        }
      ],
      "name": "usernameTaken",
      "outputs": [
        {
          "name": "flag",
          "type": "bool"
        }
      ],
      "payable": false,
      "stateMutability": "view",
      "type": "function"
    },
    {
      "constant": false,
      "inputs": [
        {
          "name": "username",
          "type": "bytes16"
        },
        {
          "name": "password",
          "type": "bytes32"
        }
      ],
      "name": "createAccount",
      "outputs": [
        {
          "name": "success",
          "type": "bool"
        }
      ],
      "payable": false,
      "stateMutability": "nonpayable",
      "type": "function"
    },
    {
      "constant": false,
      "inputs": [
        {
          "name": "username",
          "type": "bytes16"
        },
        {
          "name": "oladPassword",
          "type": "bytes32"
        },
        {
          "name": "newPassword",
          "type": "bytes32"
        }
      ],
      "name": "changePassword",
      "outputs": [
        {
          "name": "success",
          "type": "bool"
        }
      ],
      "payable": false,
      "stateMutability": "nonpayable",
      "type": "function"
    },
    {
      "constant": true,
      "inputs": [
        {
          "name": "username",
          "type": "bytes16"
        },
        {
          "name": "password",
          "type": "bytes32"
        }
      ],
      "name": "checkAuth",
      "outputs": [
        {
          "name": "success",
          "type": "bool"
        }
      ],
      "payable": false,
      "stateMutability": "view",
      "type": "function"
    },
    {
      "constant": false,
      "inputs": [],
      "name": "exchangeToToken",
      "outputs": [
        {
          "name": "success",
          "type": "bool"
        }
      ],
      "payable": true,
      "stateMutability": "payable",
      "type": "function"
    },
    {
      "constant": false,
      "inputs": [
        {
          "name": "fromToken",
          "type": "uint256"
        },
        {
          "name": "toEther",
          "type": "uint256"
        },
        {
          "name": "username",
          "type": "bytes16"
        },
        {
          "name": "password",
          "type": "bytes32"
        }
      ],
      "name": "exchangeToEther",
      "outputs": [
        {
          "name": "success",
          "type": "bool"
        }
      ],
      "payable": false,
      "stateMutability": "nonpayable",
      "type": "function"
    },
    {
      "constant": true,
      "inputs": [
        {
          "name": "username",
          "type": "bytes16"
        },
        {
          "name": "password",
          "type": "bytes32"
        }
      ],
      "name": "getUserProfile",
      "outputs": [
        {
          "name": "usrname",
          "type": "bytes16"
        },
        {
          "name": "pwd",
          "type": "bytes32"
        },
        {
          "name": "token",
          "type": "int256"
        }
      ],
      "payable": false,
      "stateMutability": "view",
      "type": "function"
    },
    {
      "constant": true,
      "inputs": [
        {
          "name": "username",
          "type": "bytes16"
        }
      ],
      "name": "getTokenExchangeLog",
      "outputs": [
        {
          "name": "tokensExchange",
          "type": "int256[]"
        }
      ],
      "payable": false,
      "stateMutability": "view",
      "type": "function"
    },
    {
      "constant": false,
      "inputs": [
        {
          "name": "username",
          "type": "bytes16"
        }
      ],
      "name": "createCampaign",
      "outputs": [
        {
          "name": "success",
          "type": "bool"
        }
      ],
      "payable": false,
      "stateMutability": "nonpayable",
      "type": "function"
    },
    {
      "constant": true,
      "inputs": [
        {
          "name": "idCampaign",
          "type": "uint256"
        }
      ],
      "name": "getCampaign",
      "outputs": [
        {
          "name": "id",
          "type": "uint256"
        },
        {
          "name": "creator",
          "type": "address"
        },
        {
          "name": "numOfToken",
          "type": "int256"
        },
        {
          "name": "numberOfTrans",
          "type": "uint256"
        }
      ],
      "payable": false,
      "stateMutability": "view",
      "type": "function"
    },
    {
      "constant": false,
      "inputs": [
        {
          "name": "tokens",
          "type": "uint256"
        },
        {
          "name": "idCampaign",
          "type": "uint256"
        },
        {
          "name": "username",
          "type": "bytes16"
        },
        {
          "name": "password",
          "type": "bytes32"
        }
      ],
      "name": "donate",
      "outputs": [
        {
          "name": "success",
          "type": "bool"
        }
      ],
      "payable": false,
      "stateMutability": "nonpayable",
      "type": "function"
    },
    {
      "constant": true,
      "inputs": [],
      "name": "getUserCount",
      "outputs": [
        {
          "name": "count",
          "type": "uint256"
        }
      ],
      "payable": false,
      "stateMutability": "view",
      "type": "function"
    },
    {
      "constant": true,
      "inputs": [],
      "name": "getCampaignCount",
      "outputs": [
        {
          "name": "count",
          "type": "uint256"
        }
      ],
      "payable": false,
      "stateMutability": "view",
      "type": "function"
    },
    {
      "constant": true,
      "inputs": [],
      "name": "getTransCount",
      "outputs": [
        {
          "name": "count",
          "type": "uint256"
        }
      ],
      "payable": false,
      "stateMutability": "view",
      "type": "function"
    }
  ],
  "bytecode": "0x60806040523480156200001157600080fd5b506200001c62000287565b6060604051908101604052807f61646d696e0000000000000000000000000000000000000000000000000000006fffffffffffffffffffffffffffffffff191681526020017f6368617269747900000000000000000000000000000000000000000000000000600019168152602001600081525090506005819080600181540180825580915050906001820390600052602060002090600302016000909192909190915060008201518160000160006101000a8154816fffffffffffffffffffffffffffffffff021916908370010000000000000000000000000000000090040217905550602082015181600101906000191690556040820151816002015550505060063390806001815401808255809150509060018203906000526020600020016000909192909190916101000a81548173ffffffffffffffffffffffffffffffffffffffff021916908373ffffffffffffffffffffffffffffffffffffffff1602179055505060078060018154018082558091505090600182039060005260206000200160007f61646d696e000000000000000000000000000000000000000000000000000000909190915090600019169055506008602060405190810160405280600060ff168152509080600181540180825580915050906001820390600052602060002001600090919290919091509060016200021f929190620002bf565b50506009602060405190810160405280600060ff168152509080600181540180825580915050906001820390600052602060002001600090919290919091509060016200026e92919062000316565b50506000600b819055506000600c8190555050620003bd565b60606040519081016040528060006fffffffffffffffffffffffffffffffff1916815260200160008019168152602001600081525090565b82805482825590600052602060002090810192821562000303579160200282015b8281111562000302578251829060ff16905591602001919060010190620002e0565b5b5090506200031291906200036d565b5090565b8280548282559060005260206000209081019282156200035a579160200282015b8281111562000359578251829060ff1690559160200191906001019062000337565b5b50905062000369919062000395565b5090565b6200039291905b808211156200038e57600081600090555060010162000374565b5090565b90565b620003ba91905b80821115620003b65760008160009055506001016200039c565b5090565b90565b61243f80620003cd6000396000f300608060405260043610610175576000357c0100000000000000000000000000000000000000000000000000000000900463ffffffff16806308ecd3a61461017a578063093114761461020f578063136dd963146102ad57806316b7addf146102f657806317d046851461034e5780631a01cffe146103b457806325caa2621461044757806333702e401461047257806334a941ee1461049d578063449397e7146104f55780635598f8cc146105405780636caa9218146105c257806376e5a5f3146105ed5780638202f8dc14610638578063883c7aff146106635780639a617c90146106a85780639ccfc91c146107225780639cd4634e14610796578063aaa1437614610818578063aefc7aeb14610873578063b4e4c667146108d9578063b5cb15f714610953578063c3a88bdc1461097e578063c42d65e9146109c9578063c75053ca146109f4578063dc5c474614610a4a578063edf26d9b14610a6c578063f2a40db814610ad9578063f667e0aa14610b56575b600080fd5b34801561018657600080fd5b506101b860048036038101908080356fffffffffffffffffffffffffffffffff19169060200190929190505050610bad565b6040518080602001828103825283818151815260200191508051906020019060200280838360005b838110156101fb5780820151818401526020810190506101e0565b505050509050019250505060405180910390f35b34801561021b57600080fd5b5061025b60048036038101908080356fffffffffffffffffffffffffffffffff191690602001909291908035600019169060200190929190505050610c48565b60405180846fffffffffffffffffffffffffffffffff19166fffffffffffffffffffffffffffffffff191681526020018360001916600019168152602001828152602001935050505060405180910390f35b3480156102b957600080fd5b506102d860048036038101908080359060200190929190505050610d45565b60405180826000191660001916815260200191505060405180910390f35b34801561030257600080fd5b5061033460048036038101908080356fffffffffffffffffffffffffffffffff19169060200190929190505050610d68565b604051808215151515815260200191505060405180910390f35b34801561035a57600080fd5b5061039a60048036038101908080356fffffffffffffffffffffffffffffffff191690602001909291908035600019169060200190929190505050610ddb565b604051808215151515815260200191505060405180910390f35b3480156103c057600080fd5b506103f5600480360381019080803573ffffffffffffffffffffffffffffffffffffffff169060200190929190505050610f15565b60405180846fffffffffffffffffffffffffffffffff19166fffffffffffffffffffffffffffffffff191681526020018360001916600019168152602001828152602001935050505060405180910390f35b34801561045357600080fd5b5061045c610f5c565b6040518082815260200191505060405180910390f35b34801561047e57600080fd5b50610487610f7b565b6040518082815260200191505060405180910390f35b3480156104a957600080fd5b506104db60048036038101908080356fffffffffffffffffffffffffffffffff19169060200190929190505050610f81565b604051808215151515815260200191505060405180910390f35b34801561050157600080fd5b5061052a6004803603810190808035906020019092919080359060200190929190505050611195565b6040518082815260200191505060405180910390f35b34801561054c57600080fd5b5061056b600480360381019080803590602001909291905050506111d0565b604051808581526020018473ffffffffffffffffffffffffffffffffffffffff1673ffffffffffffffffffffffffffffffffffffffff16815260200183815260200182815260200194505050505060405180910390f35b3480156105ce57600080fd5b506105d7611297565b6040518082815260200191505060405180910390f35b3480156105f957600080fd5b5061062260048036038101908080359060200190929190803590602001909291905050506112a1565b6040518082815260200191505060405180910390f35b34801561064457600080fd5b5061064d6112dc565b6040518082815260200191505060405180910390f35b34801561066f57600080fd5b5061069260048036038101908080356000191690602001909291905050506112e6565b6040518082815260200191505060405180910390f35b3480156106b457600080fd5b50610708600480360381019080803590602001909291908035906020019092919080356fffffffffffffffffffffffffffffffff1916906020019092919080356000191690602001909291905050506112fe565b604051808215151515815260200191505060405180910390f35b34801561072e57600080fd5b5061077c60048036038101908080356fffffffffffffffffffffffffffffffff1916906020019092919080356000191690602001909291908035600019169060200190929190505050611473565b604051808215151515815260200191505060405180910390f35b3480156107a257600080fd5b506107c16004803603810190808035906020019092919050505061166c565b604051808581526020018473ffffffffffffffffffffffffffffffffffffffff1673ffffffffffffffffffffffffffffffffffffffff16815260200183815260200182815260200194505050505060405180910390f35b34801561082457600080fd5b50610859600480360381019080803573ffffffffffffffffffffffffffffffffffffffff1690602001909291905050506116bc565b604051808215151515815260200191505060405180910390f35b34801561087f57600080fd5b506108bf60048036038101908080356fffffffffffffffffffffffffffffffff191690602001909291908035600019169060200190929190505050611776565b604051808215151515815260200191505060405180910390f35b3480156108e557600080fd5b50610939600480360381019080803590602001909291908035906020019092919080356fffffffffffffffffffffffffffffffff191690602001909291908035600019169060200190929190505050611adc565b604051808215151515815260200191505060405180910390f35b34801561095f57600080fd5b50610968611eba565b6040518082815260200191505060405180910390f35b34801561098a57600080fd5b506109b36004803603810190808035906020019092919080359060200190929190505050611ec7565b6040518082815260200191505060405180910390f35b3480156109d557600080fd5b506109de611f02565b6040518082815260200191505060405180910390f35b348015610a0057600080fd5b50610a1f60048036038101908080359060200190929190505050611f08565b6040518085815260200184815260200183815260200182815260200194505050505060405180910390f35b610a52611f38565b604051808215151515815260200191505060405180910390f35b348015610a7857600080fd5b50610a97600480360381019080803590602001909291905050506121d9565b604051808273ffffffffffffffffffffffffffffffffffffffff1673ffffffffffffffffffffffffffffffffffffffff16815260200191505060405180910390f35b348015610ae557600080fd5b50610b0460048036038101908080359060200190929190505050612217565b60405180846fffffffffffffffffffffffffffffffff19166fffffffffffffffffffffffffffffffff191681526020018360001916600019168152602001828152602001935050505060405180910390f35b348015610b6257600080fd5b50610b97600480360381019080803573ffffffffffffffffffffffffffffffffffffffff16906020019092919050505061226d565b6040518082815260200191505060405180910390f35b6060600860016000846fffffffffffffffffffffffffffffffff191660001916815260200190815260200160002054815481101515610be857fe5b90600052602060002001805480602002602001604051908101604052809291908181526020018280548015610c3c57602002820191906000526020600020905b815481526020019060010190808311610c28575b50505050509050919050565b6000806000610c55612285565b610c5f8686610ddb565b1515610c6a57600080fd5b600560016000886fffffffffffffffffffffffffffffffff191660001916815260200190815260200160002054815481101515610ca357fe5b9060005260206000209060030201606060405190810160405290816000820160009054906101000a9004700100000000000000000000000000000000026fffffffffffffffffffffffffffffffff19166fffffffffffffffffffffffffffffffff191681526020016001820154600019166000191681526020016002820154815250509050806000015181602001518260400151935093509350509250925092565b600781815481101515610d5457fe5b906000526020600020016000915090505481565b60008060016000846fffffffffffffffffffffffffffffffff1916600019168152602001908152602001600020541180610dd457507f61646d696e000000000000000000000000000000000000000000000000000000826fffffffffffffffffffffffffffffffff1916145b9050919050565b6000610de5612285565b610dee84610d68565b1515610df957600080fd5b600560016000866fffffffffffffffffffffffffffffffff191660001916815260200190815260200160002054815481101515610e3257fe5b9060005260206000209060030201606060405190810160405290816000820160009054906101000a9004700100000000000000000000000000000000026fffffffffffffffffffffffffffffffff19166fffffffffffffffffffffffffffffffff191681526020016001820154600019166000191681526020016002820154815250509050836fffffffffffffffffffffffffffffffff191681600001516fffffffffffffffffffffffffffffffff1916148015610efb57508260001916816020015160001916145b15610f095760019150610f0e565b600091505b5092915050565b60026020528060005260406000206000915090508060000160009054906101000a900470010000000000000000000000000000000002908060010154908060020154905083565b60003073ffffffffffffffffffffffffffffffffffffffff1631905090565b600c5481565b6000610f8b6122bd565b610f9483610d68565b1515610f9f57600080fd5b608060405190810160405280600b548152602001600660016000876fffffffffffffffffffffffffffffffff191660001916815260200190815260200160002054815481101515610fec57fe5b9060005260206000200160009054906101000a900473ffffffffffffffffffffffffffffffffffffffff1673ffffffffffffffffffffffffffffffffffffffff16815260200160008152602001600081525090508060036000600b5481526020019081526020016000206000820151816000015560208201518160010160006101000a81548173ffffffffffffffffffffffffffffffffffffffff021916908373ffffffffffffffffffffffffffffffffffffffff1602179055506040820151816002015560608201518160030155905050600960016000856fffffffffffffffffffffffffffffffff1916600019168152602001908152602001600020548154811015156110f757fe5b90600052602060002001600b5490806001815401808255809150509060018203906000526020600020016000909192909190915055506001600b60008282540192505081905550600a602060405190810160405280600060ff168152509080600181540180825580915050906001820390600052602060002001600090919290919091509060016111899291906122fc565b50506001915050919050565b600a828154811015156111a457fe5b90600052602060002001818154811015156111bb57fe5b90600052602060002001600091509150505481565b6000806000806111de6122bd565b6003600087815260200190815260200160002060806040519081016040529081600082015481526020016001820160009054906101000a900473ffffffffffffffffffffffffffffffffffffffff1673ffffffffffffffffffffffffffffffffffffffff1673ffffffffffffffffffffffffffffffffffffffff16815260200160028201548152602001600382015481525050905080600001518160200151826040015183606001519450945094509450509193509193565b6000600b54905090565b6009828154811015156112b057fe5b90600052602060002001818154811015156112c757fe5b90600052602060002001600091509150505481565b6000600c54905090565b60016020528060005260406000206000915090505481565b6000611308612285565b6113128484610ddb565b151561131d57600080fd5b633b9aca008502861015151561133257600080fd5b600560016000866fffffffffffffffffffffffffffffffff19166000191681526020019081526020016000205481548110151561136b57fe5b9060005260206000209060030201606060405190810160405290816000820160009054906101000a9004700100000000000000000000000000000000026fffffffffffffffffffffffffffffffff19166fffffffffffffffffffffffffffffffff1916815260200160018201546000191660001916815260200160028201548152505090508581604001511015151561140357600080fd5b633b9aca008602611412610f5c565b1015151561141f57600080fd5b3373ffffffffffffffffffffffffffffffffffffffff166108fc869081150290604051600060405180830381858888f19350505050158015611465573d6000803e3d6000fd5b506001915050949350505050565b600061147d612285565b61148685610d68565b151561149157600080fd5b600560016000876fffffffffffffffffffffffffffffffff1916600019168152602001908152602001600020548154811015156114ca57fe5b9060005260206000209060030201606060405190810160405290816000820160009054906101000a9004700100000000000000000000000000000000026fffffffffffffffffffffffffffffffff19166fffffffffffffffffffffffffffffffff191681526020016001820154600019166000191681526020016002820154815250509050846fffffffffffffffffffffffffffffffff191681600001516fffffffffffffffffffffffffffffffff191614801561159357508360001916816020015160001916145b1561165f5782816020019060001916908160001916815250508060056001600084600001516fffffffffffffffffffffffffffffffff1916600019168152602001908152602001600020548154811015156115ea57fe5b906000526020600020906003020160008201518160000160006101000a8154816fffffffffffffffffffffffffffffffff021916908370010000000000000000000000000000000090040217905550602082015181600101906000191690556040820151816002015590505060019150611664565b600091505b509392505050565b60036020528060005260406000206000915090508060000154908060010160009054906101000a900473ffffffffffffffffffffffffffffffffffffffff16908060020154908060030154905084565b6000806000808473ffffffffffffffffffffffffffffffffffffffff1673ffffffffffffffffffffffffffffffffffffffff16815260200190815260200160002054118061176f57506006600081548110151561171557fe5b9060005260206000200160009054906101000a900473ffffffffffffffffffffffffffffffffffffffff1673ffffffffffffffffffffffffffffffffffffffff168273ffffffffffffffffffffffffffffffffffffffff16145b9050919050565b6000611780612285565b611789336116bc565b15151561179557600080fd5b61179e84610d68565b1515156117aa57600080fd5b606060405190810160405280856fffffffffffffffffffffffffffffffff1916815260200184600019168152602001600081525090506005819080600181540180825580915050906001820390600052602060002090600302016000909192909190915060008201518160000160006101000a8154816fffffffffffffffffffffffffffffffff0219169083700100000000000000000000000000000000900402179055506020820151816001019060001916905560408201518160020155505050600784908060018154018082558091505090600182039060005260206000200160009091926fffffffffffffffffffffffffffffffff19169091909150906000191690555060063390806001815401808255809150509060018203906000526020600020016000909192909190916101000a81548173ffffffffffffffffffffffffffffffffffffffff021916908373ffffffffffffffffffffffffffffffffffffffff160217905550506008602060405190810160405280600060ff1681525090806001815401808255809150509060018203906000526020600020016000909192909190915090600161196292919061234e565b50506009602060405190810160405280600060ff168152509080600181540180825580915050906001820390600052602060002001600090919290919091509060016119af9291906122fc565b50506001600680549050036000803373ffffffffffffffffffffffffffffffffffffffff1673ffffffffffffffffffffffffffffffffffffffff1681526020019081526020016000208190555080600260003373ffffffffffffffffffffffffffffffffffffffff1673ffffffffffffffffffffffffffffffffffffffff16815260200190815260200160002060008201518160000160006101000a8154816fffffffffffffffffffffffffffffffff021916908370010000000000000000000000000000000090040217905550602082015181600101906000191690556040820151816002015590505060016007805490500360016000866fffffffffffffffffffffffffffffffff191660001916815260200190815260200160002081905550600191505092915050565b6000611ae6612285565b611aee6122bd565b611af66123a0565b611b008686610ddb565b1515611b0b57600080fd5b600560016000886fffffffffffffffffffffffffffffffff191660001916815260200190815260200160002054815481101515611b4457fe5b9060005260206000209060030201606060405190810160405290816000820160009054906101000a9004700100000000000000000000000000000000026fffffffffffffffffffffffffffffffff19166fffffffffffffffffffffffffffffffff19168152602001600182015460001916600019168152602001600282015481525050925087836040015112151515611bdc57600080fd5b8783604001818151039150818152505082600560016000896fffffffffffffffffffffffffffffffff191660001916815260200190815260200160002054815481101515611c2657fe5b906000526020600020906003020160008201518160000160006101000a8154816fffffffffffffffffffffffffffffffff02191690837001000000000000000000000000000000009004021790555060208201518160010190600019169055604082015181600201559050506003600088815260200190815260200160002060806040519081016040529081600082015481526020016001820160009054906101000a900473ffffffffffffffffffffffffffffffffffffffff1673ffffffffffffffffffffffffffffffffffffffff1673ffffffffffffffffffffffffffffffffffffffff16815260200160028201548152602001600382015481525050915087826040018181510191508181525050600182606001818151019150818152505081600360008981526020019081526020016000206000820151816000015560208201518160010160006101000a81548173ffffffffffffffffffffffffffffffffffffffff021916908373ffffffffffffffffffffffffffffffffffffffff1602179055506040820151816002015560608201518160030155905050608060405190810160405280600c54815260200160016000896fffffffffffffffffffffffffffffffff1916600019168152602001908152602001600020548152602001888152602001898152509050600a87815481101515611e2357fe5b90600052602060002001600c5490806001815401808255809150509060018203906000526020600020016000909192909190915055508060046000600c548152602001908152602001600020600082015181600001556020820151816001015560408201518160020155606082015181600301559050506001600c6000828254019250508190555060019350505050949350505050565b6000600680549050905090565b600882815481101515611ed657fe5b9060005260206000200181815481101515611eed57fe5b90600052602060002001600091509150505481565b600b5481565b60046020528060005260406000206000915090508060000154908060010154908060020154908060030154905084565b600080600034633b9aca008110151515611fba576040517f08c379a000000000000000000000000000000000000000000000000000000000815260040180806020018281038252601d8152602001807f56616c7565206d757374206265206174206c656173742031206777656900000081525060200191505060405180910390fd5b633b9aca0034811515611fc957fe5b049250600260003373ffffffffffffffffffffffffffffffffffffffff1673ffffffffffffffffffffffffffffffffffffffff16815260200190815260200160002091508282600201600082825401925050819055506060604051908101604052808360000160009054906101000a9004700100000000000000000000000000000000026fffffffffffffffffffffffffffffffff19168152602001836001015460001916815260200183600201548152506005600160008560000160009054906101000a9004700100000000000000000000000000000000026fffffffffffffffffffffffffffffffff1916600019168152602001908152602001600020548154811015156120d557fe5b906000526020600020906003020160008201518160000160006101000a8154816fffffffffffffffffffffffffffffffff02191690837001000000000000000000000000000000009004021790555060208201518160010190600019169055604082015181600201559050506008600160008460000160009054906101000a9004700100000000000000000000000000000000026fffffffffffffffffffffffffffffffff19166000191681526020019081526020016000205481548110151561219b57fe5b906000526020600020018390806001815401808255809150509060018203906000526020600020016000909192909190915055506001935050505090565b6006818154811015156121e857fe5b906000526020600020016000915054906101000a900473ffffffffffffffffffffffffffffffffffffffff1681565b60058181548110151561222657fe5b90600052602060002090600302016000915090508060000160009054906101000a900470010000000000000000000000000000000002908060010154908060020154905083565b60006020528060005260406000206000915090505481565b60606040519081016040528060006fffffffffffffffffffffffffffffffff1916815260200160008019168152602001600081525090565b60806040519081016040528060008152602001600073ffffffffffffffffffffffffffffffffffffffff16815260200160008152602001600081525090565b82805482825590600052602060002090810192821561233d579160200282015b8281111561233c578251829060ff1690559160200191906001019061231c565b5b50905061234a91906123c9565b5090565b82805482825590600052602060002090810192821561238f579160200282015b8281111561238e578251829060ff1690559160200191906001019061236e565b5b50905061239c91906123ee565b5090565b608060405190810160405280600081526020016000815260200160008152602001600081525090565b6123eb91905b808211156123e75760008160009055506001016123cf565b5090565b90565b61241091905b8082111561240c5760008160009055506001016123f4565b5090565b905600a165627a7a72305820ac5b74d21b3cad694304c18547cb8dede88a980c1ad5f10a5afac75b0fe0155f0029",
  "source": "pragma solidity ^0.4.24;\n\ncontract Funding {\n    \n    mapping (address => uint) public addressToIndex; // get Index from Address\n    mapping (bytes32 => uint) public usernameToIndex; // get Index from Username\n    mapping (address => Account) public addressToAccount; // get Account from Address\n    mapping (uint => Campaign) public idToCampaign; // get Campaign from id of a campaign\n    mapping (uint => transactionLog) public idToTransLog; // get transactionLog from id of transactionLog\n    \n    Account[] public accounts;\n    address[] public addresses;\n    bytes32[] public usernames;\n    int256[][] public tokenExchangeLogs;\n    uint256[][] public campaignsByIndex;\n    uint256[][] public transactionsByIdCamp;\n    uint256 public numOfCamp;\n    uint256 public numOfTrans;\n    \n    constructor () public {\n        Account memory acc = Account(\"admin\",\"charity\",0);\n        \n        accounts.push(acc);\n        addresses.push(msg.sender);\n        usernames.push(\"admin\");\n        tokenExchangeLogs.push([0]);\n        campaignsByIndex.push([0]);\n        \n        numOfCamp = 0;\n        numOfTrans = 0;\n    }\n    \n    struct Account{\n        bytes16 username;\n        bytes32 password;\n        // bytes ipfsHash;\n        int token;\n    }\n    \n    struct transactionLog{\n        uint256 id;\n        uint256 fromIndexAcc;\n        uint toIdCamp;\n        uint numOfToken;\n    }\n    \n    struct Campaign{\n        uint id;\n        address creator;\n        int numOfToken;\n        uint numOfTrans;\n    }\n    \n    function getBal() public view returns(uint256 bal){\n        return address (this).balance;\n    }\n    \n    function hadAccount(address userAddress) public view returns (bool flag){\n        return (addressToIndex[userAddress] > 0 || userAddress == addresses[0]);\n    }\n    \n    function usernameTaken(bytes16 username) public view returns (bool flag){\n        return (usernameToIndex[username] > 0 || username == \"admin\");\n    }\n    \n    modifier minPrice (uint256 _amount){\n        require(_amount >= 1000000000,\"Value must be at least 1 gwei\");\n        _;\n    }\n\n    function createAccount(bytes16 username,bytes32 password) public returns (bool success)\n    {\n        require(!hadAccount(msg.sender));\n        require(!usernameTaken(username));\n        Account memory acc = Account (username,password,0);\n        // Campaign memory camp = Campaign(0,msg.sender,0);\n        \n        accounts.push(acc);\n        usernames.push(username);\n        addresses.push(msg.sender);\n        tokenExchangeLogs.push([0]);\n        campaignsByIndex.push([0]);\n        \n        addressToIndex[msg.sender] = addresses.length - 1;\n        addressToAccount[msg.sender] = acc;\n        usernameToIndex[username] = usernames.length - 1;\n        // idToCampaign[numOfCamp+1] = camp;\n        \n        return true;\n    }\n    \n    function changePassword(bytes16 username,bytes32 oladPassword,bytes32 newPassword)\n    public returns (bool success){\n        require(usernameTaken(username));\n        Account memory acc = accounts[usernameToIndex[username]];\n         if(acc.username == username && acc.password == oladPassword){\n            acc.password = newPassword;\n            accounts[usernameToIndex[acc.username]] = acc;\n            return true;\n        }else{\n            return false;\n        }\n    }\n    \n    function checkAuth(bytes16 username,bytes32 password) public view returns(bool success){\n        require(usernameTaken(username));\n        Account memory acc = accounts[usernameToIndex[username]];\n        if(acc.username == username && acc.password == password){\n            return true;\n        }else{\n            return false;\n        }\n    }\n    \n    function exchangeToToken() payable minPrice(msg.value) public returns (bool success){\n        int256 numOfToken = int256(msg.value/1000000000);\n        // get Account\n        Account storage acc = addressToAccount[msg.sender];\n        acc.token += numOfToken;\n        accounts[usernameToIndex[acc.username]] = Account(acc.username,acc.password,acc.token);\n        // add to tokenExchangeLogs\n        tokenExchangeLogs[usernameToIndex[acc.username]].push(numOfToken);\n        \n        return true;\n    }\n    \n    function exchangeToEther(uint256 fromToken,uint256 toEther,bytes16 username, bytes32 password) public returns(bool success){\n        require(checkAuth(username,password));\n        require(fromToken >= toEther*1000000000);\n        Account memory acc = accounts[usernameToIndex[username]];\n        require(uint256 (acc.token) >= fromToken);\n        require(getBal() >= uint256 (fromToken*1000000000));\n        msg.sender.transfer(toEther);\n        return true;\n    }\n    \n    function getUserProfile(bytes16 username,bytes32 password) public view returns (bytes16 usrname,bytes32 pwd,int256 token){\n        require(checkAuth(username,password));\n        Account memory acc = accounts[usernameToIndex[username]];\n        return (acc.username,acc.password,acc.token);\n    }\n\n    function getTokenExchangeLog (bytes16 username) public view returns(int256[] tokensExchange){\n        return tokenExchangeLogs[usernameToIndex[username]];\n    }\n    \n    function createCampaign(bytes16 username) public returns (bool success){\n        require(usernameTaken(username));\n        Campaign memory camp = Campaign(numOfCamp,addresses[usernameToIndex[username]],0,0);\n        idToCampaign[numOfCamp] = camp;\n        campaignsByIndex[usernameToIndex[username]].push(numOfCamp);\n        numOfCamp += 1;\n        transactionsByIdCamp.push([0]);\n        return true;\n    }\n \n    function getCampaign (uint256 idCampaign) public view returns (uint256 id,address creator,int256 numOfToken,uint256 numberOfTrans){\n        Campaign memory camp = idToCampaign[idCampaign];\n        return (camp.id,camp.creator,camp.numOfToken,camp.numOfTrans);\n    }\n \n    function donate(uint256 tokens,uint256 idCampaign,bytes16 username,bytes32 password) public returns (bool success){\n        require(checkAuth(username,password));\n        Account memory acc = accounts[usernameToIndex[username]];\n        require(acc.token >= int256 (tokens));\n        acc.token -= int256 (tokens);\n        accounts[usernameToIndex[username]] = acc;\n        \n        Campaign memory camp = idToCampaign[idCampaign];\n        camp.numOfToken += int256 (tokens);\n        camp.numOfTrans += 1;\n        idToCampaign[idCampaign] = camp;\n        \n        transactionLog memory trans = transactionLog(\n            numOfTrans,usernameToIndex[username],idCampaign,tokens);\n        transactionsByIdCamp[idCampaign].push(numOfTrans);\n        idToTransLog[numOfTrans] = trans;\n        numOfTrans += 1;\n        return true;\n    }\n    \n    function getUserCount() public view returns(uint count)\n    {\n        return addresses.length;\n    }\n    \n    function getCampaignCount() public view returns(uint count)\n    {\n        return numOfCamp;\n    }\n    \n    function getTransCount() public view returns(uint count)\n    {\n        return numOfTrans;\n    }\n}\n",
  "sourcePath": "/Volumes/D/dapp/eth-charity/ethereum-charity-funding/contracts/Funding.sol",
  "compiler": {
    "name": "solc",
    "version": "0.4.24+commit.e67f0147.Emscripten.clang"
  },
  "schemaVersion": "2.0.1",
  "updatedAt": "2018-11-20T03:10:02.048Z"
}