{
  "contractName": "Funding",
  "abi": [
    {
      "constant": true,
      "inputs": [
        {
          "name": "",
          "type": "uint256"
        }
      ],
      "name": "accounts",
      "outputs": [
        {
          "name": "username",
          "type": "bytes16"
        },
        {
          "name": "password",
          "type": "bytes"
        },
        {
          "name": "ipfsHash",
          "type": "bytes"
        },
        {
          "name": "token",
          "type": "int256"
        }
      ],
      "payable": false,
      "stateMutability": "view",
      "type": "function"
    },
    {
      "inputs": [],
      "payable": false,
      "stateMutability": "nonpayable",
      "type": "constructor"
    },
    {
      "constant": true,
      "inputs": [],
      "name": "getBal",
      "outputs": [
        {
          "name": "bal",
          "type": "uint256"
        }
      ],
      "payable": false,
      "stateMutability": "view",
      "type": "function"
    },
    {
      "constant": false,
      "inputs": [
        {
          "name": "username",
          "type": "bytes16"
        },
        {
          "name": "password",
          "type": "bytes"
        },
        {
          "name": "ipfsHash",
          "type": "bytes"
        }
      ],
      "name": "createAccount",
      "outputs": [
        {
          "name": "success",
          "type": "bool"
        }
      ],
      "payable": false,
      "stateMutability": "nonpayable",
      "type": "function"
    },
    {
      "constant": false,
      "inputs": [
        {
          "name": "username",
          "type": "bytes16"
        },
        {
          "name": "oladPassword",
          "type": "bytes"
        },
        {
          "name": "newPassword",
          "type": "bytes"
        }
      ],
      "name": "changePassword",
      "outputs": [
        {
          "name": "success",
          "type": "bool"
        }
      ],
      "payable": false,
      "stateMutability": "nonpayable",
      "type": "function"
    },
    {
      "constant": true,
      "inputs": [
        {
          "name": "username",
          "type": "bytes16"
        },
        {
          "name": "password",
          "type": "bytes"
        }
      ],
      "name": "checkAuth",
      "outputs": [
        {
          "name": "success",
          "type": "bool"
        }
      ],
      "payable": false,
      "stateMutability": "view",
      "type": "function"
    },
    {
      "constant": false,
      "inputs": [],
      "name": "exchangeToToken",
      "outputs": [
        {
          "name": "success",
          "type": "bool"
        }
      ],
      "payable": true,
      "stateMutability": "payable",
      "type": "function"
    },
    {
      "constant": false,
      "inputs": [
        {
          "name": "fromToken",
          "type": "uint256"
        },
        {
          "name": "toEther",
          "type": "uint256"
        },
        {
          "name": "username",
          "type": "bytes16"
        },
        {
          "name": "password",
          "type": "bytes"
        }
      ],
      "name": "exchangeToEther",
      "outputs": [
        {
          "name": "success",
          "type": "bool"
        }
      ],
      "payable": false,
      "stateMutability": "nonpayable",
      "type": "function"
    },
    {
      "constant": true,
      "inputs": [
        {
          "name": "username",
          "type": "bytes16"
        },
        {
          "name": "password",
          "type": "bytes"
        }
      ],
      "name": "getUserProfile",
      "outputs": [
        {
          "name": "addr",
          "type": "address"
        },
        {
          "name": "usrname",
          "type": "bytes16"
        },
        {
          "name": "pwd",
          "type": "bytes"
        },
        {
          "name": "token",
          "type": "int256"
        },
        {
          "name": "ipfsHash",
          "type": "bytes"
        }
      ],
      "payable": false,
      "stateMutability": "view",
      "type": "function"
    },
    {
      "constant": true,
      "inputs": [
        {
          "name": "username",
          "type": "bytes16"
        }
      ],
      "name": "getTokenExchangeLog",
      "outputs": [
        {
          "name": "tokensExchange",
          "type": "int256[]"
        }
      ],
      "payable": false,
      "stateMutability": "view",
      "type": "function"
    },
    {
      "constant": false,
      "inputs": [
        {
          "name": "username",
          "type": "bytes16"
        },
        {
          "name": "nameOfCamp",
          "type": "bytes"
        },
        {
          "name": "campaignIpfsHash",
          "type": "bytes"
        }
      ],
      "name": "createCampaign",
      "outputs": [
        {
          "name": "success",
          "type": "bool"
        }
      ],
      "payable": false,
      "stateMutability": "nonpayable",
      "type": "function"
    },
    {
      "constant": true,
      "inputs": [
        {
          "name": "idCampaign",
          "type": "uint256"
        }
      ],
      "name": "getCampaign",
      "outputs": [
        {
          "name": "id",
          "type": "uint256"
        },
        {
          "name": "creator",
          "type": "address"
        },
        {
          "name": "numOfToken",
          "type": "int256"
        },
        {
          "name": "numberOfTrans",
          "type": "uint256"
        },
        {
          "name": "ipfsHash",
          "type": "bytes"
        }
      ],
      "payable": false,
      "stateMutability": "view",
      "type": "function"
    },
    {
      "constant": false,
      "inputs": [
        {
          "name": "tokens",
          "type": "uint256"
        },
        {
          "name": "idCampaign",
          "type": "uint256"
        },
        {
          "name": "username",
          "type": "bytes16"
        },
        {
          "name": "password",
          "type": "bytes"
        },
        {
          "name": "transIpfsHash",
          "type": "bytes"
        }
      ],
      "name": "donate",
      "outputs": [
        {
          "name": "success",
          "type": "bool"
        }
      ],
      "payable": false,
      "stateMutability": "nonpayable",
      "type": "function"
    },
    {
      "constant": true,
      "inputs": [],
      "name": "getUserCount",
      "outputs": [
        {
          "name": "count",
          "type": "uint256"
        }
      ],
      "payable": false,
      "stateMutability": "view",
      "type": "function"
    },
    {
      "constant": true,
      "inputs": [],
      "name": "getCampaignCount",
      "outputs": [
        {
          "name": "count",
          "type": "uint256"
        }
      ],
      "payable": false,
      "stateMutability": "view",
      "type": "function"
    },
    {
      "constant": true,
      "inputs": [],
      "name": "getTransCount",
      "outputs": [
        {
          "name": "count",
          "type": "uint256"
        }
      ],
      "payable": false,
      "stateMutability": "view",
      "type": "function"
    }
  ],
  "bytecode": "0x60806040523480156200001157600080fd5b506200001c62000444565b6080604051908101604052807f61646d696e0000000000000000000000000000000000000000000000000000006fffffffffffffffffffffffffffffffff191681526020016040805190810160405280600781526020017f636861726974790000000000000000000000000000000000000000000000000081525081526020016040805190810160405280600d81526020017f6e6f742d617661696c61626c65000000000000000000000000000000000000008152508152602001600081525090506007819080600181540180825580915050906001820390600052602060002090600402016000909192909190915060008201518160000160006101000a8154816fffffffffffffffffffffffffffffffff02191690837001000000000000000000000000000000009004021790555060208201518160010190805190602001906200016b92919062000480565b5060408201518160020190805190602001906200018a92919062000480565b506060820151816003015550505060083390806001815401808255809150509060018203906000526020600020016000909192909190916101000a81548173ffffffffffffffffffffffffffffffffffffffff021916908373ffffffffffffffffffffffffffffffffffffffff16021790555050600980600181540180825580915050906001820390600052602060002090600291828204019190066010027f61646d696e000000000000000000000000000000000000000000000000000000909190916101000a8154816fffffffffffffffffffffffffffffffff02191690837001000000000000000000000000000000009004021790555050600b602060405190810160405280600060ff16815250908060018154018082558091505090600182039060005260206000200160009091929091909150906001620002d292919062000507565b5050600d602060405190810160405280600060ff16815250908060018154018082558091505090600182039060005260206000200160009091929091909150906001620003219291906200055e565b50506000600f819055506000601081905550600c806001815401808255809150509060018203906000526020600020016000606060405190810160405280602c81526020017f746869732063616d706169676e206973207573656420746f207761737465207481526020017f68652031737420696e646578000000000000000000000000000000000000000081525090919091509080519060200190620003ca929190620005b5565b50506001600c8054905003600660405180807f746869732063616d706169676e206973207573656420746f207761737465207481526020017f68652031737420696e6465780000000000000000000000000000000000000000815250602c019050908152602001604051809103902081905550506200068c565b60806040519081016040528060006fffffffffffffffffffffffffffffffff191681526020016060815260200160608152602001600081525090565b828054600181600116156101000203166002900490600052602060002090601f016020900481019282601f10620004c357805160ff1916838001178555620004f4565b82800160010185558215620004f4579182015b82811115620004f3578251825591602001919060010190620004d6565b5b5090506200050391906200063c565b5090565b8280548282559060005260206000209081019282156200054b579160200282015b828111156200054a578251829060ff1690559160200191906001019062000528565b5b5090506200055a919062000664565b5090565b828054828255906000526020600020908101928215620005a2579160200282015b82811115620005a1578251829060ff169055916020019190600101906200057f565b5b509050620005b191906200063c565b5090565b828054600181600116156101000203166002900490600052602060002090601f016020900481019282601f10620005f857805160ff191683800117855562000629565b8280016001018555821562000629579182015b82811115620006285782518255916020019190600101906200060b565b5b5090506200063891906200063c565b5090565b6200066191905b808211156200065d57600081600090555060010162000643565b5090565b90565b6200068991905b80821115620006855760008160009055506001016200066b565b5090565b90565b613521806200069c6000396000f3006080604052600436106100db576000357c0100000000000000000000000000000000000000000000000000000000900463ffffffff16806308ecd3a6146100e057806325caa262146101755780632869d95a146101a05780635598f8cc1461029857806365772af6146103865780636caa92181461046a578063780fc5e2146104955780638202f8dc146105795780638a344769146105a45780639dc3716014610656578063a868b445146106f4578063b5cb15f7146107d8578063dc5c474614610803578063e8532f1c14610825578063f2a40db8146109f7575b600080fd5b3480156100ec57600080fd5b5061011e60048036038101908080356fffffffffffffffffffffffffffffffff19169060200190929190505050610b3d565b6040518080602001828103825283818151815260200191508051906020019060200280838360005b83811015610161578082015181840152602081019050610146565b505050509050019250505060405180910390f35b34801561018157600080fd5b5061018a610be7565b6040518082815260200191505060405180910390f35b3480156101ac57600080fd5b5061027e600480360381019080803590602001909291908035906020019092919080356fffffffffffffffffffffffffffffffff19169060200190929190803590602001908201803590602001908080601f0160208091040260200160405190810160405280939291908181526020018383808284378201915050505050509192919290803590602001908201803590602001908080601f0160208091040260200160405190810160405280939291908181526020018383808284378201915050505050509192919290505050610c06565b604051808215151515815260200191505060405180910390f35b3480156102a457600080fd5b506102c36004803603810190808035906020019092919050505061130f565b604051808681526020018573ffffffffffffffffffffffffffffffffffffffff1673ffffffffffffffffffffffffffffffffffffffff16815260200184815260200183815260200180602001828103825283818151815260200191508051906020019080838360005b8381101561034757808201518184015260208101905061032c565b50505050905090810190601f1680156103745780820380516001836020036101000a031916815260200191505b50965050505050505060405180910390f35b34801561039257600080fd5b5061045060048036038101908080356fffffffffffffffffffffffffffffffff19169060200190929190803590602001908201803590602001908080601f0160208091040260200160405190810160405280939291908181526020018383808284378201915050505050509192919290803590602001908201803590602001908080601f0160208091040260200160405190810160405280939291908181526020018383808284378201915050505050509192919290505050611528565b604051808215151515815260200191505060405180910390f35b34801561047657600080fd5b5061047f61186e565b6040518082815260200191505060405180910390f35b3480156104a157600080fd5b5061055f60048036038101908080356fffffffffffffffffffffffffffffffff19169060200190929190803590602001908201803590602001908080601f0160208091040260200160405190810160405280939291908181526020018383808284378201915050505050509192919290803590602001908201803590602001908080601f0160208091040260200160405190810160405280939291908181526020018383808284378201915050505050509192919290505050611878565b604051808215151515815260200191505060405180910390f35b34801561058557600080fd5b5061058e611d21565b6040518082815260200191505060405180910390f35b3480156105b057600080fd5b5061063c600480360381019080803590602001909291908035906020019092919080356fffffffffffffffffffffffffffffffff19169060200190929190803590602001908201803590602001908080601f0160208091040260200160405190810160405280939291908181526020018383808284378201915050505050509192919290505050611d2b565b604051808215151515815260200191505060405180910390f35b34801561066257600080fd5b506106da60048036038101908080356fffffffffffffffffffffffffffffffff19169060200190929190803590602001908201803590602001908080601f0160208091040260200160405190810160405280939291908181526020018383808284378201915050505050509192919290505050611fe1565b604051808215151515815260200191505060405180910390f35b34801561070057600080fd5b506107be60048036038101908080356fffffffffffffffffffffffffffffffff19169060200190929190803590602001908201803590602001908080601f0160208091040260200160405190810160405280939291908181526020018383808284378201915050505050509192919290803590602001908201803590602001908080601f0160208091040260200160405190810160405280939291908181526020018383808284378201915050505050509192919290505050612320565b604051808215151515815260200191505060405180910390f35b3480156107e457600080fd5b506107ed61274c565b6040518082815260200191505060405180910390f35b61080b612759565b604051808215151515815260200191505060405180910390f35b34801561083157600080fd5b506108a960048036038101908080356fffffffffffffffffffffffffffffffff19169060200190929190803590602001908201803590602001908080601f0160208091040260200160405190810160405280939291908181526020018383808284378201915050505050509192919290505050612b78565b604051808673ffffffffffffffffffffffffffffffffffffffff1673ffffffffffffffffffffffffffffffffffffffff168152602001856fffffffffffffffffffffffffffffffff19166fffffffffffffffffffffffffffffffff191681526020018060200184815260200180602001838103835286818151815260200191508051906020019080838360005b83811015610951578082015181840152602081019050610936565b50505050905090810190601f16801561097e5780820380516001836020036101000a031916815260200191505b50838103825284818151815260200191508051906020019080838360005b838110156109b757808201518184015260208101905061099c565b50505050905090810190601f1680156109e45780820380516001836020036101000a031916815260200191505b5097505050505050505060405180910390f35b348015610a0357600080fd5b50610a2260048036038101908080359060200190929190505050612e3f565b60405180856fffffffffffffffffffffffffffffffff19166fffffffffffffffffffffffffffffffff191681526020018060200180602001848152602001838103835286818151815260200191508051906020019080838360005b83811015610a98578082015181840152602081019050610a7d565b50505050905090810190601f168015610ac55780820380516001836020036101000a031916815260200191505b50838103825285818151815260200191508051906020019080838360005b83811015610afe578082015181840152602081019050610ae3565b50505050905090810190601f168015610b2b5780820380516001836020036101000a031916815260200191505b50965050505050505060405180910390f35b6060600b60016000846fffffffffffffffffffffffffffffffff19166fffffffffffffffffffffffffffffffff1916815260200190815260200160002054815481101515610b8757fe5b90600052602060002001805480602002602001604051908101604052809291908181526020018280548015610bdb57602002820191906000526020600020905b815481526020019060010190808311610bc7575b50505050509050919050565b60003073ffffffffffffffffffffffffffffffffffffffff1631905090565b6000610c1061324e565b610c1861328a565b610c206132d7565b610c2a8787611fe1565b1515610c3557600080fd5b600760016000896fffffffffffffffffffffffffffffffff19166fffffffffffffffffffffffffffffffff1916815260200190815260200160002054815481101515610c7d57fe5b9060005260206000209060040201608060405190810160405290816000820160009054906101000a9004700100000000000000000000000000000000026fffffffffffffffffffffffffffffffff19166fffffffffffffffffffffffffffffffff19168152602001600182018054600181600116156101000203166002900480601f016020809104026020016040519081016040528092919081815260200182805460018160011615610100020316600290048015610d7d5780601f10610d5257610100808354040283529160200191610d7d565b820191906000526020600020905b815481529060010190602001808311610d6057829003601f168201915b50505050508152602001600282018054600181600116156101000203166002900480601f016020809104026020016040519081016040528092919081815260200182805460018160011615610100020316600290048015610e1f5780601f10610df457610100808354040283529160200191610e1f565b820191906000526020600020905b815481529060010190602001808311610e0257829003601f168201915b50505050508152602001600382015481525050925088836060015112151515610e4757600080fd5b88836060018181510391508181525050826007600160008a6fffffffffffffffffffffffffffffffff19166fffffffffffffffffffffffffffffffff1916815260200190815260200160002054815481101515610ea057fe5b906000526020600020906004020160008201518160000160006101000a8154816fffffffffffffffffffffffffffffffff0219169083700100000000000000000000000000000000900402179055506020820151816001019080519060200190610f0b929190613307565b506040820151816002019080519060200190610f28929190613307565b50606082015181600301559050506004600089815260200190815260200160002060c0604051908101604052908160008201548152602001600182018054600181600116156101000203166002900480601f016020809104026020016040519081016040528092919081815260200182805460018160011615610100020316600290048015610ff85780601f10610fcd57610100808354040283529160200191610ff8565b820191906000526020600020905b815481529060010190602001808311610fdb57829003601f168201915b505050505081526020016002820160009054906101000a900473ffffffffffffffffffffffffffffffffffffffff1673ffffffffffffffffffffffffffffffffffffffff1673ffffffffffffffffffffffffffffffffffffffff1681526020016003820154815260200160048201548152602001600582018054600181600116156101000203166002900480601f0160208091040260200160405190810160405280929190818152602001828054600181600116156101000203166002900480156111045780601f106110d957610100808354040283529160200191611104565b820191906000526020600020905b8154815290600101906020018083116110e757829003601f168201915b505050505081525050915088826060018181510191508181525050600182608001818151019150818152505081600460008a815260200190815260200160002060008201518160000155602082015181600101908051906020019061116a929190613307565b5060408201518160020160006101000a81548173ffffffffffffffffffffffffffffffffffffffff021916908373ffffffffffffffffffffffffffffffffffffffff160217905550606082015181600301556080820151816004015560a08201518160050190805190602001906111e2929190613307565b5090505060a0604051908101604052806010548152602001600160008a6fffffffffffffffffffffffffffffffff19166fffffffffffffffffffffffffffffffff191681526020019081526020016000205481526020018981526020018a8152602001868152509050600e8881548110151561125a57fe5b906000526020600020016010549080600181540180825580915050906001820390600052602060002001600090919290919091505550806005600060105481526020019081526020016000206000820151816000015560208201518160010155604082015181600201556060820151816003015560808201518160040190805190602001906112ea929190613307565b5090505060016010600082825401925050819055506001935050505095945050505050565b600080600080606061131f61328a565b6004600088815260200190815260200160002060c0604051908101604052908160008201548152602001600182018054600181600116156101000203166002900480601f0160208091040260200160405190810160405280929190818152602001828054600181600116156101000203166002900480156113e15780601f106113b6576101008083540402835291602001916113e1565b820191906000526020600020905b8154815290600101906020018083116113c457829003601f168201915b505050505081526020016002820160009054906101000a900473ffffffffffffffffffffffffffffffffffffffff1673ffffffffffffffffffffffffffffffffffffffff1673ffffffffffffffffffffffffffffffffffffffff1681526020016003820154815260200160048201548152602001600582018054600181600116156101000203166002900480601f0160208091040260200160405190810160405280929190818152602001828054600181600116156101000203166002900480156114ed5780601f106114c2576101008083540402835291602001916114ed565b820191906000526020600020905b8154815290600101906020018083116114d057829003601f168201915b505050505081525050905080600001518160400151826060015183608001518460a00151809050955095509550955095505091939590929450565b600061153261328a565b61153b85612fcb565b151561154657600080fd5b61154f8461304d565b15151561155b57600080fd5b60c060405190810160405280600f548152602001858152602001600860016000896fffffffffffffffffffffffffffffffff19166fffffffffffffffffffffffffffffffff19168152602001908152602001600020548154811015156115bd57fe5b9060005260206000200160009054906101000a900473ffffffffffffffffffffffffffffffffffffffff1673ffffffffffffffffffffffffffffffffffffffff16815260200160008152602001600081526020018481525090508060046000600f548152602001908152602001600020600082015181600001556020820151816001019080519060200190611653929190613307565b5060408201518160020160006101000a81548173ffffffffffffffffffffffffffffffffffffffff021916908373ffffffffffffffffffffffffffffffffffffffff160217905550606082015181600301556080820151816004015560a08201518160050190805190602001906116cb929190613307565b50905050600d60016000876fffffffffffffffffffffffffffffffff19166fffffffffffffffffffffffffffffffff191681526020019081526020016000205481548110151561171757fe5b90600052602060002001600f5490806001815401808255809150509060018203906000526020600020016000909192909190915055506001600f60008282540192505081905550600c84908060018154018082558091505090600182039060005260206000200160009091929091909150908051906020019061179b929190613387565b50506001600c80549050036006856040518082805190602001908083835b6020831015156117de57805182526020820191506020810190506020830392506117b9565b6001836020036101000a038019825116818451168082178552505050505050905001915050908152602001604051809103902081905550600e602060405190810160405280600060ff16815250908060018154018082558091505090600182039060005260206000200160009091929091909150906001611860929190613407565b505060019150509392505050565b6000600f54905090565b600061188261324e565b61188b33613194565b15151561189757600080fd5b6118a085612fcb565b1515156118ac57600080fd5b608060405190810160405280866fffffffffffffffffffffffffffffffff19168152602001858152602001848152602001600081525090506007819080600181540180825580915050906001820390600052602060002090600402016000909192909190915060008201518160000160006101000a8154816fffffffffffffffffffffffffffffffff021916908370010000000000000000000000000000000090040217905550602082015181600101908051906020019061196f929190613307565b50604082015181600201908051906020019061198c929190613307565b5060608201518160030155505050600985908060018154018082558091505090600182039060005260206000209060029182820401919006601002909192909190916101000a8154816fffffffffffffffffffffffffffffffff0219169083700100000000000000000000000000000000900402179055505060083390806001815401808255809150509060018203906000526020600020016000909192909190916101000a81548173ffffffffffffffffffffffffffffffffffffffff021916908373ffffffffffffffffffffffffffffffffffffffff16021790555050600a839080600181540180825580915050906001820390600052602060002001600090919290919091509080519060200190611aa8929190613387565b5050600b602060405190810160405280600060ff16815250908060018154018082558091505090600182039060005260206000200160009091929091909150906001611af5929190613459565b5050600d602060405190810160405280600060ff16815250908060018154018082558091505090600182039060005260206000200160009091929091909150906001611b42929190613407565b50506001600880549050036000803373ffffffffffffffffffffffffffffffffffffffff1673ffffffffffffffffffffffffffffffffffffffff1681526020019081526020016000208190555080600260003373ffffffffffffffffffffffffffffffffffffffff1673ffffffffffffffffffffffffffffffffffffffff16815260200190815260200160002060008201518160000160006101000a8154816fffffffffffffffffffffffffffffffff0219169083700100000000000000000000000000000000900402179055506020820151816001019080519060200190611c2c929190613307565b506040820151816002019080519060200190611c49929190613307565b506060820151816003015590505060016009805490500360016000876fffffffffffffffffffffffffffffffff19166fffffffffffffffffffffffffffffffff19168152602001908152602001600020819055506001600a80549050036003846040518082805190602001908083835b602083101515611cde5780518252602082019150602081019050602083039250611cb9565b6001836020036101000a03801982511681845116808217855250505050505090500191505090815260200160405180910390208190555060019150509392505050565b6000601054905090565b6000611d3561324e565b611d3f8484611fe1565b1515611d4a57600080fd5b633b9aca0085028610151515611d5f57600080fd5b600760016000866fffffffffffffffffffffffffffffffff19166fffffffffffffffffffffffffffffffff1916815260200190815260200160002054815481101515611da757fe5b9060005260206000209060040201608060405190810160405290816000820160009054906101000a9004700100000000000000000000000000000000026fffffffffffffffffffffffffffffffff19166fffffffffffffffffffffffffffffffff19168152602001600182018054600181600116156101000203166002900480601f016020809104026020016040519081016040528092919081815260200182805460018160011615610100020316600290048015611ea75780601f10611e7c57610100808354040283529160200191611ea7565b820191906000526020600020905b815481529060010190602001808311611e8a57829003601f168201915b50505050508152602001600282018054600181600116156101000203166002900480601f016020809104026020016040519081016040528092919081815260200182805460018160011615610100020316600290048015611f495780601f10611f1e57610100808354040283529160200191611f49565b820191906000526020600020905b815481529060010190602001808311611f2c57829003601f168201915b50505050508152602001600382015481525050905085816060015110151515611f7157600080fd5b633b9aca008602611f80610be7565b10151515611f8d57600080fd5b3373ffffffffffffffffffffffffffffffffffffffff166108fc869081150290604051600060405180830381858888f19350505050158015611fd3573d6000803e3d6000fd5b506001915050949350505050565b6000611feb61324e565b611ff484612fcb565b1515611fff57600080fd5b600760016000866fffffffffffffffffffffffffffffffff19166fffffffffffffffffffffffffffffffff191681526020019081526020016000205481548110151561204757fe5b9060005260206000209060040201608060405190810160405290816000820160009054906101000a9004700100000000000000000000000000000000026fffffffffffffffffffffffffffffffff19166fffffffffffffffffffffffffffffffff19168152602001600182018054600181600116156101000203166002900480601f0160208091040260200160405190810160405280929190818152602001828054600181600116156101000203166002900480156121475780601f1061211c57610100808354040283529160200191612147565b820191906000526020600020905b81548152906001019060200180831161212a57829003601f168201915b50505050508152602001600282018054600181600116156101000203166002900480601f0160208091040260200160405190810160405280929190818152602001828054600181600116156101000203166002900480156121e95780601f106121be576101008083540402835291602001916121e9565b820191906000526020600020905b8154815290600101906020018083116121cc57829003601f168201915b505050505081526020016003820154815250509050836fffffffffffffffffffffffffffffffff191681600001516fffffffffffffffffffffffffffffffff19161480156123065750826040518082805190602001908083835b6020831015156122685780518252602082019150602081019050602083039250612243565b6001836020036101000a03801982511681845116808217855250505050505090500191505060405180910390206000191681602001516040518082805190602001908083835b6020831015156122d357805182526020820191506020810190506020830392506122ae565b6001836020036101000a038019825116818451168082178552505050505050905001915050604051809103902060001916145b156123145760019150612319565b600091505b5092915050565b600061232a61324e565b61233385612fcb565b151561233e57600080fd5b600760016000876fffffffffffffffffffffffffffffffff19166fffffffffffffffffffffffffffffffff191681526020019081526020016000205481548110151561238657fe5b9060005260206000209060040201608060405190810160405290816000820160009054906101000a9004700100000000000000000000000000000000026fffffffffffffffffffffffffffffffff19166fffffffffffffffffffffffffffffffff19168152602001600182018054600181600116156101000203166002900480601f0160208091040260200160405190810160405280929190818152602001828054600181600116156101000203166002900480156124865780601f1061245b57610100808354040283529160200191612486565b820191906000526020600020905b81548152906001019060200180831161246957829003601f168201915b50505050508152602001600282018054600181600116156101000203166002900480601f0160208091040260200160405190810160405280929190818152602001828054600181600116156101000203166002900480156125285780601f106124fd57610100808354040283529160200191612528565b820191906000526020600020905b81548152906001019060200180831161250b57829003601f168201915b505050505081526020016003820154815250509050846fffffffffffffffffffffffffffffffff191681600001516fffffffffffffffffffffffffffffffff19161480156126455750836040518082805190602001908083835b6020831015156125a75780518252602082019150602081019050602083039250612582565b6001836020036101000a03801982511681845116808217855250505050505090500191505060405180910390206000191681602001516040518082805190602001908083835b60208310151561261257805182526020820191506020810190506020830392506125ed565b6001836020036101000a038019825116818451168082178552505050505050905001915050604051809103902060001916145b1561273f578281602001819052508060076001600084600001516fffffffffffffffffffffffffffffffff19166fffffffffffffffffffffffffffffffff19168152602001908152602001600020548154811015156126a057fe5b906000526020600020906004020160008201518160000160006101000a8154816fffffffffffffffffffffffffffffffff021916908370010000000000000000000000000000000090040217905550602082015181600101908051906020019061270b929190613307565b506040820151816002019080519060200190612728929190613307565b506060820151816003015590505060019150612744565b600091505b509392505050565b6000600880549050905090565b600080600034633b9aca0081101515156127db576040517f08c379a000000000000000000000000000000000000000000000000000000000815260040180806020018281038252601d8152602001807f56616c7565206d757374206265206174206c656173742031206777656900000081525060200191505060405180910390fd5b633b9aca00348115156127ea57fe5b049250600260003373ffffffffffffffffffffffffffffffffffffffff1673ffffffffffffffffffffffffffffffffffffffff16815260200190815260200160002091508282600301600082825401925050819055506080604051908101604052808360000160009054906101000a9004700100000000000000000000000000000000026fffffffffffffffffffffffffffffffff19168152602001836001018054600181600116156101000203166002900480601f01602080910402602001604051908101604052809291908181526020018280546001816001161561010002031660029004801561291e5780601f106128f35761010080835404028352916020019161291e565b820191906000526020600020905b81548152906001019060200180831161290157829003601f168201915b50505050508152602001836002018054600181600116156101000203166002900480601f0160208091040260200160405190810160405280929190818152602001828054600181600116156101000203166002900480156129c05780601f10612995576101008083540402835291602001916129c0565b820191906000526020600020905b8154815290600101906020018083116129a357829003601f168201915b5050505050815260200183600301548152506007600160008560000160009054906101000a9004700100000000000000000000000000000000026fffffffffffffffffffffffffffffffff19166fffffffffffffffffffffffffffffffff1916815260200190815260200160002054815481101515612a3b57fe5b906000526020600020906004020160008201518160000160006101000a8154816fffffffffffffffffffffffffffffffff0219169083700100000000000000000000000000000000900402179055506020820151816001019080519060200190612aa6929190613307565b506040820151816002019080519060200190612ac3929190613307565b5060608201518160030155905050600b600160008460000160009054906101000a9004700100000000000000000000000000000000026fffffffffffffffffffffffffffffffff19166fffffffffffffffffffffffffffffffff1916815260200190815260200160002054815481101515612b3a57fe5b906000526020600020018390806001815401808255809150509060018203906000526020600020016000909192909190915055506001935050505090565b600080606060006060612b8961324e565b612b938888611fe1565b1515612b9e57600080fd5b6007600160008a6fffffffffffffffffffffffffffffffff19166fffffffffffffffffffffffffffffffff1916815260200190815260200160002054815481101515612be657fe5b9060005260206000209060040201608060405190810160405290816000820160009054906101000a9004700100000000000000000000000000000000026fffffffffffffffffffffffffffffffff19166fffffffffffffffffffffffffffffffff19168152602001600182018054600181600116156101000203166002900480601f016020809104026020016040519081016040528092919081815260200182805460018160011615610100020316600290048015612ce65780601f10612cbb57610100808354040283529160200191612ce6565b820191906000526020600020905b815481529060010190602001808311612cc957829003601f168201915b50505050508152602001600282018054600181600116156101000203166002900480601f016020809104026020016040519081016040528092919081815260200182805460018160011615610100020316600290048015612d885780601f10612d5d57610100808354040283529160200191612d88565b820191906000526020600020905b815481529060010190602001808311612d6b57829003601f168201915b5050505050815260200160038201548152505090506008600160008a6fffffffffffffffffffffffffffffffff19166fffffffffffffffffffffffffffffffff1916815260200190815260200160002054815481101515612de557fe5b9060005260206000200160009054906101000a900473ffffffffffffffffffffffffffffffffffffffff16816000015182602001518360600151846040015182925080905095509550955095509550509295509295909350565b600781815481101515612e4e57fe5b90600052602060002090600402016000915090508060000160009054906101000a90047001000000000000000000000000000000000290806001018054600181600116156101000203166002900480601f016020809104026020016040519081016040528092919081815260200182805460018160011615610100020316600290048015612f1d5780601f10612ef257610100808354040283529160200191612f1d565b820191906000526020600020905b815481529060010190602001808311612f0057829003601f168201915b505050505090806002018054600181600116156101000203166002900480601f016020809104026020016040519081016040528092919081815260200182805460018160011615610100020316600290048015612fbb5780601f10612f9057610100808354040283529160200191612fbb565b820191906000526020600020905b815481529060010190602001808311612f9e57829003601f168201915b5050505050908060030154905084565b60008060016000846fffffffffffffffffffffffffffffffff19166fffffffffffffffffffffffffffffffff1916815260200190815260200160002054118061304657507f61646d696e000000000000000000000000000000000000000000000000000000826fffffffffffffffffffffffffffffffff1916145b9050919050565b600060405180807f746869732063616d706169676e206973207573656420746f207761737465207481526020017f68652031737420696e6465780000000000000000000000000000000000000000815250602c019050604051809103902060001916826040518082805190602001908083835b6020831015156130e557805182526020820191506020810190506020830392506130c0565b6001836020036101000a038019825116818451168082178552505050505050905001915050604051809103902060001916148061318d575060006006836040518082805190602001908083835b6020831015156131575780518252602082019150602081019050602083039250613132565b6001836020036101000a038019825116818451168082178552505050505050905001915050908152602001604051809103902054115b9050919050565b6000806000808473ffffffffffffffffffffffffffffffffffffffff1673ffffffffffffffffffffffffffffffffffffffff1681526020019081526020016000205411806132475750600860008154811015156131ed57fe5b9060005260206000200160009054906101000a900473ffffffffffffffffffffffffffffffffffffffff1673ffffffffffffffffffffffffffffffffffffffff168273ffffffffffffffffffffffffffffffffffffffff16145b9050919050565b60806040519081016040528060006fffffffffffffffffffffffffffffffff191681526020016060815260200160608152602001600081525090565b60c0604051908101604052806000815260200160608152602001600073ffffffffffffffffffffffffffffffffffffffff1681526020016000815260200160008152602001606081525090565b60a06040519081016040528060008152602001600081526020016000815260200160008152602001606081525090565b828054600181600116156101000203166002900490600052602060002090601f016020900481019282601f1061334857805160ff1916838001178555613376565b82800160010185558215613376579182015b8281111561337557825182559160200191906001019061335a565b5b50905061338391906134ab565b5090565b828054600181600116156101000203166002900490600052602060002090601f016020900481019282601f106133c857805160ff19168380011785556133f6565b828001600101855582156133f6579182015b828111156133f55782518255916020019190600101906133da565b5b50905061340391906134ab565b5090565b828054828255906000526020600020908101928215613448579160200282015b82811115613447578251829060ff16905591602001919060010190613427565b5b50905061345591906134ab565b5090565b82805482825590600052602060002090810192821561349a579160200282015b82811115613499578251829060ff16905591602001919060010190613479565b5b5090506134a791906134d0565b5090565b6134cd91905b808211156134c95760008160009055506001016134b1565b5090565b90565b6134f291905b808211156134ee5760008160009055506001016134d6565b5090565b905600a165627a7a7230582033e18deb9eb017e6a399f26ecca2a3e523d8174ca5d4f806f35aa2d432ffa2ef0029",
  "source": "pragma solidity ^0.4.24;\n\ncontract Funding {\n    \n    mapping (address => uint) private addressToIndex; // get Index from Address\n    mapping (bytes16 => uint) private usernameToIndex; // get Index from Username\n    mapping (address => Account) private addressToAccount; // get Account from Address\n    mapping (bytes => uint) private ipfsHashToIndex; // get Index from ipfsHash of Account\n    mapping (uint => Campaign) private idToCampaign; // get Campaign from id of a campaign\n    mapping (uint => transactionLog) private idToTransLog; // get transactionLog from id of transactionLog\n    mapping (bytes => uint) private nameOfCampToIndex; //get Index from name of Campaign\n    \n    Account[] public accounts;\n    address[] private addresses;\n    bytes16[] private usernames;\n    bytes[] private ipfsHashes; \n    int256[][] private tokenExchangeLogs;\n    bytes[] private namesOfCamp;\n    uint256[][] private campaignsByIndex;\n    uint256[][] private transactionsByIdCamp;\n    uint256 private numOfCamp;\n    uint256 private numOfTrans;\n    \n    constructor () public {\n        Account memory acc = Account(\"admin\",\"charity\",\"not-available\",0);\n    \n        accounts.push(acc);\n        addresses.push(msg.sender);\n        usernames.push(\"admin\");\n        tokenExchangeLogs.push([0]);\n        campaignsByIndex.push([0]);\n        \n        numOfCamp = 0;\n        numOfTrans = 0;\n        // create 1st campaign\n        namesOfCamp.push(\"this campaign is used to waste the 1st index\");\n        nameOfCampToIndex[\"this campaign is used to waste the 1st index\"] = namesOfCamp.length -1 ;\n    }\n    \n    struct Account{\n        bytes16 username;\n        bytes password;\n        bytes ipfsHash;\n        int token;\n    }\n    \n    struct transactionLog{\n        uint256 id;\n        uint256 fromIndexAcc;\n        uint toIdCamp;\n        uint numOfToken;\n        bytes ipfsHash;\n    }\n    \n    struct Campaign{\n        uint id;\n        bytes name;\n        address creator;\n        int numOfToken;\n        uint numOfTrans;\n        bytes ipfsHash;\n    }\n    \n    \n    function getBal() public view returns(uint256 bal){\n        return address (this).balance;\n    }\n    \n    function nameOfCampTaken(bytes nameOfCamp) private view returns (bool) {\n        return (keccak256(nameOfCamp) == keccak256(\"this campaign is used to waste the 1st index\") \n        || nameOfCampToIndex[nameOfCamp] > 0 ); \n    }\n\n    function hadAccount(address userAddress) private view returns (bool flag){\n        return (addressToIndex[userAddress] > 0 || userAddress == addresses[0]);\n    }\n    \n    function usernameTaken(bytes16 username) private view returns (bool flag){\n        return (usernameToIndex[username] > 0 || username == \"admin\");\n    }\n    \n    modifier minPrice (uint256 _amount){\n        require(_amount >= 1000000000,\"Value must be at least 1 gwei\");\n        _;\n    }\n\n    function createAccount(bytes16 username,bytes password,bytes ipfsHash) public returns (bool success)\n    {\n        require(!hadAccount(msg.sender));\n        require(!usernameTaken(username));\n        Account memory acc = Account (username,password,ipfsHash,0);\n        \n        accounts.push(acc);\n        usernames.push(username);\n        addresses.push(msg.sender);\n        ipfsHashes.push(ipfsHash);\n        tokenExchangeLogs.push([0]);\n        campaignsByIndex.push([0]);\n        \n        addressToIndex[msg.sender] = addresses.length - 1;\n        addressToAccount[msg.sender] = acc;\n        usernameToIndex[username] = usernames.length - 1;\n        ipfsHashToIndex[ipfsHash] = ipfsHashes.length - 1;\n        \n        return true;\n    }\n    \n    function changePassword(bytes16 username,bytes oladPassword,bytes newPassword)\n    public returns (bool success){\n        require(usernameTaken(username));\n        Account memory acc = accounts[usernameToIndex[username]];\n         if(acc.username == username && keccak256(acc.password) == keccak256(oladPassword)){\n            acc.password = newPassword;\n            accounts[usernameToIndex[acc.username]] = acc;\n            return true;\n        }else{\n            return false;\n        }\n    }\n    \n    function checkAuth(bytes16 username,bytes password) public view returns(bool success){\n        require(usernameTaken(username));\n        Account memory acc = accounts[usernameToIndex[username]];\n        if(acc.username == username && keccak256(acc.password) == keccak256(password)){\n            return true;\n        }else{\n            return false;\n        }\n    }\n    \n    function exchangeToToken() payable minPrice(msg.value) public returns (bool success){\n        int256 numOfToken = int256(msg.value/1000000000);\n        // get Account\n        Account storage acc = addressToAccount[msg.sender];\n        acc.token += numOfToken;\n        accounts[usernameToIndex[acc.username]] = Account(acc.username,acc.password,acc.ipfsHash,acc.token);\n        // add to tokenExchangeLogs\n        tokenExchangeLogs[usernameToIndex[acc.username]].push(numOfToken);\n        \n        return true;\n    }\n    \n    function exchangeToEther(uint256 fromToken,uint256 toEther,bytes16 username, bytes password) public returns(bool success){\n        require(checkAuth(username,password));\n        require(fromToken >= toEther*1000000000);\n        Account memory acc = accounts[usernameToIndex[username]];\n        require(uint256 (acc.token) >= fromToken);\n        require(getBal() >= uint256 (fromToken*1000000000));\n        msg.sender.transfer(toEther);\n        return true;\n    }\n    \n    function getUserProfile(bytes16 username,bytes password) public view returns (address addr,bytes16 usrname,bytes pwd,int256 token,bytes ipfsHash){\n        require(checkAuth(username,password));\n        Account memory acc = accounts[usernameToIndex[username]];\n        return (addresses[usernameToIndex[username]],acc.username,acc.password,acc.token,acc.ipfsHash);\n    }\n\n    function getTokenExchangeLog (bytes16 username) public view returns(int256[] tokensExchange){\n        return tokenExchangeLogs[usernameToIndex[username]];\n    }\n    \n    function createCampaign(bytes16 username,bytes nameOfCamp,bytes campaignIpfsHash) public \n    returns (bool success){\n        require(usernameTaken(username));\n        require(!nameOfCampTaken(nameOfCamp));\n        Campaign memory camp = Campaign(numOfCamp,nameOfCamp,addresses[usernameToIndex[username]],0,0,campaignIpfsHash);\n        idToCampaign[numOfCamp] = camp;\n        campaignsByIndex[usernameToIndex[username]].push(numOfCamp);\n        numOfCamp += 1;\n        namesOfCamp.push(nameOfCamp);\n        nameOfCampToIndex[nameOfCamp] = namesOfCamp.length - 1;\n        transactionsByIdCamp.push([0]);\n        return true;\n    }\n    \n    function getCampaign (uint256 idCampaign) public \n    view returns (uint256 id,address creator,int256 numOfToken,uint256 numberOfTrans,bytes ipfsHash){\n        Campaign memory camp = idToCampaign[idCampaign];\n        return (camp.id,camp.creator,camp.numOfToken,camp.numOfTrans,camp.ipfsHash);\n    }\n \n    function donate(uint256 tokens,uint256 idCampaign,bytes16 username,bytes password,bytes transIpfsHash) public returns (bool success){\n        require(checkAuth(username,password));\n        Account memory acc = accounts[usernameToIndex[username]];\n        require(acc.token >= int256 (tokens));\n        acc.token -= int256 (tokens);\n        accounts[usernameToIndex[username]] = acc;\n        \n        Campaign memory camp = idToCampaign[idCampaign];\n        camp.numOfToken += int256 (tokens);\n        camp.numOfTrans += 1;\n        idToCampaign[idCampaign] = camp;\n        \n        transactionLog memory trans = transactionLog(numOfTrans,usernameToIndex[username]\n        ,idCampaign,tokens,transIpfsHash);\n        transactionsByIdCamp[idCampaign].push(numOfTrans);\n        idToTransLog[numOfTrans] = trans;\n        numOfTrans += 1;\n        return true;\n    }\n    \n    function getUserCount() public view returns(uint count)\n    {\n        return addresses.length;\n    }\n    \n    function getCampaignCount() public view returns(uint count)\n    {\n        return numOfCamp;\n    }\n    \n    function getTransCount() public view returns(uint count)\n    {\n        return numOfTrans;\n    }\n}\n",
  "sourcePath": "/Volumes/D/dapp/ethereum-charity-funding/contracts/Funding.sol",
  "compiler": {
    "name": "solc",
    "version": "0.4.24+commit.e67f0147.Emscripten.clang"
  },
  "schemaVersion": "2.0.1",
  "updatedAt": "2018-11-24T20:37:54.148Z"
}